:100000000C944A000C9467000C9467000C946700F1
:100010000C9467000C9467000C9467000C946700C4
:100020000C9467000C940D110C9467000C946700FD
:100030000C9467000C9467000C9467000C946700A4
:100040000C9467000C9467000C9467000C94670094
:100050000C9467000C9467000C9467000C94670084
:100060000C9467000C9467000C9467000C94670074
:100070000C9467000C9467000C9467000C94670064
:100080000C9467000C9467000C9467000C94670054
:100090000C94670011241FBECFEFD0E1DEBFCDBFAF
:1000A00013E0A0E0B1E0E6E7FDE200E00BBF02C034
:1000B00007900D92A437B107D9F713E0A4E7B3E096
:1000C00001C01D92AF37B107E1F70C9469000C94A1
:1000D0000000CF93DF93CDB7DEB7E1E6F0E080E834
:1000E0008083E1E6F0E010820E946E0F40E056E966
:1000F00060E070E083E00E94B3118AE991E09F9391
:100100008F9380E091E09F938F930E94B7120F909E
:100110000F900F900F9083E091E09F938F930E9438
:10012000B7120F900F9088E291E09F938F930E94F7
:10013000B7120F900F9080E00E94D1040E94A1009E
:10014000FFCFCF93DF93CDB7DEB7AE970FB6F8945E
:10015000DEBF0FBECDBFCE0105969E8B8D8B1F8A55
:10016000CE014A969BA78AA71CA680ED97E00E9425
:1001700005108AE491E09F938F930E94B7120F902D
:100180000F901B82B5C01C820CC08C81282F332796
:10019000CE014A96FC01E20FF31F10828C818F5F23
:1001A0008C838C81883088F38B81992780589F4F6E
:1001B0009EA38DA31EA61DA684E089A788E090E0DB
:1001C0009CA38BA3CE0182960E94FC048823D1F7C6
:1001D0001C820CC08C81282F3327CE010596FC0190
:1001E000E20FF31F10828C818F5F8C838C818830AB
:1001F00088F38B81992780589F4F998B888B198E14
:1002000081E0888F84E08C8B83E090E09F878E87ED
:10021000CE010D960E94FC048823D1F704C082E32E
:1002200090E00E940510CE010D960E94460E81308E
:10023000B1F3CE0182960E94460E882309F04BC08E
:100240008DA19EA19F938F938DE491E09F938F93B7
:100250000E94B7120F900F900F900F908A8D9927E0
:100260009F938F9387E691E09F938F930E94B7129D
:100270000F900F900F900F908B8D99279F938F93D6
:100280008BE791E09F938F930E94B7120F900F908E
:100290000F900F908C8D9927382F22278D8D9927BD
:1002A000822B932B9A83898389819A819F938F9341
:1002B0008BE891E09F938F930E94B7120F900F905D
:1002C0000F900F908AE491E09F938F930E94B71252
:1002D0000F900F900AC08CE090E09CA38BA3CE01FE
:1002E00082960E94FC048823D1F78B818F5F8B83D9
:1002F0008B818A3008F447CF38CFCF93DF93CDB7C7
:10030000DEB723970FB6F894DEBF0FBECDBF1B82BA
:100310001BC0EDEEF0E08B818295807F80838EEEB6
:1003200090E09A83898308C0E981FA8110828981EB
:100330009A8101969A83898389819A81883F910560
:1003400098F38B818F5F8B838B818F3010F3239693
:100350000FB6F894DEBF0FBECDBFDF91CF910895E9
:10036000CF93DF93CDB7DEB724970FB6F894DEBFF7
:100370000FBECDBFEDEEF0E0808189831A821BC0F5
:10038000EDEEF0E08A818295807F8083EFEEF0E0F1
:1003900080819927807C9070009751F4EDEEF0E019
:1003A000898180838A81282F33273C832B830EC049
:1003B0008A818F5F8A838A818F3010F3EDEEF0E0BF
:1003C000898180838FEF90E09C838B838B819C81DC
:1003D00024960FB6F894DEBF0FBECDBFDF91CF914C
:1003E0000895CF93DF93CDB7DEB724970FB6F89477
:1003F000DEBF0FBECDBFEFEEF0E080819927807C9D
:100400009070009729F42FEF30E03C832B8325C0B8
:10041000EEEEF0E08081898390EE898189238A83E2
:100420008A81803231F08A81803419F08A81803A61
:1004300031F48A81282F33273C832B830EC0898196
:100440008F718A838A81882331F08A81282F33270C
:100450003C832B8302C01C821B828B819C8124964F
:100460000FB6F894DEBF0FBECDBFDF91CF910895D8
:10047000CF93DF93CDB7DEB723970FB6F894DEBFE7
:100480000FBECDBF9B838A8319820FC089819927B4
:100490009C018A819B81D901A80FB91FEAEFF0E086
:1004A00080818C9389818F5F89838981282F33276D
:1004B000EFEEF0E0808199278F7090702817390750
:1004C0002CF323960FB6F894DEBF0FBECDBFDF919D
:1004D000CF910895CF93DF93CDB7DEB767970FB66F
:1004E000F894DEBF0FBECDBF8A8B1E82188688852A
:1004F0008B871B821D821C8281E08A878A898823E0
:10050000A1F481E0888B88E08E8782E08D8782E08D
:100510008C879D858C85980F8E85891B81508F8750
:1005200081E08F8381E0898799C0E2EEF0E08081ED
:1005300099278E779070959587951816190664F40B
:10054000E2EEF0E0808199278E77907095958795FF
:10055000982F9F5F9F8B02C081E08F8B9F89988B24
:10056000E3EEF0E0808199278E70907095958795E5
:100570001816190664F4E3EEF0E0808199278E7076
:10058000907095958795982F9F5F9E8B02C081E014
:100590008E8B9E899F87E4EEF0E0808199278E7094
:1005A0009070959587958230910564F0E4EEF0E0C7
:1005B000808199278E70907095958795982F9F5F71
:1005C0009D8B02C082E08D8B9D899D87E4EEF0E0DB
:1005D00080819927807790709595879595958795D7
:1005E00095958795959587958230910594F0E4EEE1
:1005F000F0E0808199278077907095958795959503
:1006000087959595879595958795982F9F5F9C8B56
:1006100002C082E08C8B9C899C878F85282F332792
:100620008D859927280F391F8C859927820F931F55
:10063000883091054CF09F858D85980F8C85890FAA
:10064000982F9F5F9B8B02C088E08B8B9B899E8736
:1006500081E0888788858B871F821986198A1BC04D
:10066000EDEEF0E089898295807F80838EEE90E0C8
:100670009A83898308C0E981FA81108289819A81ED
:1006800001969A83898389819A81883F910598F39D
:1006900089898F5F898B89898F3010F34DC18F8154
:1006A000813009F0B9C0E8EDF0E081E080838C8111
:1006B0009D8101969D838C831E82E2EEF0E0888905
:1006C0008150880F8083E3EEF0E08C858695992732
:1006D0000197880F991F82959295907F9827807F28
:1006E0009827282F8F8599270197880F991F822B8C
:1006F0008083E4EEF0E08C859927019782959295AE
:10070000907F9827807F9827282F8D85992701979C
:10071000880F991F822B81608083E5EEF0E08C8149
:100720009D819695879596958795969587958083D3
:10073000EDEEF0E01082EEEEF0E01082EFEEF0E091
:1007400080E88083E8EDF0E08AE08083E9EDF0E086
:1007500080819927847090700097C1F3EAEDF0E0F2
:100760008FEF808359C0EEEEF0E08081898B89891C
:100770009927807290700097C9F0198618861A869A
:1007800081E08B83AFEEB0E0EFEEF0E090818FE39D
:1007900089238C93E8EDF0E01082E9EDF0E08081B0
:1007A0009927847090700097C1F736C0898999277E
:1007B0008F719070009719F081E088871986EAEDB3
:1007C000F0E08081898B89899927807290700097E9
:1007D000C1F08E81882359F4AAEDB0E0EAEDF0E093
:1007E000808180628C938E818F5F8E830AC0AAED98
:1007F000B0E0EAEDF0E0808180628C9381E0888750
:100800001986898999278F709070009729F081E067
:100810008887198681E08F838985813009F4A3CF89
:1008200087C08B85882319F08D858F5F8D8781E048
:100830008B878D85893078F18C85883060F182E0F6
:100840008D8782E08C871B868E85893121F08E858D
:100850008F5F8E876DC088E08E878889803421F015
:1008600088898F5F888B64C018861B821A86AFEEDA
:10087000B0E0EFEEF0E090818FE389238C93E8ED18
:10088000F0E01082E9EDF0E08081992784709070AB
:100890000097C1F74DC08D85863078F08D85282F63
:1008A00033278C85992701968217930744F48C850A
:1008B0008F5F8C878C858D8702C08D858C879D8509
:1008C0008C85980F8E85891B81508F878F85893005
:1008D00078F58F85882361F18C859927AC01440FC9
:1008E000551F440F551F8F85282F33278D85992736
:1008F000820F931F019648175907D4F08C85282F33
:1009000033278C859927280F391F8C859927A901B2
:10091000480F591F8F85282F33278D859927820FE0
:10092000931F0196841795071CF0188681E089872C
:100930008885813009F475CF8A85813009F4AFCE7E
:100940008B81992767960FB6F894DEBF0FBECDBF97
:10095000DF91CF910895CF93DF93CDB7DEB7219785
:100960000FB6F894DEBF0FBECDBF8983E8EDF0E08F
:1009700081E08083E2EEF0E082E08083E3EEF0E06D
:100980008CE08083E4EEF0E087E3808381E090E018
:1009900021960FB6F894DEBF0FBECDBFDF91CF9189
:1009A0000895CF93DF93CDB7DEB723970FB6F894B2
:1009B000DEBF0FBECDBF898389810E94AB0488232F
:1009C00019F41B821A820DC00E947D01A8EDB0E0CF
:1009D000E8EDF0E0808182608C9381E090E09B8381
:1009E0008A838A819B8123960FB6F894DEBF0FBE5F
:1009F000CDBFDF91CF910895CF93DF93CDB7DEB711
:100A00002E970FB6F894DEBF0FBECDBF9A878987A9
:100A1000E985FA85818192818C30910501F5E9851E
:100A2000FA8582858036B1F4ADEEB0E0E985FA85CD
:100A300080818295807F8C93AFEEB0E0EFEEF0E0A6
:100A400090818FE389238C93EEEEF0E01082E985AC
:100A5000FA851082E985FA8512860C94390E0E9477
:100A6000B0018C838C818F3F11F40C94300EE9859A
:100A7000FA8580E68287E985FA858C818083EDEEB0
:100A8000F0E08C818295807F80838EEE90E09A8367
:100A9000898308C0E981FA81108289819A8101964F
:100AA0009A83898389819A81883F910598F3E985A2
:100AB000FA850180F281E02DFE87ED878D859E8588
:100AC0008630910509F476C38D859E858730910522
:100AD00030F58D859E858330910509F4D3C18D85D0
:100AE0009E858430910568F48D859E8581309105C1
:100AF000E9F18D859E858230910509F402C10C943F
:100B00002C0E8D859E858430910509F465C28D85F6
:100B10009E858530910509F4D1C20C942C0E8D85EB
:100B20009E858930910509F4C9C58D859E858A30D9
:100B3000910570F48D859E858730910509F4BEC3BB
:100B40008D859E858830910509F4B3C40C942C0ED4
:100B50008D859E858A30910509F4BDC68D859E855B
:100B60008B30910509F453C70C942C0EE985FA8556
:100B70008485882309F457C0A3EFB0E089859A855E
:100B80000396FC0133968081282F220F220F220F1B
:100B900089859A850396FC01329680818295869597
:100BA0008770820F8C93A2EFB0E089859A850396B7
:100BB000FC0132968081282F220F220F220F898577
:100BC0009A850396FC01319680818295869587707F
:100BD000820F8C93A1EFB0E089859A850396FC0182
:100BE00031968081282F220F220F220F89859A8526
:100BF0000396FC018081829586958770820F8C9385
:100C0000A0EFB0E089859A850396FC018081880F6A
:100C1000880F880F8C93AFEEB0E0EFEEF0E08081AC
:100C200080618C9328C0A3EFB0E089859A850396F4
:100C3000FC0131968081282F2295220F207E898504
:100C40009A850396FC018081869586958695820F0C
:100C50008C93A2EFB0E089859A850396FC01808190
:100C60008295880F807E8C93AFEEB0E0EFEEF0E0DF
:100C700080818F7E8C931B8210C0AAEFB0E0E98543
:100C8000FA85208531858B819927F901E80FF91FB5
:100C900080818C938B818F5F8B83E985FA85978127
:100CA0008B81891750F3E985FA858385882341F084
:100CB000A0EFB0E0E0EFF0E0808184608C9307C0AB
:100CC000A0EFB0E0E0EFF0E080818B7F8C93AFEE9F
:100CD000B0E0EFEEF0E09081E985FA858781892B1D
:100CE0008C93AFEEB0E0EFEEF0E090818FE38923DC
:100CF0008C93AFEEB0E0EFEEF0E0808180648C93F7
:100D0000B8C7E985FA858485882309F457C0A3EF1D
:100D1000B0E089859A850396FC0133968081282F5F
:100D2000220F220F220F89859A850396FC013296A5
:100D30008081829586958770820F8C93A2EFB0E0B8
:100D400089859A850396FC0132968081282F220F8F
:100D5000220F220F89859A850396FC0131968081A6
:100D6000829586958770820F8C93A1EFB0E089857C
:100D70009A850396FC0131968081282F220F220F3D
:100D8000220F89859A850396FC018081829586953C
:100D90008770820F8C93A0EFB0E089859A850396C7
:100DA000FC018081880F880F880F8C93AFEEB0E034
:100DB000EFEEF0E0808180618C9328C0A3EFB0E07B
:100DC00089859A850396FC0131968081282F22958A
:100DD000220F207E89859A850396FC018081869565
:100DE00086958695820F8C93A2EFB0E089859A85CF
:100DF0000396FC0180818295880F807E8C93AFEEF4
:100E0000B0E0EFEEF0E080818F7E8C931B8210C00B
:100E1000AAEFB0E0E985FA85208531858B81992795
:100E2000F901E80FF91F80818C938B818F5F8B8391
:100E3000E985FA8597818B81891750F3E985FA85D1
:100E40001386A0EFB0E0E0EFF0E080818B7F8C9321
:100E5000AFEEB0E0EFEEF0E09081E985FA858781B2
:100E6000892B8C93AFEEB0E0EFEEF0E090818FE352
:100E700089238C93AFEEB0E0EFEEF0E080818064E8
:100E80008C93F7C6E985FA858485882309F457C0D1
:100E9000A3EFB0E089859A850396FC0133968081A3
:100EA000282F220F220F220F89859A850396FC0195
:100EB00032968081829586958770820F8C93A2EFFF
:100EC000B0E089859A850396FC0132968081282FAF
:100ED000220F220F220F89859A850396FC013196F5
:100EE0008081829586958770820F8C93A1EFB0E008
:100EF00089859A850396FC0131968081282F220FDF
:100F0000220F220F89859A850396FC0180818295A4
:100F100086958770820F8C93A0EFB0E089859A85C3
:100F20000396FC018081880F880F880F8C93AFEEA9
:100F3000B0E0EFEEF0E0808180618C9328C0A3EFF9
:100F4000B0E089859A850396FC0131968081282F2F
:100F50002295220F207E89859A850396FC01808147
:100F6000869586958695820F8C93A2EFB0E0898551
:100F70009A850396FC0180818295880F807E8C93F0
:100F8000AFEEB0E0EFEEF0E080818F7E8C93E985EC
:100F9000FA8581E08387A0EFB0E0E0EFF0E08081A8
:100FA00084608C93AFEEB0E0EFEEF0E09081E985E5
:100FB000FA858781892B8C93AFEEB0E0EFEEF0E0FD
:100FC00090818FE389238C93AFEEB0E0EFEEF0E0F9
:100FD000808180648C934DC61D821E821F8218867C
:100FE000A7EFB0E0CE010596FC0133968081282F53
:100FF000220F220F220FCE010596FC01329680812E
:10100000829586958770820F8C93A6EFB0E0CE0113
:101010000596FC0132968081282F220F220F220F85
:10102000CE010596FC013196808182958695877068
:10103000820F8C93A5EFB0E0CE010596FC013196AE
:101040008081982F990F990F990FFE013596808115
:10105000829586958770890F8C93A4EFB0E0FE018E
:1010600035968081880F880F880F8C93AFEEB0E0A3
:10107000EFEEF0E09081E985FA858781892B8C93EA
:10108000A4EFB0E0E4EFF0E080818B7F8C93A4EFDD
:10109000B0E0E4EFF0E080818E7F8C93AFEEB0E0C3
:1010A000EFEEF0E090818FE389238C93AFEEB0E018
:1010B000EFEEF0E0808180688C93DBC51D821E829C
:1010C0001F821886A7EFB0E0CE010596FC0133968B
:1010D0008081282F220F220F220FCE010596FC01BE
:1010E00032968081829586958770820F8C93A6EFC9
:1010F000B0E0CE010596FC0132968081282F220FA8
:10110000220F220FCE010596FC0131968081829537
:1011100086958770820F8C93A5EFB0E0CE0105967F
:10112000FC0131968081982F990F990F990FFE013C
:1011300035968081829586958770890F8C93A4EF70
:10114000B0E0FE0135968081880F880F880F8C9360
:10115000AFEEB0E0EFEEF0E09081E985FA858781AF
:10116000892B8C93E985FA851386A4EFB0E0E4EF30
:10117000F0E0808184608C93A0EFB0E0E0EFF0E0DD
:1011800080818B7F8C93A4EFB0E0E4EFF0E080816E
:101190008E7F8C93AFEEB0E0EFEEF0E090818FE3C6
:1011A00089238C93AFEEB0E0EFEEF0E080818068B1
:1011B0008C935FC51D821E821F821886A7EFB0E048
:1011C000CE010596FC0133968081282F220F220F35
:1011D000220FCE010596FC0132968081829586957C
:1011E0008770820F8C93A6EFB0E0CE010596FC01CC
:1011F00032968081282F220F220F220FCE010596D2
:10120000FC0131968081829586958770820F8C9340
:10121000A5EFB0E0CE010596FC0131968081982FB4
:10122000990F990F990FFE013596808182958695C9
:101230008770890F8C93A4EFB0E0FE013596808112
:10124000880F880F880F8C93AFEEB0E0EFEEF0E0E0
:101250009081E985FA858781892B8C93E985FA85C8
:1012600081E08387A4EFB0E0E4EFF0E08081846068
:101270008C93A0EFB0E0E0EFF0E0808184608C938D
:10128000AFEEB0E0EFEEF0E080818F7D8C93A4EFC5
:10129000B0E0E4EFF0E080818E7F8C93AFEEB0E0C1
:1012A000EFEEF0E090818FE389238C93AFEEB0E016
:1012B000EFEEF0E0808180688C93DBC4E985FA85ED
:1012C0008485882309F457C0A3EFB0E089859A8507
:1012D0000396FC0133968081282F220F220F220FC4
:1012E00089859A850396FC01329680818295869540
:1012F0008770820F8C93A2EFB0E089859A85039660
:10130000FC0132968081282F220F220F220F89851F
:101310009A850396FC013196808182958695877027
:10132000820F8C93A1EFB0E089859A850396FC012A
:1013300031968081282F220F220F220F89859A85CE
:101340000396FC018081829586958770820F8C932D
:10135000A0EFB0E089859A850396FC018081880F13
:10136000880F880F8C93AFEEB0E0EFEEF0E0808155
:1013700080618C9328C0A3EFB0E089859A8503969D
:10138000FC0131968081282F2295220F207E8985AD
:101390009A850396FC018081869586958695820FB5
:1013A0008C93A2EFB0E089859A850396FC01808139
:1013B0008295880F807E8C93AFEEB0E0EFEEF0E088
:1013C00080818F7E8C938FEF9FEFAFEFBFEF8D8388
:1013D0009E83AF83B887A7EFB0E0CE010596FC01EE
:1013E00033968081282F220F220F220FCE010596DF
:1013F000FC0132968081829586958770820F8C934E
:10140000A6EFB0E0CE010596FC0132968081282F30
:10141000220F220F220FCE010596FC01319680810A
:10142000829586958770820F8C93A5EFB0E0CE01F0
:101430000596FC0131968081982F990F990F990F8D
:10144000FE0135968081829586958770890F8C93F1
:10145000A4EFB0E0FE0135968081880F880F880FD9
:101460008C93AFEEB0E0EFEEF0E09081E985FA8585
:101470008781892B8C93A4EFB0E0E4EFF0E08081CA
:101480008B7F8C93A4EFB0E0E4EFF0E0808181608B
:101490008C93AFEEB0E0EFEEF0E090818FE3892324
:1014A0008C93AFEEB0E0EFEEF0E0808180688C933B
:1014B000E0C3E985FA858485882309F457C0A3EF42
:1014C000B0E089859A850396FC0133968081282FA8
:1014D000220F220F220F89859A850396FC013296EE
:1014E0008081829586958770820F8C93A2EFB0E001
:1014F00089859A850396FC0132968081282F220FD8
:10150000220F220F89859A850396FC0131968081EE
:10151000829586958770820F8C93A1EFB0E08985C4
:101520009A850396FC0131968081282F220F220F85
:10153000220F89859A850396FC0180818295869584
:101540008770820F8C93A0EFB0E089859A8503960F
:10155000FC018081880F880F880F8C93AFEEB0E07C
:10156000EFEEF0E0808180618C9328C0A3EFB0E0C3
:1015700089859A850396FC0131968081282F2295D2
:10158000220F207E89859A850396FC0180818695AD
:1015900086958695820F8C93A2EFB0E089859A8517
:1015A0000396FC0180818295880F807E8C93AFEE3C
:1015B000B0E0EFEEF0E080818F7E8C938FEF9FEFB5
:1015C000AFEFBFEF8D839E83AF83B887A7EFB0E007
:1015D000CE010596FC0133968081282F220F220F21
:1015E000220FCE010596FC01329680818295869568
:1015F0008770820F8C93A6EFB0E0CE010596FC01B8
:1016000032968081282F220F220F220FCE010596BD
:10161000FC0131968081829586958770820F8C932C
:10162000A5EFB0E0CE010596FC0131968081982FA0
:10163000990F990F990FFE013596808182958695B5
:101640008770890F8C93A4EFB0E0FE0135968081FE
:10165000880F880F880F8C93AFEEB0E0EFEEF0E0CC
:101660009081E985FA858781892B8C93E985FA85B4
:101670001386A4EFB0E0E4EFF0E0808184608C9307
:10168000A0EFB0E0E0EFF0E080818B7F8C93A4EFDF
:10169000B0E0E4EFF0E0808181608C93AFEEB0E0E9
:1016A000EFEEF0E090818FE389238C93AFEEB0E012
:1016B000EFEEF0E0808180688C93DBC2E985FA85EB
:1016C0008485882309F457C0A3EFB0E089859A8503
:1016D0000396FC0133968081282F220F220F220FC0
:1016E00089859A850396FC0132968081829586953C
:1016F0008770820F8C93A2EFB0E089859A8503965C
:10170000FC0132968081282F220F220F220F89851B
:101710009A850396FC013196808182958695877023
:10172000820F8C93A1EFB0E089859A850396FC0126
:1017300031968081282F220F220F220F89859A85CA
:101740000396FC018081829586958770820F8C9329
:10175000A0EFB0E089859A850396FC018081880F0F
:10176000880F880F8C93AFEEB0E0EFEEF0E0808151
:1017700080618C9328C0A3EFB0E089859A85039699
:10178000FC0131968081282F2295220F207E8985A9
:101790009A850396FC018081869586958695820FB1
:1017A0008C93A2EFB0E089859A850396FC01808135
:1017B0008295880F807E8C93AFEEB0E0EFEEF0E084
:1017C00080818F7E8C938FEF9FEFAFEFBFEF8D8384
:1017D0009E83AF83B887A7EFB0E0CE010596FC01EA
:1017E00033968081282F220F220F220FCE010596DB
:1017F000FC0132968081829586958770820F8C934A
:10180000A6EFB0E0CE010596FC0132968081282F2C
:10181000220F220F220FCE010596FC013196808106
:10182000829586958770820F8C93A5EFB0E0CE01EC
:101830000596FC0131968081982F990F990F990F89
:10184000FE0135968081829586958770890F8C93ED
:10185000A4EFB0E0FE0135968081880F880F880FD5
:101860008C93AFEEB0E0EFEEF0E09081E985FA8581
:101870008781892B8C93E985FA8581E08387A4EFA2
:10188000B0E0E4EFF0E0808184608C93A0EFB0E002
:10189000E0EFF0E0808184608C93AFEEB0E0EFEE9B
:1018A000F0E080818F7D8C93A4EFB0E0E4EFF0E076
:1018B000808181608C93AFEEB0E0EFEEF0E090813C
:1018C0008FE389238C93AFEEB0E0EFEEF0E0808100
:1018D00080688C93CEC11B8210C0AAEFB0E0E9856E
:1018E000FA85208531858B819927F901E80FF91F49
:1018F00080818C938B818F5F8B83E985FA859781BB
:101900008B81891750F31D821E821F821886A7EFD4
:10191000B0E0CE010596FC0133968081282F220F7E
:10192000220F220FCE010596FC013296808182950E
:1019300086958770820F8C93A6EFB0E0CE01059656
:10194000FC0132968081282F220F220F220FCE0118
:101950000596FC0131968081829586958770820F6D
:101960008C93A5EFB0E0CE010596FC013196808105
:10197000982F990F990F990FFE01359680818295C6
:1019800086958770890F8C93A4EFB0E0FE013596A1
:101990008081880F880F880F8C93AFEEB0E0EFEE58
:1019A000F0E09081E985FA858781892B8C93E98520
:1019B000FA8581E08387A4EFB0E0E4EFF0E0808176
:1019C00084608C93A0EFB0E0E0EFF0E08081846071
:1019D0008C93AFEEB0E0EFEEF0E0808180628C930C
:1019E000A4EFB0E0E4EFF0E080818E7F8C93AFEE67
:1019F000B0E0EFEEF0E090818FE389238C93AFEEBF
:101A0000B0E0EFEEF0E0808180688C9332C1E98530
:101A1000FA858485882309F457C0A3EFB0E089854F
:101A20009A850396FC0133968081282F220F220F7E
:101A3000220F89859A850396FC01329680818295D2
:101A400086958770820F8C93A2EFB0E089859A8586
:101A50000396FC0132968081282F220F220F220F3D
:101A600089859A850396FC013196808182958695B9
:101A70008770820F8C93A1EFB0E089859A850396D9
:101A8000FC0131968081282F220F220F220F898599
:101A90009A850396FC018081829586958770820FD6
:101AA0008C93A0EFB0E089859A850396FC01808134
:101AB000880F880F880F8C93AFEEB0E0EFEEF0E068
:101AC000808180618C9328C0A3EFB0E089859A85DE
:101AD0000396FC0131968081282F2295220F207ECB
:101AE00089859A850396FC018081869586958695E1
:101AF000820F8C93A2EFB0E089859A850396FC0152
:101B000080818295880F807E8C93AFEEB0E0EFEEFF
:101B1000F0E080818F7E8C931B8210C0AAEFB0E032
:101B2000E985FA85208531858B819927F901E80FB0
:101B3000F91F80818C938B818F5F8B83E985FA8578
:101B400097818B81891750F38FEF9FEFAFEFBFEF36
:101B50008D839E83AF83B887A7EFB0E0CE01059653
:101B6000FC0133968081282F220F220F220FCE01F5
:101B70000596FC0132968081829586958770820F4A
:101B80008C93A6EFB0E0CE010596FC0132968081E1
:101B9000282F220F220F220FCE010596FC0131962D
:101BA0008081829586958770820F8C93A5EFB0E037
:101BB000CE010596FC0131968081982F990F990FDF
:101BC000990FFE0135968081829586958770890FE1
:101BD0008C93A4EFB0E0FE0135968081880F880FCA
:101BE000880F8C93AFEEB0E0EFEEF0E09081E985E6
:101BF000FA858781892B8C93E985FA8581E0838733
:101C0000A4EFB0E0E4EFF0E0808184608C93A0EF7B
:101C1000B0E0E0EFF0E0808184608C93AFEEB0E064
:101C2000EFEEF0E0808180628C93A4EFB0E0E4EF0F
:101C3000F0E0808181608C93AFEEB0E0EFEEF0E0F9
:101C400090818FE389238C93AFEEB0E0EFEEF0E06C
:101C5000808180688C930DC0E985FA85128609C061
:101C6000E985FA858FE182878FEF90E09C878B87EB
:101C700002C01C861B868B859C852E960FB6F89419
:101C8000DEBF0FBECDBFDF91CF910895CF93DF931D
:101C9000CDB7DEB728970FB6F894DEBF0FBECDBF25
:101CA0009C838B83EB81FC8182858A838A81882354
:101CB00031F08A818F3119F08A818F3F29F422E037
:101CC00030E038872F83FFC0ADEEB0E0EB81FC81C0
:101CD00080818295807F8C930E94F1018A838A8122
:101CE000282F33273E832D838D819E81803291055D
:101CF000C9F02D813E81213231052CF48D819E81E8
:101D0000009769F0CAC02D813E812034310509F465
:101D1000B3C08D819E81803A910521F0BEC081E0E3
:101D20008983CCC0EFEEF0E080818F70EB81FC8185
:101D30008783EB81FC81808591850E943802E0EFEA
:101D4000F0E080819927847090709595879595959E
:101D50008795EB81FC818387EFEEF0E08081992706
:101D600080719070959587959595879595958795B0
:101D700095958795009709F44CC0EB81FC8181E033
:101D800084878B819C810396DC011396E3EFF0E05E
:101D900080818695869586958C938B819C81039610
:101DA000DC011296E2EFF0E08081982F96959695EF
:101DB0009695E3EFF0E080818295880F807E890F11
:101DC0008C938B819C810396DC011196E1EFF0E00E
:101DD0008081982F969596959695E2EFF0E0808118
:101DE0008295880F807E890F8C938B819C810396CE
:101DF000DC01E0EFF0E08081982F9695969596951E
:101E0000E1EFF0E080818295880F807E890F8C93CE
:101E100022C0EB81FC8114868B819C810396DC01BE
:101E20001196E3EFF0E080818295869587708C9320
:101E30008B819C810396DC01E2EFF0E08081982F9A
:101E4000929596959770E3EFF0E08081880F880F68
:101E5000880F890F8C93EB81FC818A818287AFEE9A
:101E6000B0E0EFEEF0E090818FE389238C93EEEE0B
:101E7000F0E01082198222C0EB81FC818A81828786
:101E8000AFEEB0E0EFEEF0E090818FE389238C932A
:101E9000EEEEF0E01082198211C0EB81FC818A81A4
:101EA0008287AFEEB0E0EFEEF0E090818FE3892320
:101EB0008C93EEEEF0E0108282E089838981282FF6
:101EC000332738872F838F81988528960FB6F8940B
:101ED000DEBF0FBECDBFDF91CF910895CF93DF93CB
:101EE000CDB7DEB7E1E2F0E08FEF8083E2E2F0E031
:101EF0001082DF91CF910895CF93DF93CDB7DEB7F6
:101F000021970FB6F894DEBF0FBECDBF8983E2E202
:101F1000F0E08981808321960FB6F894DEBF0FBE72
:101F2000CDBFDF91CF910895CF93DF93CDB7DEB7CB
:101F3000A2E2B0E0E0E2F0E08081992782959295FC
:101F4000907F9827807F9827982FE0E2F0E08081AB
:101F500082958F70892B8C93DF91CF910895CF93C9
:101F6000DF93CDB7DEB7E0E2F0E08FEF8083DF9163
:101F7000CF910895CF93DF93CDB7DEB723970FB6F8
:101F8000F894DEBF0FBECDBF8A836B8319828A812E
:101F9000883080F58B818823B1F481E08983A2E2C7
:101FA000B0E0E2E2F0E08081482F8A81282F3327D9
:101FB00081E090E0022E02C0880F991F0A94E2F798
:101FC000809584238C938B818130A1F481E0898377
:101FD000A2E2B0E0E2E2F0E08081482F8A81282F7F
:101FE000332781E090E002C0880F991F2A95E2F71D
:101FF000842B8C938981992723960FB6F894DEBFA2
:102000000FBECDBFDF91CF910895CF93DF93CDB7B2
:10201000DEB72A970FB6F894DEBF0FBECDBF9A8702
:10202000898780917403813009F045C0F8948091CC
:10203000790390917A03A0917B03B0917C038D8307
:102040009E83AF83B887789489859A859C014427BD
:1020500055278D819E81AF81B885820F931FA41F64
:10206000B51F8D839E83AF83B887F8942091790341
:1020700030917A0340917B0350917C038D819E8146
:10208000AF81B885281739074A075B0799F1898519
:102090009A859C01442755278091790390917A0372
:1020A000A0917B03B0917C03281739074A075B078F
:1020B00009F17894DACF1C821B8215C01A820BC0FA
:1020C000198203C089818F5F898389818A35D0F322
:1020D0008A818F5F8A838A81883090F38B819C818B
:1020E00001969C838B832B813C8189859A85281757
:1020F000390720F32A960FB6F894DEBF0FBECDBF86
:10210000DF91CF910895CF93DF93CDB7DEB72297BC
:102110000FB6F894DEBF0FBECDBFF894E0EBF0E051
:102120001082E2EBF0E01082E3EBF0E010821A8222
:10213000198205C089819A8101969A838983898150
:102140009A812FEF8F3F9207A9F7A0E7B0E0E0E771
:10215000F0E080818E7F8C93A0E7B0E0E0E7F0E0D4
:1021600080818D7F8C93A0EBB0E0E0EBF0E080818C
:102170008F7C8C93A0EBB0E0E0EBF0E08081877B7C
:1021800088608C93A6EBB0E0E6EBF0E080818F7E78
:1021900088608C93E3EBF0E080E28083A0EBB0E01A
:1021A000E0EBF0E08081887F81608C93E6EBF0E0EB
:1021B00080819927877090700097C1F7A7E3B0E0FE
:1021C000E7E3F0E0808182608C93A0E7B0E0E0E795
:1021D000F0E0808182608C931092790310927A03F0
:1021E00010927B0310927C03109278031092770375
:1021F00010927E031092750310927D031092760365
:1022000081E080937403789422960FB6F894DEBF31
:102210000FBECDBFDF91CF9108951F920F920FB6E1
:102220000F9211242F938F939F93AF93BF93CF93CC
:10223000DF93CDB7DEB78091790390917A03A091B7
:102240007B03B0917C030196A11DB11D809379039E
:1022500090937A03A0937B03B0937C0380917703E0
:1022600090917803019690937803809377038091FF
:1022700077039091780323E0883E920751F51092FE
:1022800078031092770380917E038F5F80937E03A3
:1022900080917E038C33E9F410927E038091750364
:1022A0008F5F80937503809175038C3391F4109246
:1022B000750380917D038F5F80937D0380917D0303
:1022C000883139F410927D03809176038F5F80937B
:1022D0007603DF91CF91BF91AF919F918F912F9115
:1022E0000F900FBE0F901F901895CF93DF93CDB72F
:1022F000DEB721970FB6F894DEBF0FBECDBF1982AF
:10230000ECE2F0E09081ECE2F0E080819823ECE2F6
:10231000F0E08081892381708983898199272196C2
:102320000FB6F894DEBF0FBECDBFDF91CF910895F9
:10233000CF93DF93CDB7DEB721970FB6F894DEBF0A
:102340000FBECDBF1982ECE2F0E0808181708983FD
:102350008981992721960FB6F894DEBF0FBECDBFB5
:10236000DF91CF910895CF93DF93CDB7DEB7279755
:102370000FB6F894DEBF0FBECDBF89834A835B835F
:102380006C837D83E1ECF0E01082A2ECB0E0E6EC3F
:10239000F0E080818C93E0ECF0E080E48083E2EC7C
:1023A000F0E086E08083E5ECF0E01082E4ECF0E021
:1023B0001082E5ECF0E01082E4ECF0E089E180834B
:1023C000A0ECB0E0E0ECF0E0808182608C938C9136
:1023D000882319F41F821E8236C0A0ECB0E0E0EC26
:1023E000F0E0808180628C93A1ECB0E0E1ECF0E061
:1023F00080818B7F8C93A1ECB0E0E1ECF0E08081F8
:10240000982F89818470892B8C93E2ECF0E089818C
:1024100088738083A2ECB0E0E2ECF0E08081282FAA
:102420008981992783709070880F991F822B8C93D4
:10243000A1ECB0E0E1ECF0E0808188618C9381E078
:1024400090E09F838E838E819F8127960FB6F894AC
:10245000DEBF0FBECDBFDF91CF910895CF93DF9345
:10246000CDB7DEB7E0ECF0E08081992780789070FE
:10247000880F892F881F990B9927DF91CF91089595
:10248000CF93DF93CDB7DEB721970FB6F894DEBFB9
:102490000FBECDBF8983E0ECF0E080819927807288
:1024A0009070959587959595879595958795959530
:1024B000879595958795009771F3E6ECF0E0898113
:1024C00080838981992721960FB6F894DEBF0FBECD
:1024D000CDBFDF91CF910895CF93DF93CDB7DEB716
:1024E00021970FB6F894DEBF0FBECDBFE0ECF0E051
:1024F0008081992780789070880F892F881F990B89
:102500000097A1F3E6ECF0E0808189838981992727
:1025100021960FB6F894DEBF0FBECDBFDF91CF91ED
:102520000895CF93DF93CDB7DEB722970FB6F89417
:10253000DEBF0FBECDBF9A8389830BC0E981FA81CC
:10254000208189819A8101969A838983822F0E94B2
:102550004012E981FA818081882381F722960FB6A3
:10256000F894DEBF0FBECDBFDF91CF9108950F93DA
:102570001F93CF93DF93CDB7DEB7AF970FB6F89425
:10258000DEBF0FBECDBF1F861E868BE0888BCE01BF
:10259000C896998F888F8EA99FA99F8B8E8B74C3A5
:1025A000EE89FF898081853221F08E85813009F0A6
:1025B00047C08E899F8901969F8B8E8BEE89FF89FC
:1025C0008081282F33273FA72EA78EA59FA584366D
:1025D000910509F496C02EA53FA52536310594F442
:1025E0008EA59FA58835910509F4FEC12EA53FA5AE
:1025F0002336310569F18EA59FA58033910509F435
:10260000BDC22EC32EA53FA523373105E9F18EA506
:102610009FA5843791053CF42EA53FA52C363105A6
:1026200009F45CC01DC38EA59FA58537910509F4EB
:1026300037C12EA53FA52837310509F4D5C110C3F0
:10264000EE89FF8980810E9440121E861F8617C373
:102650008F85813039F48CE60E94401283E60E9417
:1026600040120DC0288D398DC9010296998F888F2F
:10267000F901808191818D878D850E9440128BE0C8
:10268000888B1E861F86FBC28F85813039F48CE6CD
:102690000E94401283E70E9440121BC0288D398D92
:1026A000C9010296998F888FF901808191819D8B54
:1026B0008C8B0AC0EC89FD8980810E9440128C8934
:1026C0009D8901969D8B8C8BEC89FD898081882367
:1026D00089F78BE0888B1E861F86D1C28F8581305B
:1026E00031F48CE60E9440121E861F8604C081E0F1
:1026F0008E8781E08F878E899F8901979F8B8E8B34
:10270000BEC21A8A198A0DC08989282F3327CE01A3
:102710004A96FC01E20FF31F80E3808389898F5F73
:10272000898B89898B3080F31DA28AE0898B8F8504
:10273000882309F45DC0288D398DC9010496998FCD
:10274000888FF90180819181A281B3818F839887DD
:10275000A987BA878F819885A985BA85BB238CF410
:1027600081E08A8B8F819885A985BA85B095A095DF
:10277000909581959F4FAF4FBF4F8F839887A987C3
:10278000BA878989082F11278F819885A985BA85ED
:102790002AE030E040E050E0BC01CD010E94A016EC
:1027A000DC01CB01282F205DCE014A96FC01E00F11
:1027B000F11F20838F819885A985BA852AE030E0B2
:1027C00040E050E0BC01CD010E94A016DA01C90131
:1027D0008F839887A987BA8789898150898B8F8150
:1027E0009885A985BA850097A105B105E1F1C9CF02
:1027F000288D398DC9010296998F888FF9018081C2
:1028000091819C878B878B859C8599234CF481E0F3
:102810008A8B8B859C85909581959F4F9C878B8714
:102820008989E82FFF278B859C852AE030E0B90154
:102830000E946B16282F205DCE014A96E80FF91FE3
:1028400020838B859C852AE030E0B9010E946B16BD
:10285000CB019C878B8789898150898B8B859C854F
:10286000009709F0DDCF8A89882319F08DE20E9454
:10287000401289898F5F898B98898989981710F40C
:102880008889898B898999279C01CE014A96820F74
:10289000931F0E9491128BE0888B1E861F86EFC1CA
:1028A000198A0DC08989282F3327CE014A96FC0149
:1028B000E20FF31F80E3808389898F5F898B898989
:1028C0008B3080F31DA28AE0898B8F85882309F4E1
:1028D00046C0288D398DC9010496998F888FF901DA
:1028E00080819181A281B38189839A83AB83BC83E8
:1028F0008989082F112789819A81AB81BC812AE0BF
:1029000030E040E050E0BC01CD010E947E16DC01C9
:10291000CB01282F205DCE014A96FC01E00FF11F6C
:10292000208389819A81AB81BC812AE030E040E03C
:1029300050E0BC01CD010E947E16DA01C9018983F5
:102940009A83AB83BC8389898150898B89819A81E1
:10295000AB81BC810097A105B10579F1C9CF288D64
:10296000398DC9010296998F888FF90180819181F3
:102970009E838D838989E82FFF278D819E812AE0A0
:1029800030E0B9010E945716282F205DCE014A96EB
:10299000E80FF91F208389898150898B8D819E8161
:1029A0002AE030E0B9010E945716CB019E838D8347
:1029B0008D819E81009709F0DDCF89898F5F898B9A
:1029C00098898989981710F48889898B898999272A
:1029D0009C01CE014A96820F931F0E9491128BE0B8
:1029E000888B1E861F864BC1198A0DC08989282FA6
:1029F0003327CE014A96FC01E20FF31F80E3808368
:102A000089898F5F898B89898B3080F31DA28AE049
:102A1000898B8F85882309F455C0288D398DC9018C
:102A20000496998F888FF90180819181A281B38169
:102A300089839A83AB83BC833BC089818F708B8BE6
:102A40008989282F33273DA72CA78B898A3028F422
:102A50008B89382F305D3BA710C0EE89FF898081BC
:102A6000883719F481E68AA702C091E49AA78B8976
:102A70002AA5820F382F3A503BA7CE014A96ECA5E3
:102A8000FDA5E80FF91F8BA5808389819A81AB8111
:102A9000BC81689413F8B695A79597958795169479
:102AA000D1F789839A83AB83BC8389898150898BD1
:102AB00089819A81AB81BC810097A105B10509F09C
:102AC000BCCF45C0288D398DC9010296998F888F5A
:102AD000F901808191819E838D8335C08D818F70B6
:102AE0008B8B8989282F332739A728A78B898A3090
:102AF00028F48B89382F305D3FA310C0EE89FF8901
:102B00008081883719F481E68EA302C091E49EA3E8
:102B10008B892EA1820F382F3A503FA3CE014A96BF
:102B2000E8A5F9A5E80FF91F8FA180838D819E810B
:102B3000929582958F7089279F7089279E838D83B8
:102B400089898150898B8D819E81009739F6898989
:102B50008F5F898B98898989981710F48889898B68
:102B6000898999279C01CE014A96820F931F0E9462
:102B700091128BE0888B1E861F8681C08BE0888B2C
:102B80008F85813049F48CE60E94401280E30E94D8
:102B900040121E861F8673C08E899F8901969F8B67
:102BA0008E8BEE89FF8980818B8B8B89803308F433
:102BB0004CC08B898A3308F048C08B898F70888B12
:102BC0008E899F8901969F8B8E8BEE89FF898081EC
:102BD0008B8B8B89803390F08B898A3378F488894A
:102BE0008295807F888B8B89982F9F708889892B0D
:102BF000888B8E899F8901969F8B8E8B8889482F21
:102C00004F70888982958F7099279C01220F331FFE
:102C1000C901880F991F880F991F820F931F840F76
:102C2000888B88898C3010F08BE0888B9BE08889BA
:102C3000292F281B822F888B8E899F8902979F8B33
:102C40008E8B81E08E871F861AC080E30E9440121F
:102C5000EE89FF8980810E9440121E861F860FC068
:102C60008F85813019F48CE60E944012EE89FF892D
:102C700080810E9440128BE0888B1E861F868E8981
:102C80009F8901969F8B8E8BEE89FF898081882397
:102C900009F086CC80E090E0AF960FB6F894DEBFE6
:102CA0000FBECDBFDF91CF911F910F910895AA1B49
:102CB000BB1B51E107C0AA1FBB1FA617B70710F027
:102CC000A61BB70B881F991F5A95A9F78095909559
:102CD000BC01CD01089597FB092E07260AD077FD88
:102CE00004D0E5DF06D000201AF4709561957F4F7F
:102CF0000895F6F7909581959F4F0895A1E21A2EB9
:102D0000AA1BBB1BFD010DC0AA1FBB1FEE1FFF1F8F
:102D1000A217B307E407F50720F0A21BB30BE40BDF
:102D2000F50B661F771F881F991F1A9469F7609526
:102D30007095809590959B01AC01BD01CF010895E0
:102D400097FB092E05260ED057FD04D0D7DF0AD0F9
:102D5000001C38F450954095309521953F4F4F4FCA
:102D60005F4F0895F6F790958095709561957F4F28
:062D70008F4F9F4F0895F4
:102D76002573000D0A0A3D2041544D454C2044560A
:102D86004B393043414E31204E4554574F524B201C
:102D96004C4142203D0D0A003D3D3D3D3D3D3D3D02
:102DA6003D3D3D3D3D3D3D3D3D3D3D3D3D3D3D3D4D
:102DB6003D3D3D3D3D3D3D0D0A000D0A00202020D4
:102DC6002D205461726765745F4944203D20307838
:102DD600253033582C200054656D702E203D20255B
:102DE60030326420646567432C20002C204C756DBE
:102DF6002E203D20253032752C2000564343203DA1
:102E0600202530337530206D56000D0A20202020F5
:102E1600202020205F5F5F5F5F5F5F5F5F5F5F5FB8
:102E26005F5F5F5F5F5F5F5F5F5F5F5F5F5F5F5FAC
:102E36005F0D0A2020202020202F5F5F5F202020AA
:102E46005F5F5F5F5F5F5F5F5F5F5F5F5F5F5F5F8C
:102E56005F5F5F5F5F5F5F5F7C0D0A202020202041
:102E66005F5F5F20207C207C20205F5F5F5F5F5F6D
:102E76005F5F202020205F5F5F5F2020205F0D0ABC
:102E8600202020202F2020207C207C207C207C20BD
:102E9600205F2020205F205C20207C20205F5F7C3C
:102EA600207C207C0D0A2020202F202F7C207C20B7
:102EB6007C207C207C207C207C207C207C207C202C
:102EC6007C207C5F5F20207C207C0D0A20202F2028
:102ED6002F207C207C207C207C207C207C207C2059
:102EE6007C207C207C207C20205F5F7C207C207CDA
:102EF6000D0A202F202F5F207C207C207C207C2028
:102F06007C207C207C207C207C207C207C207C5F9C
:102F16005F20207C207C5F5F0D0A2F5F5F5F5F7CF8
:102F26007C5F7C207C5F7C207C5F7C207C5F7C20BF
:102F36007C5F7C207C5F5F5F5F7C207C5F5F5F2FB8
:102F46000D0A2C2D2D2D2D2D2D2D2D2D2D2D2D2DEF
:102F56002D2D2D2D2D2D2D2D2D2D2D2D2D2D2D2D9B
:102F66002D2D2D2D2D2D2C0D0A7C2041543930432D
:102F7600414E7878204C696272617279205665728A
:102F860073696F6E20332E32302020202F20285276
:102F9600290D0A272D2D2D2D2D2D2D2D2D2D2D2DA8
:102FA6002D2D2D2D2D2D2D2D2D2D2D2D2D2D2D2D4B
:102FB6002D2D2D2D2D270D0A0A002D2D2D204154A6
:102FC600393043414E7878204C69627261727920BB
:102FD60056657273696F6E20332E3230202D2D2D7B
:042FE6000D0A0000D0
:00000001FF
