:020000040000FA
:100000000C946005FFFFFFFFFFFFFFFFFFFFFFFFF7
:10001000FFFFFFFFFFFFFFFFFFFFFFFFFFFFFFFFF0
:10002000FFFFFFFFFFFFFFFFFFFFFFFFFFFFFFFFE0
:10003000FFFFFFFFFFFFFFFFFFFFFFFFFFFFFFFFD0
:10004000FFFFFFFFFFFFFFFFFFFFFFFFFFFFFFFFC0
:10005000FFFFFFFFFFFFFFFFFFFFFFFFFFFFFFFFB0
:10006000FFFFFFFFFFFFFFFFFFFFFFFFFFFFFFFFA0
:10007000FFFFFFFFFFFFFFFFFFFFFFFFFFFFFFFF90
:10008000FFFFFFFFFFFFFFFFFFFFFFFF050A050A5E
:100090002D0A2D0A2D0A2D0A2D0A6F092D0A2D0A67
:1000A0008D092D0AA109B509BF09DD09D309E709A1
:1000B000FB092D0A2D0AF1092D0A65099709830903
:1000C000AB09C9092D0A79092D0A2D0A2D0A0F0A33
:1000D0002D0A230A2D0A2D0A2D0A6F092D0A2D0A31
:1000E0008D092D0AA109B509BF09DD09D309E70961
:1000F000FB092D0A2D0AF1092D0A650997098309C3
:10010000AB09C9092D0A79092D0A2D0A2D0A0F0AF2
:100110002D0A230A200190007B01900038029000F4
:100120007B019000FA0190007B0190003E0190005D
:10013000380290007B019000EE00900038029000A1
:10014000D40090007B019000FA019000EE00900036
:100150007B019000FA0190007B0190003802900032
:100160007B019000FA0190003E019000380290005F
:100170007B019000EE0090007B019000D400900085
:100180007B019000FA019000EE0090007B0190004E
:10019000FA0190007B019000380290007B019000F2
:1001A000FA0190007B0190003E01400238020000FD
:1001B0009B01CD00CB02CD00000033015902670046
:1001C000CB02670000006700CB02CD003004CD00F9
:1001D000CB02CD002303CD00CB02CD0000003301C4
:1001E000DD016700CB02670000006700CB02CD0095
:1001F000C201CD00BB03CD005902CD00CB02CD0022
:10020000DD01CD00CB026700CB026700230367004E
:10021000000067002303CD00BB03CD007D02670211
:10022000CB02D1040000CD00CB02CD000000330191
:1002300059026700CB02670000006700CB02CD00C7
:100240003004CD00CB02CD002303CD00CB02CD0086
:1002500000003301DD016700CB026700000067008A
:10026000CB02CD00C201CD00BB03CD005902CD00B1
:10027000CB02CD00DD01CD00CB026700CB026700D1
:1002800023036700000067002303CD00BB03CD00FC
:100290007D026702CB02CD00000000002001520069
:1002A0003004520030045200300452003004520036
:1002B0003004520030045200300452003004520026
:1002C000A9015200A9015200A9015200A90152003E
:1002D000910152009101520091015200910152008E
:1002E000650152006501520065015200650152002E
:1002F0006501520065015200650152003004520050
:1003000038025200380252003802520038025200BD
:10031000510152005101520051015200510152004D
:1003200065015200650152006501520065015200ED
:1003300065015200650152006501520065015200DD
:1003400065015200650152006501520065015200CD
:1003500065015200650152006501520065015200BD
:1003600051015200510152005101520051015200FD
:1003700065015200650152005101520051015200C5
:10038000650152006501520065015200650152008D
:1003900091015200910152009101520091015200CD
:1003A000650152006501520065015200650152006D
:1003B0009101520091015200650152006501200136
:1003C00091019000A9019000F4030000DC025C00A0
:1003D000DD015C0065015C00DD015C006501DC02A3
:1003E000DD016E0159026E013004DC02CB026E01A8
:1003F00000005C00DD015C0065015C00DD015C006B
:100400006501DC02DD016E0159026E013004DC027F
:1004100091016E0100005C00DD015C0000005C00E9
:100420009101DC026501B7002C015C000000B700FF
:100430003E015C0000005C0065015C000000DC0225
:1004400091016E0100005C00DD015C0065015C0053
:10045000DD015C006501DC02DD016E013004DC02BF
:10046000CB020000AE00AE007B0157000000570039
:10047000650157003E0157000000B802EE0057002A
:100480000000AE00A9015700000057007B01B80230
:100490006501AE000000AE003E01570000005700AD
:1004A00038025700FA0157000000B802B2005700A6
:1004B0000000AE003802570000005700FA015C014E
:1004C000EE005C01D4005C01BD00AE007B01570072
:1004D00000005700650157003E0157000000B802B8
:1004E000EE00AE000000AE00D40057000000570040
:1004F000BD00B802B20057000000AE003E01570038
:100500000000AE003E015C01BD005C01D40057005C
:100510000000AE003E0157000000AE00B2005700E0
:1005200000005C01D400B802EE0000000001800170
:100530005902800023038000000080002303800014
:1005400000008000230300013004000100000002CD
:100550000000800130048000230380000000800040
:1005600023038000000080002303000159020001E2
:100570000000000200008001590280002303800077
:10058000000080002303800000008000230300019E
:1005900030040001000000020000800130048000EF
:1005A00023038000000080002303800000008000FF
:1005B0002303800059028000DD01800000008000DC
:1005C00023030001CB0200012303800159028000B4
:1005D00023038000000080002303800000008000CF
:1005E000230300013004000100000002000080012C
:1005F000300480002303800000008000230380007B
:1006000000008000230300015902000100000002E5
:100610000000800159028000230380000000800058
:100620002303800000008000230300013004000148
:1006300000000002000080013004800023038000DD
:10064000000080002303800000008000230380005E
:1006500059028000DD0180000000800023030001BA
:10066000CB02000123038000590200000D2020204E
:10067000202020202020202020202020202020207A
:10068000202020200D0020202D20536F6E673A205F
:10069000436F636120436F6C61202E2E2E0020205B
:1006A0002D20536F6E673A20496E6469616E612038
:1006B0004A6F6E6573202E2E2E000D2020202020E4
:1006C000202020202020202020202020202020202A
:1006D000202020202020202020202020202020201A
:1006E000202020202020200D0020202D20536F6E60
:1006F000673A2054686520476F6F642C20746865E2
:100700002042616420616E64207468652055676CC6
:1007100079202E2E2E000D20202020202020202089
:1007200020202020202020202020202020202020C9
:10073000200D0020202D20536F6E673A2050756CDD
:10074000702046696374696F6E202E2E2E000D2076
:100750002020202020202020202020202020202099
:1007600020202020200D0020202D20536F6E673A7E
:100770002045786F7263697374202E2E2E000D2031
:100780002020202020202020202020202020202069
:10079000202020202020202020200D0020202D207F
:1007A000536F6E673A2042657665726C79204869AE
:1007B0006C6C73202E2E2E002020272D2D2D2D2702
:1007C0002D2D2D2D272D2D2D2D272D2D2D2D272D6B
:1007D0002D2D2D272D2D2D2D272D2D2D2D272D2D5B
:1007E0002D2D272D2D2D2D272D2D2D2D272D2D2D4B
:1007F0002D270D0A0020207C204C41207C205349CD
:10080000207C20444F207C205245207C204D4920D4
:100810007C204641207C534F4C207C204C41207C46
:10082000205349207C20444F207C205245207C0DC1
:100830000A0020207C202020207C202020207C20DA
:100840002020207C202020207C202E2E207C202078
:1008500020207C202020207C202020207C20202084
:10086000207C202020207C202020207C0D0A0020BD
:10087000207C206120207C207320207C206420208C
:100880007C206620207C206720207C206820207C23
:10089000206A20207C206B20207C206C20207C2063
:1008A0003B20207C202720207C0D0A00272D2E2D88
:1008B0002D272D2E2D2D272D2E2D2D272D2E2D2D77
:1008C000272D2E2D2D272D2E2D2D272D2E2D2D276D
:1008D0002D2E2D2D272D2E2D2D272D2E2D2D272D57
:1008E0002E2D2D272D2E2D2D270D0A007C20712039
:1008F000207C207720207C202020207C207220203B
:100900007C207420207C202020207C207520207CCE
:10091000206920207C206F20207C202020207C202B
:100920005B20207C205D20207C0D0A007C3A3A3A36
:100930003A7C3A3A3A3A7C202020207C3A3A3A3AB9
:100940007C3A3A3A3A7C202020207C3A3A3A3A7C67
:100950003A3A3A3A7C3A3A3A3A7C202020207C3A99
:100960003A3A3A7C3A3A3A3A7C0D0A007C534F4C78
:10097000237C204C41237C202020207C20444F23BA
:100980007C205245237C202020207C204641237C53
:10099000534F4C237C204C41237C202020207C2062
:1009A000444F237C205245237C0D0A002E2D2D2DF3
:1009B0002D2E2D2D2D2D2E202020202E2D2D2D2D98
:1009C0002E2D2D2D2D2E202020202E2D2D2D2D2E87
:1009D0002D2D2D2D2E2D2D2D2D2E202020202E2D78
:1009E0002D2D2D2E2D2D2D2D2E0D0A0020202020D9
:1009F000202020206F7220706C6179205049414E78
:100A00004F206F6E20515745525459205043206B50
:100A10006579626F6172643A0D0A0A0020202D2008
:100A2000205072657373206F6E65206F6620746846
:100A30006520626F617264206B6579732028636F33
:100A40006D706173732063617264290D0A002A2A34
:100A50002A2A2A2A2A2A2A2A2A2A2A2A2A2A2A2AF6
:100A60002A2A2A2A2A2A2A2A2A2A2A2A2A2A2A2AE6
:100A70002A2A2A2A2A2A2A2A2A2A2A2A2A2A2A2AD6
:100A80002A2A0D0A000D0D0D0A204D61722E20320A
:100A90003030372024204154393043414E313238F0
:100AA00020242052696E6720546F6E6573202620C3
:100AB0005069616E6F20506C617965720D0A00FF9C
:100AC000CFEFD0E1CDBFDEBFC052D0400AEA0883ED
:100AD0000024E3E5F5E015E0ED35F10711F00192B2
:100AE000FBCF0083ECE6F6E0A0E0B1E01AE0EF3BDC
:100AF000F10721F0C89531960D92F9CF0E94D506E5
:100B0000FFCF0E94DC0B5801609740E350E360E3A5
:100B100070E3FE01448755876687778740E050E0A1
:100B200060E070E0FE01408351836283738340E0A4
:100B300050E060E070E0FE01448355836683778374
:100B400040E050E060E070E0FE014087518762873E
:100B5000738715C041E050E060E070E0FE01208046
:100B6000318042805380240E351E461E571EFE01E2
:100B70002082318242825382C5010A975C0189E05A
:100B800090E08A159B0530F324C041E050E060E01E
:100B900070E0FE012480358046805780240E351E8B
:100BA000461E571EFE0124823582468257824AE045
:100BB00050E060E070E0FE01208031804280538090
:100BC000241A350A460A570AFE01208231824282DF
:100BD000538249E050E060E070E0FE012080318007
:100BE00042805380421553056405750508F4CDCF46
:100BF00024C041E050E060E070E0FE0120843184D8
:100C000042845384240E351E461E571EFE01208644
:100C10003186428653864AE050E060E070E0FE0193
:100C20002480358046805780241A350A460A570AA0
:100C3000FE01248235824682578249E050E060E01E
:100C400070E0FE01248035804680578042155305B0
:100C50006405750508F4CDCF88E190E0FE0120849D
:100C60003184428453848A93810192010E94F70B5C
:100C7000FE012484358446845784202A312A422A5E
:100C8000532AFE012486358646865786FE01248037
:100C9000358046805780210122243324FE0164845C
:100CA0007584868497846228732884289528FE0199
:100CB000648675868686978688E090E0FE012080AF
:100CC0003180428053808A93810192010E94F70B08
:100CD000FE012484358446845784202A312A422AFE
:100CE000532AFE01248635864686578615014424FC
:100CF0005524FE0164847584868497846228732851
:100D000084289528FE016486758686869786FE016E
:100D1000048515852685378560960E94D50B089534
:100D20000E94DE0BA801662722242092B00088E0F2
:100D30008093B6008091B6008F7E8093B60080913C
:100D4000B00083608093B0004030E1E05E0730F097
:100D50008091B00084608093B00061E04030E0E2B8
:100D60005E0710F040E050E28091B0008860809310
:100D7000B00085E0869F90018A010E94090CC8019D
:100D800001978093B30083B5826083BD8091B000EA
:100D900080618093B000B99BFECF83E087BB2224A3
:100DA0002092B0000E94D20B0895EF97EF97EF9733
:100DB000EF97EF97EF97EF97EF97EF97EF97EF9703
:100DC000EF97EF97EF97EF97EF97EF97EF97EF97F3
:100DD000EF97EF97AD974427552784E191E0FE0107
:100DE0000CE910E0FA93EA939A938A930E94100C0C
:100DF00080EB91E0FE01E456FF4F0CEE10E0FA9319
:100E0000EA939A938A930E94100C8CE992E0FE0177
:100E1000E857FE4F00E311E0FA93EA939A938A931E
:100E20000E94100C8CEC93E0FE01E854FD4F08E9A1
:100E300010E0FA93EA939A938A930E94100C84E646
:100E400094E0FE01E05BFC4F08EC10E0FA93EA93BB
:100E50009A938A930E94100C8CE295E0FE01E85E62
:100E6000FB4F00E411E0FA93EA939A938A930E946D
:100E7000100C80E8809361002224209261000E947F
:100E80004A0A09E115E00E946C0A02EE14E00E9491
:100E90006C0A00EB14E00E946C0A00E814E00E9467
:100EA0006C0A00E414E00E946C0A00E014E00E9466
:100EB0006C0A00EC13E00E946C0A00E813E00E9448
:100EC0006C0A00E413E00E946C0A03E013E00E9445
:100ED0006C0A06EC12E00E946C0A09E812E00E941B
:100EE0006C0A0CE412E00E946C0A0E948D0B0FE069
:100EF0000E94920B0E94D70A83E08AB922242BB861
:100F00006627B0C20E94EE0A602F002319F40E94E7
:100F10005C0A602FA62EBB24C5018032E0E09E074C
:100F200009F4D0C18232E0E09E0709F482C282E275
:100F30008A159B0504F1C5018130E0E09E0709F4A4
:100F40003FC08230E0E09E0709F47BC08330E0E0E0
:100F50009E0709F4B3C08430E0E09E0709F4EFC0B7
:100F60008530E0E09E0709F42BC18B30E0E09E075E
:100F700009F467C172C2C5018732E0E09E0709F437
:100F800058C28732E0E09E070CF467C2C5018A337D
:100F9000E0E09E070CF461C28DE790E08A159B05A6
:100FA0000CF45BC202E010E095010E94C20BF80154
:100FB00088E190E0E80FF91F05901490F001099482
:100FC00001E00E94920B00E312E00E946C0A41E0F3
:100FD00050E00E948A0A1CC04F5F5F4F02E010E0A1
:100FE0009A010E94C20BF801CE0184569F4FE80F70
:100FF000F91F008111810E94BA0A860191DE002743
:1010000011270E94BA0A02E010E08ADE4F5F5F4FAC
:1010100002E010E09A010E94C20BF801CE01845652
:101020009F4FE80FF91F208031806101CC20A1F68D
:10103000DD2091F60E94C20A02E112E00E946C0AD1
:1010400011C202E00E94920B0BEF11E00E946C0AA9
:1010500041E050E00E948A0A1AC04F5F5F4F02E0F1
:1010600010E09A010E94C20BF801CE01E80FF91FAF
:10107000008111810E94BA0A860152DE00271127E1
:101080000E94BA0A02E010E04BDE4F5F5F4F02E0C1
:1010900010E09A010E94C20BF801CE01E80FF91F7F
:1010A000208031806101CC20C1F6DD20B1F60E94A4
:1010B000C20A02EE11E00E946C0AD4C104E00E9450
:1010C000920B07EC11E00E946C0A41E050E00E9494
:1010D0008A0A1CC04F5F5F4F02E010E09A010E9435
:1010E000C20BF801CE0188579E4FE80FF91F00810F
:1010F00011810E94BA0A860113DE002711270E947F
:10110000BA0A02E010E00CDE4F5F5F4F02E010E031
:101110009A010E94C20BF801CE0188579E4FE80F3A
:10112000F91F208031806101CC20A1F6DD2091F6ED
:101130000E94C20A0AEA11E00E946C0A93C108E008
:101140000E94920B0DE711E00E946C0A41E050E012
:101150000E948A0A1CC04F5F5F4F02E010E09A01B4
:101160000E94C20BF801CE0188549D4FE80FF91F71
:10117000008111810E94BA0A8601D2DD0027112761
:101180000E94BA0A02E010E0CBDD4F5F5F4F02E041
:1011900010E09A010E94C20BF801CE0188549D4FC5
:1011A000E80FF91F208031806101CC20A1F6DD20FD
:1011B00091F60E94C20A0EE411E00E946C0A52C12C
:1011C00000E10E94920B02E311E00E946C0A41E0F0
:1011D00050E00E948A0A1CC04F5F5F4F02E010E09F
:1011E0009A010E94C20BF801CE01805B9C4FE80F70
:1011F000F91F008111810E94BA0A860191DD002742
:1012000011270E94BA0A02E010E08ADD4F5F5F4FAB
:1012100002E010E09A010E94C20BF801CE01805B4F
:101220009C4FE80FF91F208031806101CC20A1F68E
:10123000DD2091F60E94C20A02E112E00E946C0ACF
:1012400011C108E00E94920B0AE111E00E946C0AB1
:1012500041E050E00E948A0A1CC04F5F5F4F02E0ED
:1012600010E09A010E94C20BF801CE01885E9B4FEC
:10127000E80FF91F008111810E94BA0A860150DD32
:10128000002711270E94BA0A02E010E049DD4F5FF3
:101290005F4F02E010E09A010E94C20BF801CE01FC
:1012A000885E9B4FE80FF91F208031806101CC20C0
:1012B000A1F6DD2091F60E94C20A00E011E00E9432
:1012C0006C0AD0C00E94C20ACDC00E948A0A03EBF9
:1012D00014E00E94BA0A06E910E022DDC3C00E94B1
:1012E0008A0A00E714E00E94BA0A06E910E018DD55
:1012F000B9C00E948A0A00E314E00E94BA0A06E913
:1013000010E00EDDAFC00E948A0A04EF13E00E94D5
:10131000BA0A06E910E004DDA5C00E948A0A0BEBB8
:1013200013E00E94BA0A06E910E0FADC9BC00E94B2
:101330008A0A05E813E00E94BA0A06E910E0F0DC28
:1013400091C00E948A0A03E513E00E94BA0A06E9E6
:1013500010E0E6DC87C00E948A0A03E213E00E94E4
:10136000BA0A06E910E0DCDC7DC00E948A0A06EFBA
:1013700012E00E94BA0A06E910E0D2DC73C00E94B3
:101380008A0A0BEC12E00E94BA0A06E910E0C8DCF7
:1013900069C00E948A0A03EA12E00E94BA0A06E9BA
:1013A00010E0BEDC5FC00E948A0A0DE712E00E94D6
:1013B000BA0A06E910E0B4DC55C00E948A0A09E5C1
:1013C00012E00E94BA0A06E910E0AADC4BC00E94B3
:1013D0008A0A08E312E00E94BA0A06E910E0A0DCDB
:1013E00041C00E948A0A08E112E00E94BA0A06E996
:1013F00010E096DC37C00E948A0A0AEF11E00E94D2
:10140000BA0A06E910E08CDC2DC00E948A0A0DEDB4
:1014100011E00E94BA0A06E910E082DC23C00E94B3
:101420008A0A02EC11E00E94BA0A06E910E078DCB0
:1014300019C00E948A0A09EA11E00E94BA0A06E964
:1014400010E06EDC0FC00E948A0A01E911E00E94E0
:10145000BA0A06E910E064DC05C00E94C20A00274F
:101460000E94920B4FCDEF96EF96EF96EF96EF9688
:10147000EF96EF96EF96EF96EF96EF96EF96EF9644
:10148000EF96EF96EF96EF96EF96EF96EF96EF9634
:10149000AD96089522242092C1002092C50083E3D6
:1014A0008093C40080E28093C0008EE08093C200ED
:1014B00088E18093C10008952090C00027FC02C0FD
:1014C000002702C00091C60008952090C00025FEAC
:1014D000FCCF0093C60008950E94E00BA80104C051
:1014E000FA010191AF01F1DFFA0120802220C1F75A
:1014F0000E94E30B08950E94E00BA80104C0FA01CA
:101500000191AF01E2DFFA0120802220C1F70E94A1
:10151000E30B0895222424BC81E087BD84B58F7C31
:1015200084BD84B5886084BD84B5816084BD2F9AF4
:1015300020928100209280002092820020928900D7
:10154000209288002092870020928600809180005F
:10155000846080938000809180008D7F80938000E4
:1015600088E1809381008091810082608093810076
:10157000279A08951801232C332420928700009382
:1015800086000895222420928000209287002092D5
:10159000860024BC27982F980895013021F484B543
:1015A000806184BD03C084B58F7C84BD08956C9830
:1015B0006F986E986D986A98749A779A769A759AD9
:1015C000729A08952CB020940CB1009502212CB091
:1015D00020940221047F2227022B08952CB020940E
:1015E0000CB1009502212CB020940221047F222707
:1015F000202E222A022D222D33272434E0E03E071C
:1016000009F487C084E490E0821793070CF436C095
:101610002032E0E03E0709F468C080E290E08217E3
:101620009307B4F02031E0E03E0709F458C080E1B0
:1016300090E08217930734F02430E0E03E0709F48D
:1016400056C06AC02431E0E03E0709F45EC064C0C1
:101650002033E0E03E0709F450C080E390E08217B9
:10166000930734F02432E0E03E0709F454C054C03C
:101670002034E0E03E0709F436C04EC02438E0E0F4
:101680003E0709F444C084E890E082179307A4F071
:101690002036E0E03E0709F436C080E690E082178D
:1016A00093072CF02035E0E03E0719F135C02038D3
:1016B000E0E03E07B1F030C0203AE0E03E07F9F04C
:1016C00080EA90E0821793072CF02039E0E03E0793
:1016D000C1F022C0203CE0E03E0769F01DC001E0FF
:1016E0001BC002E019C003E017C004E015C005E00C
:1016F00013C006E011C007E00FC008E00DC009E00C
:101700000BC00AE009C00BE007C00CE005C00DE00B
:1017100003C00EE001C00FE008958FEF81B92224CD
:1017200022B8089502B9089580B182958F7090B162
:101730009F709295982B92B908958FEF80B9089574
:101740000E94DC0BA22E602F44276830B8F4AA2038
:1017500051F441E001E0162F0E94030C202E20944A
:1017600032B0322032B88A2D813041F441E001E0BC
:10177000162F0E94030C22B0202A22B8042F0E94A8
:10178000D50B08950A921A928A939A93029FC001E8
:10179000129F900D039F900D8C0199918991199042
:1017A00009900895E2E00C94E40BE4E00C94E40B5F
:1017B000FA92EA92DA92CA92BA92AA927A936A93C7
:1017C0005A934A930895E1E049915991E0FD0895B3
:1017D00069917991E1FD0895A990B990E2FD08958C
:1017E000C990D990E3FD0895E990F99008950F927A
:1017F0000990002031F0000F111F221F331F0A949F
:10180000F8CF0F900895112319F0000F1A95FBCF10
:101810000895222321F0169507952A95FACF089569
:10182000AA93BA93EA93FA930A92AF81B885ED81AD
:10183000FE810030010731F0C8950D9231960150BC
:101840001040F7CF0990F991E991B991A9912496A7
:021850000895F9
:00000001FF
