:040000000C94C90291
:14008C00DA1608007B010800910108007B010800910108002C
:1400A0007B010800F4030800A9010800DD01100070040800AD
:1400B40000000800BB030800F602080070041000F4030800E7
:1400C80000000800F602080059020800F4031000DD010800CC
:1400DC0000000800F60208007B010800910108007B01080066
:1400F000910108007B010800F4030800A9010800DD0110003F
:140104007004080000000800BB030800F60208007004100019
:14011800F403080000000800F6020800DD010800F4031000DF
:14012C0070040000010056130400A3020400F6020400230312
:140140000400F60210007D020400700404007D020400A3027C
:1401540004007D021000F4030400DD010400F40304003004F8
:140168000400F4030400510104007B010400910104007B019C
:14017C000400510104007B010400910104007B0110003E0134
:1401900008007B0108003E010200A90102007B010400510110
:1401A40008007B010800A90108007B010200A90102007B0163
:1401B8000400510108007B010800A90108007B010200A90177
:1401CC0002007B010400510108007B010800A9010800C2014A
:1401E0001000F403000001005E1A1000A90108007D02080042
:1401F40070040800F4030800DD011000A90110007D02100045
:140208007D0210007B010800DD010800A90108007B010800B3
:14021C00510110003E0110007D0210007D021000DD01080019
:14023000A9010800DD010800F403080070041000F4030800A0
:14024400DD010800F4030800700408007D021000A302080009
:140258007D02080070040800F40308007D021000F4032000EA
:14026C00700400000100201C10003E012000EE000800EE007A
:140280001000EE001000BD002000D4000800EE001000D400D1
:140294000800BD000800D4002000EE000800EE001000BD00E4
:1402A80010009F0020001C010800000010001C0120009F0062
:1402BC000800BD001000BD001000EE002000D4000800EE00B4
:1402D0001000D4000800BD000800D4002000EE000800380245
:1402E4001000380210003E012000EE0010000000000001004E
:1402F80084030200C8000200C3000200BE000200B90002005F
:14030C00B4000200AF000200AA000200A5000200A000020081
:140320009B00020096000200910002008C00020087000200EA
:14033400820002007D00020078000200730002006E00020053
:14034800690002006400080000000200C8000200C300020039
:14035C00BE000200B9000200B4000200AF000200AA000200FF
:14037000A5000200A00002009B000200960002009100020068
:140384008C00020087000200820002007D0002007D000200CC
:1403980082000200870002008C00020091000200960002008B
:1403AC009B000200A0000200A5000200AA000200AF000200FA
:1403C000B4000200B9000200BE000200C3000200C800080063
:1403D40000000200C8000200C3000200BE000200B900020009
:1403E800B4000200AF000200AA000200A5000200A0000200A5
:1403FC009B00020096000200910002008C000200870002000E
:14041000820002007D00020078000200730002006E00020076
:14042400690002006400080000000200C8000200C30002005C
:14043800BE000200B9000200B4000200AF000200AA00020022
:14044C00A5000200A00002009B00020096000200910002008B
:140460008C00020087000200820002007D0002007D000200EF
:1404740082000200870002008C0002009100020096000200AE
:140488009B000200A0000200A5000200AA000200AF0002001D
:14049C00B4000200B9000200BE000200C3000200C800080086
:1404B00000000200C8000200C3000200BE000200B90002002C
:1404C400B4000200AF000200AA000200A5000200A0000200C8
:1404D8009B00020096000200910002008C0002008700020031
:1404EC00820002007D00020078000200730002006E0002009A
:14050000690002006400080000000200C8000200C30002007F
:14051400BE000200B9000200B4000200AF000200AA00020045
:14052800A5000200A00002009B0002009600020091000200AE
:14053C008C00020087000200820002007D0002007D00020012
:1405500082000200870002008C0002009100020096000200D1
:140564009B000200A0000200A5000200AA000200AF00020040
:14057800B4000200B9000200BE000200C3000200C8000800A9
:14058C00000000000100CFEFD8E0CDBFDEBFC051D0400AEAA6
:1405A00008830024E0E0F1E011E0E030F10711F00192FBCFB0
:1405B4000083E2E9F5E0A0E0B1E015E0E239F10721F0C89589
:1405C80031960D92F9CF0E94EA02FFCFEF97EF97EF97EF977D
:1405DC00EF97EF97EF97EF97EF97EF97EF97EF97EF97EF97CF
:1405F000EF97EF97EF97EF97EF97EF976F97442755270024C2
:14060400FE01E65FFA4F00821124FE01EA5FFA4F11820082F8
:14061800FE01E85FFA4F11820082662777278CE890E0FE011C
:14062C0006EA10E0FA93EA939A938A930E94870782E391E080
:14064000FE01EA55FF4F06EB10E0FA93EA939A938A930E9443
:14065400870788EE91E0FE01E45AFE4F0AE810E0FA93EA93A7
:140668009A938A930E94870782E792E0FE01EA51FE4F06E8B4
:14067C0010E0FA93EA939A938A930E94870788EF92E0FE010E
:14069000E459FD4F0AE912E0FA93EA939A938A930E94870764
:1406A40080E8809361002224209261000E9426070E942D0768
:1406B80084E08093800088E180938100222433243092870054
:1406CC002092860020928800209289008091810082608093E6
:1406E000810078940FEF10E00E942B0700241124FE01E85F18
:1406F400FA4F1182008200241124FE01EA5FFA4F1182008295
:14070800FE01EA5FFA4F808191810196FE01EA5FFA4F9183FD
:14071C0080838831E5E19E078CF3FE01E85FFA4F8081918181
:140730000196FE01E85FFA4F918380838930E0E09E07DCF28C
:1407440000241124FE01EA5FFA4F11820082FE01EA5FFA4F11
:14075800808191810196FE01EA5FFA4F918380838F3FEFE09E
:14076C009E078CF30E943607FE01E65FFA4F0083C02EDD2477
:14078000C6018130E0E09E0721F18230E0E09E0709F4B2C0F0
:140794008330E0E09E0709F446C18430E0E09E0709F4DAC184
:1407A8008C30E0E09E0709F46EC28D30E0E09E0709F402C30B
:1407BC008E30E0E09E0709F409C38F30E0E09E0709F410C349
:1407D0001BC301EF10E00E942B07279A6627772702E010E0C5
:1407E4009B010E947707F801CE01E80FF91FA080B1806F5F4F
:1407F8007F4F02E010E09B010E947707F801CE01E80FF91FBA
:14080C00408151816F5F7F4F02E010E09B010E947707F80122
:14082000CE01E80FF91FE080F180F0928700E09286000024F0
:140834001124FE01E85FFA4F1182008226C000241124FE0199
:14084800EA5FFA4F118200820BC0FE01EA5FFA4F8081918186
:14085C000196FE01EA5FFA4F91838083FE01EA5FFA4F008038
:1408700011800A141B046CF3FE01E85FFA4F8081918101960E
:14088400FE01E85FFA4F91838083FE01E85FFA4F008011801A
:140898004015510594F66F5F7F4F22243324309287002092E3
:1408AC00860082E090E084179507DCF400241124FE01EA5F38
:1408C000FA4F118200820BC0FE01EA5FFA4F808191810196C0
:1408D400FE01EA5FFA4F91838083FE01EA5FFA4F00801180C6
:1408E8000A141B046CF34030450709F082CF26CF02EF10E084
:1408FC000E942B07279A6627772702E010E09B010E9477079A
:14091000F801CE018A559F4FE80FF91FA080B1806F5F7F4F42
:1409240002E010E09B010E947707F801CE018A559F4FE80FA5
:14093800F91F408151816F5F7F4F02E010E09B010E947707D6
:14094C00F801CE018A559F4FE80FF91FE080F180F092870019
:14096000E092860000241124FE01E85FFA4F1182008226C0A8
:1409740000241124FE01EA5FFA4F118200820BC0FE01EA5F5D
:14098800FA4F808191810196FE01EA5FFA4F91838083FE01C1
:14099C00EA5FFA4F008011800A141B046CF3FE01E85FFA4F79
:1409B000808191810196FE01E85FFA4F91838083FE01E85F9D
:1409C400FA4F008011804015510594F66F5F7F4F2224332457
:1409D800309287002092860082E090E084179507DCF400248D
:1409EC001124FE01EA5FFA4F118200820BC0FE01EA5FFA4FC0
:140A0000808191810196FE01EA5FFA4F91838083FE01EA5F48
:140A1400FA4F008011800A141B046CF34030450709F07ECFD6
:140A28008DCE03EF10E00E942B07279A6627772702E010E0EB
:140A3C009B010E947707F801CE01845A9E4FE80FF91FA08028
:140A5000B1806F5F7F4F02E010E09B010E947707F801CE016F
:140A6400845A9E4FE80FF91F408151816F5F7F4F02E010E0A3
:140A78009B010E947707F801CE01845A9E4FE80FF91FE080AC
:140A8C00F180F0928700E092860000241124FE01E85FFA4FFC
:140AA0001182008226C000241124FE01EA5FFA4F1182008248
:140AB4000BC0FE01EA5FFA4F808191810196FE01EA5FFA4F97
:140AC80091838083FE01EA5FFA4F008011800A141B046CF3C5
:140ADC00FE01E85FFA4F808191810196FE01E85FFA4F91832A
:140AF0008083FE01E85FFA4F008011804015510594F66F5F4C
:140B04007F4F22243324309287002092860082E090E0841784
:140B18009507DCF400241124FE01EA5FFA4F118200820BC093
:140B2C00FE01EA5FFA4F808191810196FE01EA5FFA4F9183D5
:140B40008083FE01EA5FFA4F008011800A141B046CF34030F0
:140B5400450709F07ECFF4CD04EF10E00E942B07279A662735
:140B6800772702E010E09B010E947707F801CE018A519E4FBD
:140B7C00E80FF91FA080B1806F5F7F4F02E010E09B010E9459
:140B90007707F801CE018A519E4FE80FF91F408151816F5FD3
:140BA4007F4F02E010E09B010E947707F801CE018A519E4F51
:140BB800E80FF91FE080F180F0928700E092860000241124EF
:140BCC00FE01E85FFA4F1182008226C000241124FE01EA5FEA
:140BE000FA4F118200820BC0FE01EA5FFA4F8081918101969D
:140BF400FE01EA5FFA4F91838083FE01EA5FFA4F00801180A3
:140C08000A141B046CF3FE01E85FFA4F808191810196FE0104
:140C1C00E85FFA4F91838083FE01E85FFA4F00801180401528
:140C3000510594F66F5F7F4F22243324309287002092860016
:140C440082E090E084179507DCF400241124FE01EA5FFA4FD9
:140C5800118200820BC0FE01EA5FFA4F808191810196FE016E
:140C6C00EA5FFA4F91838083FE01EA5FFA4F008011800A140B
:140C80001B046CF34030450709F07ECF5BCD04EF10E00E9433
:140C94002B07279A6627772702E010E09B010E947707F801A7
:140CA800CE0184599D4FE80FF91FA080B1806F5F7F4F02E0C2
:140CBC0010E09B010E947707F801CE0184599D4FE80FF91FD8
:140CD000408151816F5F7F4F02E010E09B010E947707F8015A
:140CE400CE0184599D4FE80FF91FE080F180F0928700E09209
:140CF800860000241124FE01E85FFA4F1182008226C000245B
:140D0C001124FE01EA5FFA4F118200820BC0FE01EA5FFA4F9C
:140D2000808191810196FE01EA5FFA4F91838083FE01EA5F25
:140D3400FA4F008011800A141B046CF3FE01E85FFA4F808125
:140D480091810196FE01E85FFA4F91838083FE01E85FFA4FB9
:140D5C00008011804015510594F66F5F7F4F22243324309242
:140D700087002092860082E090E084179507DCF4002411247E
:140D8400FE01EA5FFA4F118200820BC0FE01EA5FFA4F808158
:140D980091810196FE01EA5FFA4F91838083FE01EA5FFA4F65
:140DAC00008011800A141B046CF34030450709F07ECFC2CCF6
:140DC0008EE890E0909387008093860000E210E00E942B0750
:140DD400279AB6CC8EE790E0909387008093860000E410E0CC
:140DE8000E942B07279AAACC8BE390E09093870080938600CB
:140DFC0000E810E00E942B07279A9ECC222433243092870026
:140E100020928600002711270E942B07279892CCEF96EF963C
:140E2400EF96EF96EF96EF96EF96EF96EF96EF96EF96EF9688
:140E3800EF96EF96EF96EF96EF96EF96EF96EF966F960895DC
:140E4C008FEF81B9222422B8089502B908956F986E986D98B3
:140E60006C986A988EB1846F8EB908952CB12095247F2031DC
:140E740011F401E039C0203811F402E035C0203211F404E01C
:140E880031C0203411F403E02DC0243011F405E029C02035C0
:140E9C0011F406E025C0203C11F407E021C0203311F408E009
:140EB0001DC0203A11F409E019C0203911F40AE015C02036BD
:140EC40011F40BE011C0243111F40CE00DC0243811F40DE0F8
:140ED80009C0243411F40EE005C0243211F40FE001C00027FB
:140EEC0008950A921A928A939A93029FC001129F900D039F71
:140F0000900D8C0199918991199009900895AA93BA93EA9389
:140F1400FA930A92AF81B885ED81FE810030010731F0C89590
:140F28000D92319601501040F7CF0990F991E991B991A991C7
:040F3C00249608955A
:00000001FF
