:100000000C944A000C9467000C9467000C946700F1
:100010000C9467000C9467000C9467000C946700C4
:100020000C9467000C9453130C9467000C946700B5
:100030000C9467000C9467000C9467000C946700A4
:100040000C9467000C9467000C9467000C94670094
:100050000C9467000C9467000C9467000C94670084
:100060000C9467000C9467000C9467000C94670074
:100070000C9467000C9467000C9467000C94670064
:100080000C9467000C9467000C9467000C94670054
:100090000C94670011241FBECFEFD0E1DEBFCDBFAF
:1000A00011E0A0E0B1E0E6E7F7E200E00BBF02C03C
:1000B00007900D92A030B107D9F712E0A0E0B1E0AF
:1000C00001C01D92AB39B107E1F70C9469000C94A3
:1000D0000000CF93DF93CDB7DEB722970FB6F89429
:1000E000DEBF0FBECDBFE1E6F0E080E88083E1E651
:1000F000F0E010820E94B4110E9479100E94A901C0
:1001000080E00E94DC0500C00E94F210282F3327F7
:100110003A83298389819A8183309105C1F12981AC
:100120003A81243031055CF489819A8181309105CE
:10013000B1F029813A8122303105E9F058C0898136
:100140009A8185309105D9F129813A81253031058F
:1001500054F189819A818B309105E9F148C081E0A1
:100160000E94C21181E290E00E94FF0081E091E0D4
:100170000E940702C9CF82E00E94C21180E290E093
:100180000E94FF0081E091E00E940702BDCF84E061
:100190000E94C21182E290E00E94FF0081E091E0A3
:1001A0000E940702B1CF88E00E94C21183E290E072
:1001B0000E94FF0081E091E00E940702A5CF80E14C
:1001C0000E94C21184E290E00E94FF0081E091E071
:1001D0000E94070299CF80E20E94C21185E290E05E
:1001E0000E94FF0081E091E00E9407028DCF80E035
:1001F0000E94C21184E690E00E944B1285CFCF93FB
:10020000DF93CDB7DEB76F970FB6F894DEBF0FBEA2
:10021000CDBF9F8F8E8F1F8281E0888781E091E024
:100220009A83898389C0CE0109969A8F898F1D820E
:100230000CC08D81282F3327CE010996FC01E20FD7
:10024000F31F10828D818F5F8D838D81883088F3BD
:100250001D8E88E0888F8E8D9F8D9D8B8C8B88E086
:1002600090E09B8B8A8BCE0141960E9407068823E3
:10027000D1F7CE0141960E94510F8130D1F389858B
:100280009927982F88279C838B838A85282F33274B
:100290008B819C81822B932B9C838B838B819C8174
:1002A000009711F481E08F838F81882309F444C083
:1002B00082E08D833CC02B813C8189819A81D90168
:1002C000A80FB91F8D81282F3327CE010996FC0175
:1002D000E20FF31F80818C938C918E838B819C81A4
:1002E00001969C838B838D818F5F8D832B813C81D5
:1002F00089819A81D901A80FB91F8D81282F3327B1
:10030000CE010996FC01E20FF31F80818C939C9132
:100310008E81892B8E838B819C8101969C838B831C
:100320008D818F5F8D838E81882309F41886988D47
:100330008D81891708F4BFCF8885882309F073CF92
:100340006F960FB6F894DEBF0FBECDBFDF91CF9191
:100350000895CF93DF93CDB7DEB7E1E8F0E01082E8
:10036000E0E8F0E01082E2E8F0E01082A8E8B0E017
:10037000E9E8F0E0108280818C93A6E8B0E0E7E83D
:10038000F0E0108280818C93A0E8B0E0E0E8F0E03B
:10039000808184608C93A0E8B0E0E0E8F0E08081A8
:1003A0008D7F8C93E1E8F0E088E18083A1E8B0E004
:1003B000E1E8F0E0808182608C93A4E2B0E0E4E2C6
:1003C000F0E0808180688C93DF91CF910895CF9386
:1003D000DF93CDB7DEB722970FB6F894DEBF0FBE1E
:1003E000CDBF9A838983E7E8F0E089819A81892FDC
:1003F00099278083E6E8F0E08981808322960FB612
:10040000F894DEBF0FBECDBFDF91CF910895CF939B
:10041000DF93CDB7DEB725970FB6F894DEBF0FBEDA
:10042000CDBF9C838B830E94A9018B819C81029606
:100430009C838B8318C0EB81FC81208131818B816F
:100440009C8102969C838B83C9010E94E70189816C
:100450009A810E944B1280E090E00E94E70182E0C6
:1004600090E00E944B12EB81FC81808191819A8304
:1004700089831D8289819A81009711F081E08D83A3
:100480008B819C8102969C838B838D81882399F636
:100490000E94530225960FB6F894DEBF0FBECDBF63
:1004A000DF91CF910895CF93DF93CDB7DEB7E0E82A
:1004B000F0E01082A6E8B0E0E7E8F0E0108280818A
:1004C0008C93A4E2B0E0E4E2F0E090818FE789232E
:1004D0008C93A5E2B0E0E5E2F0E090818FE789231C
:1004E0008C93DF91CF910895CF93DF93CDB7DEB793
:1004F00021970FB6F894DEBF0FBECDBF898321963A
:100500000FB6F894DEBF0FBECDBFDF91CF91089537
:10051000CF93DF93CDB7DEB723970FB6F894DEBF46
:100520000FBECDBF1B821BC0EDEEF0E08B8182952C
:10053000807F80838EEE90E09A83898308C0E98172
:10054000FA81108289819A8101969A8389838981AF
:100550009A81883F910598F38B818F5F8B838B8184
:100560008F3010F323960FB6F894DEBF0FBECDBFC9
:10057000DF91CF910895CF93DF93CDB7DEB7249766
:100580000FB6F894DEBF0FBECDBFEDEEF0E0808178
:1005900089831A821BC0EDEEF0E08A818295807F0C
:1005A0008083EFEEF0E080819927807C9070009747
:1005B00051F4EDEEF0E0898180838A81282F332782
:1005C0003C832B830EC08A818F5F8A838A818F3020
:1005D00010F3EDEEF0E0898180838FEF90E09C8353
:1005E0008B838B819C8124960FB6F894DEBF0FBE5F
:1005F000CDBFDF91CF910895CF93DF93CDB7DEB715
:1006000024970FB6F894DEBF0FBECDBFEFEEF0E03B
:1006100080819927807C9070009729F42FEF30E03B
:100620003C832B8325C0EEEEF0E08081898390EE41
:10063000898189238A838A81803231F08A8180345A
:1006400019F08A81803A31F48A81282F33273C833C
:100650002B830EC089818F718A838A81882331F030
:100660008A81282F33273C832B8302C01C821B8264
:100670008B819C8124960FB6F894DEBF0FBECDBF50
:10068000DF91CF910895CF93DF93CDB7DEB7239756
:100690000FB6F894DEBF0FBECDBF9B838A8319824D
:1006A0000FC0898199279C018A819B81D901A80F5C
:1006B000B91FEAEFF0E080818C9389818F5F898395
:1006C0008981282F3327EFEEF0E0808199278F7002
:1006D0009070281739072CF323960FB6F894DEBFD5
:1006E0000FBECDBFDF91CF910895CF93DF93CDB7EC
:1006F000DEB767970FB6F894DEBF0FBECDBF8A8B0B
:100700001E82188688858B871B821D821C8281E051
:100710008A878A898823A1F481E0888B88E08E8784
:1007200082E08D8782E08C879D858C85980F8E85F1
:10073000891B81508F8781E08F8381E0898799C0F1
:10074000E2EEF0E0808199278E77907095958795FD
:100750001816190664F4E2EEF0E0808199278E778E
:10076000907095958795982F9F5F9F8B02C081E031
:100770008F8B9F89988BE3EEF0E0808199278E70B4
:100780009070959587951816190664F4E3EEF0E0DD
:10079000808199278E70907095958795982F9F5F8F
:1007A0009E8B02C081E08E8B9E899F87E4EEF0E0F5
:1007B000808199278E7090709595879582309105EC
:1007C00064F0E4EEF0E0808199278E70907095954A
:1007D0008795982F9F5F9D8B02C082E08D8B9D89AE
:1007E0009D87E4EEF0E08081992780779070959561
:1007F0008795959587959595879595958795823059
:10080000910594F0E4EEF0E0808199278077907074
:1008100095958795959587959595879595958795C0
:10082000982F9F5F9C8B02C082E08C8B9C899C8759
:100830008F85282F33278D859927280F391F8C8581
:100840009927820F931F883091054CF09F858D85E5
:10085000980F8C85890F982F9F5F9B8B02C088E033
:100860008B8B9B899E8781E0888788858B871F82F9
:100870001986198A1BC0EDEEF0E089898295807F88
:1008800080838EEE90E09A83898308C0E981FA81A3
:10089000108289819A8101969A83898389819A81BC
:1008A000883F910598F389898F5F898B89898F307B
:1008B00010F34DC18F81813009F0B9C0E8EDF0E04F
:1008C00081E080838C819D8101969D838C831E8233
:1008D000E2EEF0E088898150880F8083E3EEF0E05B
:1008E0008C85869599270197880F991F82959295F7
:1008F000907F9827807F9827282F8F8599270197A9
:10090000880F991F822B8083E4EEF0E08C85992775
:10091000019782959295907F9827807F9827282F1E
:100920008D8599270197880F991F822B816080837D
:10093000E5EEF0E08C819D8196958795969587955B
:10094000969587958083EDEEF0E01082EEEEF0E074
:100950001082EFEEF0E080E88083E8EDF0E08AE0DE
:100960008083E9EDF0E08081992784709070009792
:10097000C1F3EAEDF0E08FEF808359C0EEEEF0E0D6
:100980008081898B89899927807290700097C9F03E
:10099000198618861A8681E08B83AFEEB0E0EFEE01
:1009A000F0E090818FE389238C93E8EDF0E01082F2
:1009B000E9EDF0E080819927847090700097C1F78D
:1009C00036C0898999278F719070009719F081E05E
:1009D00088871986EAEDF0E08081898B89899927DB
:1009E000807290700097C1F08E81882359F4AAED2F
:1009F000B0E0EAEDF0E0808180628C938E818F5FC1
:100A00008E830AC0AAEDB0E0EAEDF0E0808180625A
:100A10008C9381E088871986898999278F709070D7
:100A2000009729F081E08887198681E08F83898586
:100A3000813009F4A3CF87C08B85882319F08D8579
:100A40008F5F8D8781E08B878D85893078F18C85EC
:100A5000883060F182E08D8782E08C871B868E85EE
:100A6000893121F08E858F5F8E876DC088E08E87FB
:100A70008889803421F088898F5F888B64C01886CC
:100A80001B821A86AFEEB0E0EFEEF0E090818FE3CC
:100A900089238C93E8EDF0E01082E9EDF0E08081AD
:100AA0009927847090700097C1F74DC08D8586306E
:100AB00078F08D85282F33278C859927019682170A
:100AC000930744F48C858F5F8C878C858D8702C05B
:100AD0008D858C879D858C85980F8E85891B81508F
:100AE0008F878F85893078F58F85882361F18C8594
:100AF0009927AC01440F551F440F551F8F85282F90
:100B000033278D859927820F931F01964817590720
:100B1000D4F08C85282F33278C859927280F391FEF
:100B20008C859927A901480F591F8F85282F3327B6
:100B30008D859927820F931F0196841795071CF0C6
:100B4000188681E089878885813009F475CF8A8588
:100B5000813009F4AFCE8B81992767960FB6F89450
:100B6000DEBF0FBECDBFDF91CF910895CF93DF934E
:100B7000CDB7DEB721970FB6F894DEBF0FBECDBF5D
:100B80008983E8EDF0E081E08083E2EEF0E082E04E
:100B90008083E3EEF0E08CE08083E4EEF0E087E336
:100BA000808381E090E021960FB6F894DEBF0FBEFF
:100BB000CDBFDF91CF910895CF93DF93CDB7DEB74F
:100BC00023970FB6F894DEBF0FBECDBF898389810E
:100BD0000E94B605882319F41B821A820DC00E9458
:100BE0008802A8EDB0E0E8EDF0E0808182608C93AF
:100BF00081E090E09B838A838A819B8123960FB654
:100C0000F894DEBF0FBECDBFDF91CF910895CF9393
:100C1000DF93CDB7DEB72E970FB6F894DEBF0FBEC9
:100C2000CDBF9A878987E985FA85818192818C3049
:100C3000910501F5E985FA8582858036B1F4ADEE3E
:100C4000B0E0E985FA8580818295807F8C93AFEE54
:100C5000B0E0EFEEF0E090818FE389238C93EEEE2D
:100C6000F0E01082E985FA851082E985FA8512861E
:100C70000C94440F0E94BB028C838C818F3F11F433
:100C80000C943B0FE985FA8580E68287E985FA8531
:100C90008C818083EDEEF0E08C818295807F808373
:100CA0008EEE90E09A83898308C0E981FA811082F0
:100CB00089819A8101969A83898389819A81883F63
:100CC000910598F3E985FA850180F281E02DFE8790
:100CD000ED878D859E858630910509F476C38D85D7
:100CE0009E858730910530F58D859E8583309105F1
:100CF00009F4D3C18D859E858430910568F48D8576
:100D00009E8581309105E9F18D859E858230910522
:100D100009F402C10C94370F8D859E8584309105AE
:100D200009F465C28D859E858530910509F4D1C28F
:100D30000C94370F8D859E858930910509F4C9C5BE
:100D40008D859E858A30910570F48D859E858730CE
:100D5000910509F4BEC38D859E858830910509F4FF
:100D6000B3C40C94370F8D859E858A30910509F4A4
:100D7000BDC68D859E858B30910509F453C70C94B3
:100D8000370FE985FA858485882309F457C0A3EFD6
:100D9000B0E089859A850396FC0133968081282FDF
:100DA000220F220F220F89859A850396FC01329625
:100DB0008081829586958770820F8C93A2EFB0E038
:100DC00089859A850396FC0132968081282F220F0F
:100DD000220F220F89859A850396FC013196808126
:100DE000829586958770820F8C93A1EFB0E08985FC
:100DF0009A850396FC0131968081282F220F220FBD
:100E0000220F89859A850396FC01808182958695BB
:100E10008770820F8C93A0EFB0E089859A85039646
:100E2000FC018081880F880F880F8C93AFEEB0E0B3
:100E3000EFEEF0E0808180618C9328C0A3EFB0E0FA
:100E400089859A850396FC0131968081282F229509
:100E5000220F207E89859A850396FC0180818695E4
:100E600086958695820F8C93A2EFB0E089859A854E
:100E70000396FC0180818295880F807E8C93AFEE73
:100E8000B0E0EFEEF0E080818F7E8C931B8210C08B
:100E9000AAEFB0E0E985FA85208531858B81992715
:100EA000F901E80FF91F80818C938B818F5F8B8311
:100EB000E985FA8597818B81891750F3E985FA8551
:100EC0008385882341F0A0EFB0E0E0EFF0E080817F
:100ED00084608C9307C0A0EFB0E0E0EFF0E0808189
:100EE0008B7F8C93AFEEB0E0EFEEF0E09081E98580
:100EF000FA858781892B8C93AFEEB0E0EFEEF0E0BE
:100F000090818FE389238C93AFEEB0E0EFEEF0E0B9
:100F1000808180648C93B8C7E985FA8584858823AD
:100F200009F457C0A3EFB0E089859A850396FC01C8
:100F300033968081282F220F220F220F89859A85D0
:100F40000396FC0132968081829586958770820F88
:100F50008C93A2EFB0E089859A850396FC013296C6
:100F60008081282F220F220F220F89859A850396D0
:100F7000FC0131968081829586958770820F8C93D3
:100F8000A1EFB0E089859A850396FC0131968081B6
:100F9000282F220F220F220F89859A850396FC01A4
:100FA0008081829586958770820F8C93A0EFB0E048
:100FB00089859A850396FC018081880F880F880FA8
:100FC0008C93AFEEB0E0EFEEF0E0808180618C9327
:100FD00028C0A3EFB0E089859A850396FC0131967D
:100FE0008081282F2295220F207E89859A8503965D
:100FF000FC018081869586958695820F8C93A2EF61
:10100000B0E089859A850396FC0180818295880FDE
:10101000807E8C93AFEEB0E0EFEEF0E080818F7ECB
:101020008C931B8210C0AAEFB0E0E985FA85208579
:1010300031858B819927F901E80FF91F80818C9305
:101040008B818F5F8B83E985FA8597818B818917E7
:1010500050F3E985FA851386A0EFB0E0E0EFF0E009
:1010600080818B7F8C93AFEEB0E0EFEEF0E090816B
:10107000E985FA858781892B8C93AFEEB0E0EFEE9E
:10108000F0E090818FE389238C93AFEEB0E0EFEE38
:10109000F0E0808180648C93F7C6E985FA858485C9
:1010A000882309F457C0A3EFB0E089859A85039699
:1010B000FC0133968081282F220F220F220F898571
:1010C0009A850396FC013296808182958695877079
:1010D000820F8C93A2EFB0E089859A850396FC017C
:1010E00032968081282F220F220F220F89859A8520
:1010F0000396FC0131968081829586958770820FD8
:101100008C93A1EFB0E089859A850396FC01319616
:101110008081282F220F220F220F89859A8503961E
:10112000FC018081829586958770820F8C93A0EF59
:10113000B0E089859A850396FC018081880F880F2D
:10114000880F8C93AFEEB0E0EFEEF0E0808180612D
:101150008C9328C0A3EFB0E089859A850396FC01A3
:1011600031968081282F2295220F207E89859A85AD
:101170000396FC018081869586958695820F8C93D7
:10118000A2EFB0E089859A850396FC018081829563
:10119000880F807E8C93AFEEB0E0EFEEF0E08081C0
:1011A0008F7E8C93E985FA8581E08387A0EFB0E09C
:1011B000E0EFF0E0808184608C93AFEEB0E0EFEE82
:1011C000F0E09081E985FA858781892B8C93AFEED9
:1011D000B0E0EFEEF0E090818FE389238C93AFEEE7
:1011E000B0E0EFEEF0E0808180648C934DC61D820C
:1011F0001E821F821886A7EFB0E0CE010596FC0183
:1012000033968081282F220F220F220FCE010596C0
:10121000FC0132968081829586958770820F8C932F
:10122000A6EFB0E0CE010596FC0132968081282F12
:10123000220F220F220FCE010596FC0131968081EC
:10124000829586958770820F8C93A5EFB0E0CE01D2
:101250000596FC0131968081982F990F990F990F6F
:10126000FE0135968081829586958770890F8C93D3
:10127000A4EFB0E0FE0135968081880F880F880FBB
:101280008C93AFEEB0E0EFEEF0E09081E985FA8567
:101290008781892B8C93A4EFB0E0E4EFF0E08081AC
:1012A0008B7F8C93A4EFB0E0E4EFF0E080818E7F41
:1012B0008C93AFEEB0E0EFEEF0E090818FE3892306
:1012C0008C93AFEEB0E0EFEEF0E0808180688C931D
:1012D000DBC51D821E821F821886A7EFB0E0CE01FB
:1012E0000596FC0133968081282F220F220F220FB2
:1012F000CE010596FC013296808182958695877095
:10130000820F8C93A6EFB0E0CE010596FC013296D9
:101310008081282F220F220F220FCE010596FC017B
:1013200031968081829586958770820F8C93A5EF88
:10133000B0E0CE010596FC0131968081982F990F7F
:10134000990F990FFE013596808182958695877059
:10135000890F8C93A4EFB0E0FE0135968081880F51
:10136000880F880F8C93AFEEB0E0EFEEF0E0908145
:10137000E985FA858781892B8C93E985FA8513861F
:10138000A4EFB0E0E4EFF0E0808184608C93A0EF04
:10139000B0E0E0EFF0E080818B7F8C93A4EFB0E0D1
:1013A000E4EFF0E080818E7F8C93AFEEB0E0EFEE63
:1013B000F0E090818FE389238C93AFEEB0E0EFEE05
:1013C000F0E0808180688C935FC51D821E821F8241
:1013D0001886A7EFB0E0CE010596FC013396808118
:1013E000282F220F220F220FCE010596FC013296E4
:1013F0008081829586958770820F8C93A6EFB0E0EE
:10140000CE010596FC0132968081282F220F220FF3
:10141000220FCE010596FC0131968081829586953A
:101420008770820F8C93A5EFB0E0CE010596FC018A
:1014300031968081982F990F990F990FFE0135965B
:101440008081829586958770890F8C93A4EFB0E098
:10145000FE0135968081880F880F880F8C93AFEE40
:10146000B0E0EFEEF0E09081E985FA858781892B85
:101470008C93E985FA8581E08387A4EFB0E0E4EFFF
:10148000F0E0808184608C93A0EFB0E0E0EFF0E0CA
:10149000808184608C93AFEEB0E0EFEEF0E080816D
:1014A0008F7D8C93A4EFB0E0E4EFF0E080818E7F3D
:1014B0008C93AFEEB0E0EFEEF0E090818FE3892304
:1014C0008C93AFEEB0E0EFEEF0E0808180688C931B
:1014D000DBC4E985FA858485882309F457C0A3EF26
:1014E000B0E089859A850396FC0133968081282F88
:1014F000220F220F220F89859A850396FC013296CE
:101500008081829586958770820F8C93A2EFB0E0E0
:1015100089859A850396FC0132968081282F220FB7
:10152000220F220F89859A850396FC0131968081CE
:10153000829586958770820F8C93A1EFB0E08985A4
:101540009A850396FC0131968081282F220F220F65
:10155000220F89859A850396FC0180818295869564
:101560008770820F8C93A0EFB0E089859A850396EF
:10157000FC018081880F880F880F8C93AFEEB0E05C
:10158000EFEEF0E0808180618C9328C0A3EFB0E0A3
:1015900089859A850396FC0131968081282F2295B2
:1015A000220F207E89859A850396FC01808186958D
:1015B00086958695820F8C93A2EFB0E089859A85F7
:1015C0000396FC0180818295880F807E8C93AFEE1C
:1015D000B0E0EFEEF0E080818F7E8C938FEF9FEF95
:1015E000AFEFBFEF8D839E83AF83B887A7EFB0E0E7
:1015F000CE010596FC0133968081282F220F220F01
:10160000220FCE010596FC01329680818295869547
:101610008770820F8C93A6EFB0E0CE010596FC0197
:1016200032968081282F220F220F220FCE0105969D
:10163000FC0131968081829586958770820F8C930C
:10164000A5EFB0E0CE010596FC0131968081982F80
:10165000990F990F990FFE01359680818295869595
:101660008770890F8C93A4EFB0E0FE0135968081DE
:10167000880F880F880F8C93AFEEB0E0EFEEF0E0AC
:101680009081E985FA858781892B8C93A4EFB0E05E
:10169000E4EFF0E080818B7F8C93A4EFB0E0E4EF87
:1016A000F0E0808181608C93AFEEB0E0EFEEF0E08F
:1016B00090818FE389238C93AFEEB0E0EFEEF0E002
:1016C000808180688C93E0C3E985FA8584858823CE
:1016D00009F457C0A3EFB0E089859A850396FC0111
:1016E00033968081282F220F220F220F89859A8519
:1016F0000396FC0132968081829586958770820FD1
:101700008C93A2EFB0E089859A850396FC0132960E
:101710008081282F220F220F220F89859A85039618
:10172000FC0131968081829586958770820F8C931B
:10173000A1EFB0E089859A850396FC0131968081FE
:10174000282F220F220F220F89859A850396FC01EC
:101750008081829586958770820F8C93A0EFB0E090
:1017600089859A850396FC018081880F880F880FF0
:101770008C93AFEEB0E0EFEEF0E0808180618C936F
:1017800028C0A3EFB0E089859A850396FC013196C5
:101790008081282F2295220F207E89859A850396A5
:1017A000FC018081869586958695820F8C93A2EFA9
:1017B000B0E089859A850396FC0180818295880F27
:1017C000807E8C93AFEEB0E0EFEEF0E080818F7E14
:1017D0008C938FEF9FEFAFEFBFEF8D839E83AF832F
:1017E000B887A7EFB0E0CE010596FC013396808163
:1017F000282F220F220F220FCE010596FC013296D0
:101800008081829586958770820F8C93A6EFB0E0D9
:10181000CE010596FC0132968081282F220F220FDF
:10182000220FCE010596FC01319680818295869526
:101830008770820F8C93A5EFB0E0CE010596FC0176
:1018400031968081982F990F990F990FFE01359647
:101850008081829586958770890F8C93A4EFB0E084
:10186000FE0135968081880F880F880F8C93AFEE2C
:10187000B0E0EFEEF0E09081E985FA858781892B71
:101880008C93E985FA851386A4EFB0E0E4EFF0E0ED
:10189000808184608C93A0EFB0E0E0EFF0E0808185
:1018A0008B7F8C93A4EFB0E0E4EFF0E08081816067
:1018B0008C93AFEEB0E0EFEEF0E090818FE3892300
:1018C0008C93AFEEB0E0EFEEF0E0808180688C9317
:1018D000DBC2E985FA858485882309F457C0A3EF24
:1018E000B0E089859A850396FC0133968081282F84
:1018F000220F220F220F89859A850396FC013296CA
:101900008081829586958770820F8C93A2EFB0E0DC
:1019100089859A850396FC0132968081282F220FB3
:10192000220F220F89859A850396FC0131968081CA
:10193000829586958770820F8C93A1EFB0E08985A0
:101940009A850396FC0131968081282F220F220F61
:10195000220F89859A850396FC0180818295869560
:101960008770820F8C93A0EFB0E089859A850396EB
:10197000FC018081880F880F880F8C93AFEEB0E058
:10198000EFEEF0E0808180618C9328C0A3EFB0E09F
:1019900089859A850396FC0131968081282F2295AE
:1019A000220F207E89859A850396FC018081869589
:1019B00086958695820F8C93A2EFB0E089859A85F3
:1019C0000396FC0180818295880F807E8C93AFEE18
:1019D000B0E0EFEEF0E080818F7E8C938FEF9FEF91
:1019E000AFEFBFEF8D839E83AF83B887A7EFB0E0E3
:1019F000CE010596FC0133968081282F220F220FFD
:101A0000220FCE010596FC01329680818295869543
:101A10008770820F8C93A6EFB0E0CE010596FC0193
:101A200032968081282F220F220F220FCE01059699
:101A3000FC0131968081829586958770820F8C9308
:101A4000A5EFB0E0CE010596FC0131968081982F7C
:101A5000990F990F990FFE01359680818295869591
:101A60008770890F8C93A4EFB0E0FE0135968081DA
:101A7000880F880F880F8C93AFEEB0E0EFEEF0E0A8
:101A80009081E985FA858781892B8C93E985FA8590
:101A900081E08387A4EFB0E0E4EFF0E08081846030
:101AA0008C93A0EFB0E0E0EFF0E0808184608C9355
:101AB000AFEEB0E0EFEEF0E080818F7D8C93A4EF8D
:101AC000B0E0E4EFF0E0808181608C93AFEEB0E0B5
:101AD000EFEEF0E090818FE389238C93AFEEB0E0DE
:101AE000EFEEF0E0808180688C93CEC11B8210C045
:101AF000AAEFB0E0E985FA85208531858B819927A9
:101B0000F901E80FF91F80818C938B818F5F8B83A4
:101B1000E985FA8597818B81891750F31D821E8292
:101B20001F821886A7EFB0E0CE010596FC01339620
:101B30008081282F220F220F220FCE010596FC0153
:101B400032968081829586958770820F8C93A6EF5E
:101B5000B0E0CE010596FC0132968081282F220F3D
:101B6000220F220FCE010596FC01319680818295CD
:101B700086958770820F8C93A5EFB0E0CE01059615
:101B8000FC0131968081982F990F990F990FFE01D2
:101B900035968081829586958770890F8C93A4EF06
:101BA000B0E0FE0135968081880F880F880F8C93F6
:101BB000AFEEB0E0EFEEF0E09081E985FA85878145
:101BC000892B8C93E985FA8581E08387A4EFB0E0C7
:101BD000E4EFF0E0808184608C93A0EFB0E0E0EF70
:101BE000F0E0808184608C93AFEEB0E0EFEEF0E047
:101BF000808180628C93A4EFB0E0E4EFF0E080811C
:101C00008E7F8C93AFEEB0E0EFEEF0E090818FE34B
:101C100089238C93AFEEB0E0EFEEF0E08081806836
:101C20008C9332C1E985FA858485882309F457C0ED
:101C3000A3EFB0E089859A850396FC0133968081F5
:101C4000282F220F220F220F89859A850396FC01E7
:101C500032968081829586958770820F8C93A2EF51
:101C6000B0E089859A850396FC0132968081282F01
:101C7000220F220F220F89859A850396FC01319647
:101C80008081829586958770820F8C93A1EFB0E05A
:101C900089859A850396FC0131968081282F220F31
:101CA000220F220F89859A850396FC0180818295F7
:101CB00086958770820F8C93A0EFB0E089859A8516
:101CC0000396FC018081880F880F880F8C93AFEEFC
:101CD000B0E0EFEEF0E0808180618C9328C0A3EF4C
:101CE000B0E089859A850396FC0131968081282F82
:101CF0002295220F207E89859A850396FC0180819A
:101D0000869586958695820F8C93A2EFB0E08985A3
:101D10009A850396FC0180818295880F807E8C9342
:101D2000AFEEB0E0EFEEF0E080818F7E8C931B820F
:101D300010C0AAEFB0E0E985FA85208531858B8156
:101D40009927F901E80FF91F80818C938B818F5FB0
:101D50008B83E985FA8597818B81891750F38FEF03
:101D60009FEFAFEFBFEF8D839E83AF83B887A7EF61
:101D7000B0E0CE010596FC0133968081282F220F1A
:101D8000220F220FCE010596FC01329680818295AA
:101D900086958770820F8C93A6EFB0E0CE010596F2
:101DA000FC0132968081282F220F220F220FCE01B4
:101DB0000596FC0131968081829586958770820F09
:101DC0008C93A5EFB0E0CE010596FC0131968081A1
:101DD000982F990F990F990FFE0135968081829562
:101DE00086958770890F8C93A4EFB0E0FE0135963D
:101DF0008081880F880F880F8C93AFEEB0E0EFEEF4
:101E0000F0E09081E985FA858781892B8C93E985BB
:101E1000FA8581E08387A4EFB0E0E4EFF0E0808111
:101E200084608C93A0EFB0E0E0EFF0E0808184600C
:101E30008C93AFEEB0E0EFEEF0E0808180628C93A7
:101E4000A4EFB0E0E4EFF0E0808181608C93AFEE2E
:101E5000B0E0EFEEF0E090818FE389238C93AFEE5A
:101E6000B0E0EFEEF0E0808180688C930DC0E985F2
:101E7000FA85128609C0E985FA858FE182878FEF9E
:101E800090E09C878B8702C01C861B868B859C8577
:101E90002E960FB6F894DEBF0FBECDBFDF91CF9167
:101EA0000895CF93DF93CDB7DEB728970FB6F89498
:101EB000DEBF0FBECDBF9C838B83EB81FC8182850F
:101EC0008A838A81882331F08A818F3119F08A814F
:101ED0008F3F29F422E030E038872F83FFC0ADEE3A
:101EE000B0E0EB81FC8180818295807F8C930E94A1
:101EF000FC028A838A81282F33273E832D838D819C
:101F00009E8180329105C9F02D813E8121323105BB
:101F10002CF48D819E81009769F0CAC02D813E818D
:101F20002034310509F4B3C08D819E81803A91053A
:101F300021F0BEC081E08983CCC0EFEEF0E080816B
:101F40008F70EB81FC818783EB81FC81808591859B
:101F50000E944303E0EFF0E0808199278470907045
:101F60009595879595958795EB81FC818387EFEE15
:101F7000F0E080819927807190709595879595956F
:101F800087959595879595958795009709F44CC009
:101F9000EB81FC8181E084878B819C810396DC014D
:101FA0001396E3EFF0E080818695869586958C9375
:101FB0008B819C810396DC011296E2EFF0E0808138
:101FC000982F969596959695E3EFF0E0808182950F
:101FD000880F807E890F8C938B819C810396DC0116
:101FE0001196E1EFF0E08081982F96959695969561
:101FF000E2EFF0E080818295880F807E890F8C93DC
:102000008B819C810396DC01E0EFF0E08081982FCA
:10201000969596959695E1EFF0E080818295880FF0
:10202000807E890F8C9322C0EB81FC8114868B818A
:102030009C810396DC011196E3EFF0E080818295AC
:10204000869587708C938B819C810396DC01E2EFEF
:10205000F0E08081982F929596959770E3EFF0E0ED
:102060008081880F880F880F890F8C93EB81FC810A
:102070008A818287AFEEB0E0EFEEF0E090818FE3EF
:1020800089238C93EEEEF0E01082198222C0EB815E
:10209000FC818A818287AFEEB0E0EFEEF0E09081C4
:1020A0008FE389238C93EEEEF0E01082198211C049
:1020B000EB81FC818A818287AFEEB0E0EFEEF0E049
:1020C00090818FE389238C93EEEEF0E0108282E022
:1020D00089838981282F332738872F838F8198859B
:1020E00028960FB6F894DEBF0FBECDBFDF91CF911B
:1020F0000895CF93DF93CDB7DEB7ADE2B0E0EDE268
:10210000F0E080818F7E8C93ADE2B0E0EDE2F0E014
:1021100090818FE789238C93ADE2B0E0EDE2F0E0AF
:1021200080818F7B8C93ADE2B0E0EDE2F0E08081C6
:102130008F7D8C93ADE2B0E0EDE2F0E080818B7FAB
:102140008C93AEE2B0E0EEE2F0E0808180618C93AF
:10215000AEE2B0E0EEE2F0E0808180688C93AEE227
:10216000B0E0EEE2F0E0808180648C93AEE2B0E01B
:10217000EEE2F0E0808180628C93AEE2B0E0EEE2CD
:10218000F0E0808184608C93DF91CF910895CF93AC
:10219000DF93CDB7DEB722970FB6F894DEBF0FBE40
:1021A000CDBFECE2F0E09081ECE2F0E08081892BA1
:1021B000982FECE2F0E08081892B8095982F84EFB6
:1021C00089238A8319829A818981892B8A838A81CA
:1021D000992722960FB6F894DEBF0FBECDBFDF91D0
:1021E000CF910895CF93DF93CDB7DEB724970FB685
:1021F000F894DEBF0FBECDBFECE2F0E09081ECE2E0
:10220000F0E08081892B982FECE2F0E08081892B2F
:102210008095982F84EF89238A8319829A818981F6
:10222000892B8A838A81282F33273C832B838B81B8
:102230009C818434910509F487C02B813C8125342D
:10224000310584F58B819C818032910509F45EC053
:102250002B813C81213231059CF48B819C81803122
:10226000910509F44AC02B813C812431310509F4E0
:1022700065C08B819C818430910509F44AC069C096
:102280002B813C812033310509F44CC08B819C812A
:1022900080349105C1F12B813C812432310509F450
:1022A00056C057C08B819C818438910509F449C080
:1022B0002B813C812538310584F48B819C818036CB
:1022C0009105C9F12B813C8120383105C9F08B8102
:1022D0009C818035910501F13CC02B813C81203AE5
:1022E000310519F18B819C81803C9105C1F02B81D6
:1022F0003C8120393105E1F02CC081E08A8329C07E
:1023000082E08A8326C083E08A8323C084E08A83B4
:1023100020C085E08A831DC086E08A831AC087E0DA
:102320008A8317C088E08A8314C089E08A8311C039
:102330008AE08A830EC08BE08A830BC08CE08A839C
:1023400008C08DE08A8305C08EE08A8302C08FE0DA
:102350008A838A81992724960FB6F894DEBF0FBE30
:10236000CDBFDF91CF910895CF93DF93CDB7DEB787
:10237000E1E2F0E08FEF8083E2E2F0E01082DF91B3
:10238000CF910895CF93DF93CDB7DEB721970FB6E6
:10239000F894DEBF0FBECDBF8983E2E2F0E0898111
:1023A000808321960FB6F894DEBF0FBECDBFDF91BC
:1023B000CF910895CF93DF93CDB7DEB7A2E2B0E01F
:1023C000E0E2F0E08081992782959295907F9827AE
:1023D000807F9827982FE0E2F0E0808182958F70CF
:1023E000892B8C93DF91CF910895CF93DF93CDB755
:1023F000DEB7E0E2F0E08FEF8083DF91CF910895C8
:10240000CF93DF93CDB7DEB723970FB6F894DEBF37
:102410000FBECDBF8A836B8319828A81883080F595
:102420008B818823B1F481E08983A2E2B0E0E2E20B
:10243000F0E08081482F8A81282F332781E090E0C7
:10244000022E02C0880F991F0A94E2F78095842318
:102450008C938B818130A1F481E08983A2E2B0E08A
:10246000E2E2F0E08081482F8A81282F332781E043
:1024700090E002C0880F991F2A95E2F7842B8C9375
:102480008981992723960FB6F894DEBF0FBECDBF82
:10249000DF91CF910895CF93DF93CDB7DEB72A9721
:1024A0000FB6F894DEBF0FBECDBF9A8789878091A3
:1024B0000001813009F045C0F89480919502909117
:1024C0009602A0919702B09198028D839E83AF836C
:1024D000B887789489859A859C01442755278D81F2
:1024E0009E81AF81B885820F931FA41FB51F8D8376
:1024F0009E83AF83B887F89420919502309196021D
:1025000040919702509198028D819E81AF81B8854C
:10251000281739074A075B0799F189859A859C0135
:10252000442755278091950290919602A091970299
:10253000B0919802281739074A075B0709F1789488
:10254000DACF1C821B8215C01A820BC0198203C00D
:1025500089818F5F898389818A35D0F38A818F5FF2
:102560008A838A81883090F38B819C8101969C8339
:102570008B832B813C8189859A852817390720F325
:102580002A960FB6F894DEBF0FBECDBFDF91CF9174
:102590000895CF93DF93CDB7DEB722970FB6F894A7
:1025A000DEBF0FBECDBFF894E0EBF0E01082E2EBAF
:1025B000F0E01082E3EBF0E010821A82198205C08D
:1025C00089819A8101969A83898389819A812FEFE3
:1025D0008F3F9207A9F7A0E7B0E0E0E7F0E0808145
:1025E0008E7F8C93A0E7B0E0E0E7F0E080818D7F04
:1025F0008C93A0EBB0E0E0EBF0E080818F7C8C93DB
:10260000A0EBB0E0E0EBF0E08081877B88608C930A
:10261000A6EBB0E0E6EBF0E080818F7E88608C93E3
:10262000E3EBF0E080E28083A0EBB0E0E0EBF0E0F1
:102630008081887F81608C93E6EBF0E08081992730
:10264000877090700097C1F7A7E3B0E0E7E3F0E090
:10265000808182608C93A0E7B0E0E0E7F0E08081C9
:1026600082608C93109295021092960210929702BB
:1026700010929802109294021092930210929A0271
:1026800010929102109299021092920281E080932E
:102690000001789422960FB6F894DEBF0FBECDBF2E
:1026A000DF91CF9108951F920F920FB60F921124D0
:1026B0002F938F939F93AF93BF93CF93DF93CDB718
:1026C000DEB78091950290919602A0919702B09109
:1026D00098020196A11DB11D8093950290939602D8
:1026E000A0939702B09398028091930290919402E4
:1026F000019690939402809393028091930290911B
:10270000940223E0883E920751F5109294021092B1
:10271000930280919A028F5F80939A0280919A022D
:102720008C33E9F410929A02809191028F5F80932A
:102730009102809191028C3391F4109291028091D8
:1027400099028F5F8093990280919902883139F4C0
:1027500010929902809192028F5F80939202DF9192
:10276000CF91BF91AF919F918F912F910F900FBEFD
:062770000F901F90189568
:00000001FF
