:100000000C944A000C9467000C9467000C946700F1
:100010000C9467000C9467000C9467000C946700C4
:100020000C9467000C9467000C9467000C946700B4
:100030000C9467000C9467000C9467000C946700A4
:100040000C9467000C9467000C9467000C94670094
:100050000C9467000C9467000C9467000C94670084
:100060000C9467000C9467000C9467000C94670074
:100070000C9467000C9467000C9467000C94670064
:100080000C9467000C9467000C9467000C94670054
:100090000C94670011241FBECFEFD0E1DEBFCDBFAF
:1000A00011E0A0E0B1E0E2E9F5E000E00BBF02C042
:1000B00007900D92A030B107D9F711E0A0E0B1E0B0
:1000C00001C01D92A030B107E1F70C9469000C94B7
:1000D0000000CF93DF93CDB7DEB7C850D1400FB645
:1000E000F894DEBF0FBECDBFE1E2F0E08FEF80837A
:1000F000E2E2F0E0108280E090E09C01CE01049604
:1001000045E050E0BC01C9010E9434020E949D02FA
:10011000288580E090E0622F0E940D022F8181E00F
:1001200090E0622F0E940D022D8183E090E0622F0B
:100130000E940D022C8184E090E0622F0E940D024B
:100140002E8182E090E0622F0E940D02EEE5F0E049
:10015000208185E090E0622F0E940D02EDE5F0E045
:10016000208186E090E0622F0E940D02E2E2F0E042
:1001700081E080831A82198210C029813A818981A5
:10018000482F4095CE010996FC01E20FF31F4083F2
:1001900089819A8101969A83898389819A818F3F87
:1001A000910559F350F31A82198212C089819A81FC
:1001B000982F88279E01275F3F4F40E051E0BC0108
:1001C000C9010E94680289819A8101969A83898374
:1001D00089819A818031910548F31A8219821BC066
:1001E00089819A810E94E6018B838981282F332798
:1001F000CE010996FC01E20FF31F90818B819817C5
:1002000029F0E2E2F0E081EF8083FFCF89819A81DB
:1002100001969A83898389819A8120E180309207AF
:10022000F8F2E2E2F0E082E080831A8219820EC0E6
:1002300029813A814981CE010996FC01E20FF31F21
:10024000408389819A8101969A83898389819A81E1
:100250008F3F910569F360F31A82198212C0898178
:100260009A81982F88279E01275F3F4F40E051E0F9
:10027000BC01C9010E94680289819A8101969A8312
:10028000898389819A818031910548F31A82198284
:100290001BC089819A810E94E6018B838981282F66
:1002A0003327CE010996FC01E20FF31F90818B8169
:1002B000981729F0E2E2F0E082EF8083FFCF898196
:1002C0009A8101969A83898389819A8120E180307D
:1002D0009207F8F2E2E2F0E083E080830E949D0260
:1002E0001A82198210C089819A810E94E6018F3F8B
:1002F00029F0E2E2F0E083EF8083FFCF89819A81E9
:1003000001969A83898389819A8120E180309207BE
:1003100050F381E08B831A82198212C08981282FC1
:100320003327CE010996FC01E20FF31F8B818083F6
:100330008B81880F8B8389819A8101969A83898327
:1003400089819A818830910548F380E88B8388E021
:1003500090E09A83898312C08981282F3327CE01A8
:100360000996FC01E20FF31F8B8180838B818695B8
:100370008B8389819A8101969A83898389819A8165
:100380008031910548F31B821DC0A2E2B0E08B8151
:10039000282F3327CE010996FC01E20FF31F80813D
:1003A0008C931A82198205C089819A8101969A8359
:1003B000898389819A8125E180309207A8F38B8116
:1003C0008F5F8B838B81803100F3DDCFCF93DF9301
:1003D000CDB7DEB723970FB6F894DEBF0FBECDBF03
:1003E0009B838A83EFE3F0E080819927827090708D
:1003F0000097C1F78A819B81FC01E1BDF2BDF89AAB
:1004000080B589838981992723960FB6F894DEBF3A
:100410000FBECDBFDF91CF910895CF93DF93CDB7BE
:10042000DEB723970FB6F894DEBF0FBECDBF9A8319
:1004300089836B83EFE3F0E080819927827090706D
:100440000097C1F789819A812B81FC01E1BDF2BD42
:1004500020BDFA9AF99A23960FB6F894DEBF0FBE24
:10046000CDBFDF91CF910895CF93DF93CDB7DEB7A6
:1004700026970FB6F894DEBF0FBECDBF9A8389834F
:100480007C836B835E834D8316C089819A810E9431
:10049000E601EB81FC81808389819A8101969A83B0
:1004A00089838B819C8101969C838B838D819E8126
:1004B00001979E838D838D819E81009731F72696CB
:1004C0000FB6F894DEBF0FBECDBFDF91CF91089578
:1004D000CF93DF93CDB7DEB726970FB6F894DEBF84
:1004E0000FBECDBF9A8389837C836B835E834D83EC
:1004F00017C0E981FA8120818B819C81622F0E9443
:100500000D0289819A8101969A8389838B819C81CE
:1005100001969C838B838D819E8101979E838D8321
:100520008D819E81009729F726960FB6F894DEBF3D
:100530000FBECDBFDF91CF910895CF93DF93CDB79D
:10054000DEB722970FB6F894DEBF0FBECDBF1A827A
:10055000198210C089819A810E94E6018F3F29F09B
:1005600089819A816FEF0E940D0289819A8101969B
:100570009A83898389819A8120E18030920750F3A0
:1005800022960FB6F894DEBF0FBECDBFDF91CF919C
:020590000895CC
:00000001FF
