:020000021000EC
:10E000000C944EF00C946BF00C946BF00C946BF041
:10E010000C946BF00C946BF00C946BF00C946BF014
:10E020000C946BF00C946BF00C946BF00C946BF004
:10E030000C946BF00C946BF00C946BF00C946BF0F4
:10E040000C946BF00C946BF00C946BF00C946BF0E4
:10E050000C946BF00C946BF00C946BF00C946BF0D4
:10E060000C946BF00C946BF00C946BF00C946BF0C4
:10E070000C946BF00C946BF00C946BF00C946BF0B4
:10E080000C946BF00C946BF00C946BF00C946BF0A4
:10E090000C946BF0000000000000000011241FBE73
:10E0A000CFEFD0E1DEBFCDBF11E0A0E0B1E0E8EB03
:10E0B000F5EE01E00BBF02C007900D92A831B10749
:10E0C000D9F711E0A8E1B1E001C01D92A831B10774
:10E0D000E1F70C946DF00C9400F0FF920F931F93F6
:10E0E000CF93DF93CDB7DEB768970FB6F894DEBF56
:10E0F0000FBECDBFDE015196E0E1F1E088E0019076
:10E100000D928150E1F7DE011196E8E0F1E088E040
:10E1100001900D928150E1F7DE011996E0E0F1E007
:10E1200088E001900D928150E1F78FEF81B911E005
:10E130001BBF47E050E064E970EECE0109960E94F3
:10E1400000F21BBE47E050E061E170E0CE01419675
:10E150000E9400F282E190E00E9477F182B983E1AF
:10E1600090E00E9477F182B984E190E00E9477F11B
:10E1700082B985E190E00E9477F182B986E190E072
:10E180000E9477F182B987E190E00E9477F182B92D
:10E190001BBE47E050E061E270E0CE0101960E94B4
:10E1A00000F282E290E00E9477F182B983E290E08F
:10E1B0000E9477F182B984E290E00E9477F182B9FF
:10E1C00085E290E00E9477F182B986E290E00E94B9
:10E1D00077F182B987E290E00E9477F182B91BBFA4
:10E1E00085E990EE0E9477F182B986E990EE0E946F
:10E1F00077F182B987E990EE0E9477F182B988E9D8
:10E2000090EE0E9477F182B989E990EE0E9477F151
:10E2100082B98AE990EE0E9477F182B912B81BBEEA
:10E220000E94D8F100E010E00AC0C8010E94A5F1E8
:10E23000F82E82B90F5F1F4F0136110519F0FF202C
:10E24000A1F301C08111FFCF81E0FE0171969E0113
:10E25000275E3F4F8193880FE217F307D9F788E0D5
:10E26000FE0131969E01275F3F4F81938695E2170D
:10E27000F307D9F7DE015196AE01475E5F4F8D91EE
:10E2800082B9A417B507D9F7FE013196DE01519680
:10E290009E01275F3F4F819182B9E217F30779F31F
:10E2A000FACF0F930B01FC0101E007BFE8951124A1
:10E2B00007B600FCFDCF0F9108950F9307B600FC41
:10E2C000FDCFFC0105E007BFE89507B600FCFDCFD8
:10E2D0000F9108950F9307B600FCFDCFFC0103E0FA
:10E2E00007BFE89507B600FCFDCF0F9108952BB747
:10E2F000332744275527A90133272227AA27BB27DD
:10E30000282B392B4A2B5B2B4BBFF32FE22FD895B1
:10E31000202D822F992708952BB73327442755277F
:10E32000A90133272227AA27BB27282B392B4A2BC1
:10E330005B2B4BBFF32FE22FD895802D0BB6319678
:10E34000011C0BBED895902D0895CF93DF93BC018F
:10E350006070C0E0D0E08BB79927AA27BB27DC010B
:10E36000992788279B0144275527822B932BA42B81
:10E37000B52BABBFF92FE82FD895802D0BB6319672
:10E38000011C0BBED895902D8F5F9F4F19F080E038
:10E3900090E108C06E5F7F4F2196C038D105D9F655
:10E3A00080E090E07070862B972BDF91CF910895DD
:10E3B000DF92EF92FF920F931F93DBB6EE24FF24C0
:10E3C0008701C801AA27BB278BBFC7010E946AF13A
:10E3D00080E091E0A0E0B0E0E80EF91E0A1F1B1FEC
:10E3E00090E0E91690EEF90691E0090790E0190730
:10E3F00041F7DBBE1F910F91FF90EF90DF900895E2
:10E400003F924F925F926F927F928F929F92AF92C4
:10E41000BF92CF92DF92EF92FF920F931F93CF9311
:10E42000DF934C012B01EA013FB6F8948B01007099
:10E4300082C082E090E0E80EF91E209709F446C001
:10E44000E414F50440F0F40181914F01C82EDD245D
:10E450002197C9F422C08BB79927AA27BB27DC01D3
:10E4600099278827970144275527822B932BA42B84
:10E47000B52BABBFF92FE82FD895802DC82EDD2402
:10E48000A414B50451F4F40181914F019927782F18
:10E4900066276C297D29219732C08BB79927AA2737
:10E4A000BB27DC0199278827950144275527822B14
:10E4B000932BA42BB52BABBFF92FE82FD895802D2C
:10E4C0009927782F66276C297D2919C08BB7992742
:10E4D000AA27BB27DC0199278827970144275527BE
:10E4E000822B932BA42BB52BABBFF92FE82FD895FC
:10E4F000602D0BB63196011C0BBED895702DC7014F
:10E500000E9451F10894611C711C82E090E0A80EF9
:10E51000B91E90E86916710409F08BCFC8010E94FA
:10E52000A5F1892B19F0C8010E946AF1C8010E9467
:10E530005DF100501F4F209741F058010894A11C35
:10E54000B11C78016624772478CF002401E107BF4D
:10E55000E89507B600FCFDCF37FE01C07894DF9147
:10E56000CF911F910F91FF90EF90DF90CF90BF90D0
:10E57000AF909F908F907F906F905F904F903F9063
:10E580000895CF93DF93CDB7DEB721970FB6F894F8
:10E59000DEBF0FBECDBF698341E050E0BC01CE01BC
:10E5A00001960E9400F221960FB6F894DEBF0FBECE
:08E5B000CDBFDF91CF9108956A
:10E5B80000112233445566770010203040506070B7
:08E5C80000010203040506072F
:040000031000E00009
:00000001FF
