:100000000C944A000C9467000C9467000C946700F1
:100010000C9467000C9467000C9467000C946700C4
:100020000C9467000C9480100C9467000C9467008B
:100030000C9467000C9467000C9467000C946700A4
:100040000C9467000C9467000C9467000C94670094
:100050000C9467000C9467000C9467000C94670084
:100060000C9467000C9467000C9467000C94670074
:100070000C9467000C9467000C9467000C94670064
:100080000C9467000C9467000C9467000C94670054
:100090000C94670011241FBECFEFD0E1DEBFCDBFAF
:1000A00015E0A0E0B1E0E8EBF3E200E00BBF02C036
:1000B00007900D92A837B107D9F715E0A8E7B5E08A
:1000C00001C01D92A538B107E1F70C9416020C94FB
:1000D0000000CF92DF92EF92FF920F931F93CF9386
:1000E000DF937B01FB019485C82FDD27992309F459
:1000F00046C0109279052091F8004091F90087815F
:1001000099279F938F9383819481A581B681BF9313
:10011000AF939F938F9333273F932F9355275F93ED
:100120004F93DF93CF9380E091E09F938F930E9452
:10013000A00581E0809379052091F8004091F900B5
:10014000F701878199279F938F9383819481A5815C
:10015000B681BF93AF939F938F9333273F932F9392
:1001600055275F934F93DF93CF938DE291E09F9359
:100170008F930E94A0058DB79EB74C963EC01092FB
:1001800079052091F8004091F900FB0187819927BA
:100190009F938F93838194819F938F9333273F9372
:1001A0002F9355275F934F93DF93CF938AE591E089
:1001B0009F938F930E94A00581E080937905209101
:1001C000F8004091F900F701878199279F938F9359
:1001D000838194819F938F9333273F932F93552748
:1001E0005F934F93DF93CF938BE891E09F938F932F
:1001F0000E94A0058DB79EB748960FB6F8949EBF93
:100200000FBE8DBFF7018385882319F4CC24DD242C
:100210003DC0109279050CEB11E01F930F930E94E3
:10022000A00581E0809379051F930F930E94A0059C
:100230000F900F900F900F905EC010927905F7010C
:10024000A085B185AC0FBD1F8C9199279F938F938B
:1002500005EC11E01F930F930E94A00581E08093AD
:100260007905F70180859185C80FD91F8881992765
:100270009F938F931F930F930E94A0058DB79EB7F6
:1002800008960FB6F8949EBF0FBE8DBF8C2D0894B4
:10029000C11CD11CC82FDD27F70187819927019741
:1002A000C817D90754F210927905A085B185AC0F13
:1002B000BD1F8C9199279F938F930BEC11E01F9397
:1002C0000F930E94A00581E080937905F701808556
:1002D0009185C80FD91F888199279F938F931F936A
:1002E0000F930E94A0058DB79EB708960FB6F8949D
:1002F0009EBF0FBE8DBFDF91CF911F910F91FF90D9
:10030000EF90DF90CF900895EF92FF920F931F939D
:10031000CF93DF93CDB7DEB7A2970FB6F894DEBFC9
:100320000FBECDBFDE011196EDE6F2E082E2019054
:100330000D928150E1F71092790582ED91E09F9343
:100340008F930E94A00581E08093790580EF91E072
:100350009F938F930E94A005FF240F900F900F9002
:100360000F9088EE93E00E94F30F109279050EE053
:1003700012E01F930F930E94A00581E0E82EE09207
:1003800079051F930F930E94A005F3940F900F908F
:100390000F900F9086E0F81621F788EE93E00E9408
:1003A000F30F1092790580E192E09F938F930E9462
:1003B000A005E092790583E392E09F938F930E94DA
:1003C000A005109279058E010F5F1F4F1F930F93A9
:1003D00087E592E09F938F930E94A005E0927905B4
:1003E0001F930F9382E692E09F938F930E94A00544
:1003F0008DB79EB70C960FB6F8949EBF0FBE8DBFFB
:10040000109279050E944905882321F00E94720507
:100410000E94570581E0809379050E944905882351
:1004200079F30E9472050E945705EACF5F926F929E
:100430007F928F929F92AF92BF92CF92DF92EF9274
:10044000FF920F931F93CF93DF93CDB7DEB7C656BE
:10045000D0400FB6F894DEBF0FBECDBFDE0156967A
:10046000EEE4F3E085E201900D928150E1F7DE01C8
:10047000DB96E3E7F3E08CE201900D928150E1F727
:1004800080E880936100109261008FEF81B95698E7
:1004900055985E9A5D9A0E9414110E941F11582E61
:1004A0000E94E11080E00E94E5101092790540E082
:1004B00056E960E070E083E00E94DE078FE892E09A
:1004C0009F938F930E94A0056FE9A62E63E0B62E3E
:1004D000BF92AF9251EC852E52E0952E9F928F9253
:1004E0000E94A0058DB79EB706960FB6F8949EBFE2
:1004F0000FBE8DBF44ECE42E42E0F42E30EDC32E4F
:1005000032E0D32E26EF622E22E0722E552021F407
:100510008E01055C1F4F03C08E010A5E1F4F1F93A3
:100520000F93FF92EF920E94A005DF92CF920E945C
:10053000A00581E08093790540E056E960E070E035
:1005400083E00E94DE077F926F920E94A005BF9217
:10055000AF929F928F920E94A0051F930F93FF92DC
:10056000EF920E94A0058DB79EB740960FB6F89403
:100570009EBF0FBE8DBF88E293E09F938F930E9432
:10058000A0050F900F904E99FECF81E08093D80088
:1005900080E00E94E20F8091E2008093E500CC248D
:1005A000DD2403C00894C11CD11CFC2CFE01319633
:1005B000CE0109961192E817F907E1F7CE010196ED
:1005C0009A8B898B84E090E09B878A87CE0109967D
:1005D0000E94ED0A8823D1F78E01075F1F4FC801E3
:1005E0000E94580A8130C1F3823009F442C08F2D35
:1005F0000E94E510B80182E50E9469002C853D85C6
:100600004E855F85211531054105510591F18C8598
:100610009D85892B71F1552029F68091F9008F83F2
:100620008091F80088872F5F3F4F4F4F5F4F2C8797
:100630003D874E875F8788E0888B82E090E09B87CC
:100640008A87CE0109960E94ED0A8823D1F799E0A6
:10065000E92EF12CEC0EFD1EC7010E94580A082F4E
:100660008130A9F3B70184E50E946900023009F0E6
:1006700099CF0E94840180E090E0CA59DF4F0FB605
:10068000F894DEBF0FBECDBFDF91CF911F910F91C8
:10069000FF90EF90DF90CF90BF90AF909F908F90A2
:1006A0007F906F905F90089580917905882339F449
:1006B0008CB19CB12CB189238170282311C0813069
:1006C00011F020E00DC089B129B139B18223832313
:1006D0009927847090709595879595958795282F83
:1006E000822F9927089580917905882319F48CB178
:1006F00081700CC0813011F080E008C089B1992769
:10070000847090709595879595958795992708950C
:100710008F929F92AF92BF92CF92DF92EF92FF9211
:100720000F931F93CF93DF939B01AC01611571056C
:1007300081059105B1F0A3E0220F331F441F551F1F
:10074000AA95D1F760E074E284EF90E00E949F11D7
:100750002F5F3F4F4F4F5F4F5695479537952795E2
:1007600067C180917905882339F46898709A8EB1B1
:100770006998719A8EB106C052985A9A8BB1539863
:100780005B9A8BB180917A058130D9F41092810007
:1007900010928000109282001092850010928400C6
:1007A000109289001092880010928B0010928A009B
:1007B00010928D0010928C0010928700109286008B
:1007C0001AC0109291001092900010929200109214
:1007D0009500109294001092990010929800109237
:1007E0009B0010929A0010929D0010929C00109213
:1007F0009700109296000E9454038823E1F30E9410
:1008000073038823E1F780917A05813049F4809160
:100810008100887F8160809381008091810008C081
:1008200080919100887F81608093910080919100F8
:100830000E9454038823E1F30E9473038823E1F7A5
:1008400080917A05813039F480918400282F3327F4
:100850008091850006C080919400282F33278091D5
:1008600095009927982F8827E901C82BD92B0E943A
:1008700054038823E1F30E9473038823E1F78091F6
:100880007A05813039F480918400882E99248091F2
:10089000850006C080919400882E9924809195004F
:1008A0009927B82EAA240E9454038823E1F30E94BA
:1008B00073038823E1F780917A05813039F48091C0
:1008C0008400C82EDD248091850006C080919400AC
:1008D000C82EDD24809195009927F82EEE240E94E1
:1008E00054038823E1F30E9473038823E1F7809186
:1008F0007A05813039F480918400282F3327809144
:10090000850006C080919400282F332780919500A0
:100910009927982F88278901082B192B0E94730388
:100920008823E1F380917A05813099F480918400E5
:10093000282F3327809185009927982F8827282BE7
:10094000392B80918100887F809381008091810084
:1009500012C080919400282F332780919500992709
:10096000982F8827282B392B80919100887F80939E
:1009700091008091910080917905882339F46898DD
:1009800070988EB1699871988EB106C052985A9835
:100990008BB153985B988BB1C901801B910B9C0163
:1009A000220F331F9695879596958795F901E80F45
:1009B000F91FEC17FD0708F45DC0B901681B790B3E
:1009C000C617D70708F456C094012A293B29A90164
:1009D0004C1B5D0BE417F50708F44CC0461757078E
:1009E00008F448C0C6018E299F29DC01A21BB30B65
:1009F0009D01EA17FB07F0F1A617B707D8F1081B0E
:100A0000190BE017F107B0F10617170798F12C0F33
:100A10003D1F400F511F240F351F220F331F76E05B
:100A2000369527957A95E1F72F5F3F4F36952795B5
:100A30002150304080917905882361F4832F9927D4
:100A40008093C5002093C4008091C0008260809391
:100A5000C0000DC0813059F4832F99278093CD00B9
:100A60002093CC008091C80082608093C80081E010
:100A700090E002C080E090E0DF91CF911F910F9154
:100A8000FF90EF90DF90CF90BF90AF909F908F90AE
:100A9000089580917905882319F48091C00002C0DF
:100AA0008091C800881F8827881F99270895982F4C
:100AB00020917905222329F48091C00085FD06C08C
:100AC000F9CF8091C80085FFF5CF05C09093C6008F
:100AD0008091C60004C09093CE008091CE00892FF3
:100AE0009927089520917905222359F48091C00017
:100AF0009927880F892F881F990B9195892B61F46D
:100B0000F3CF8091C8009927880F892F881F990BF0
:100B10009195892B49F303C08091C60002C0809152
:100B2000CE0099270895CF93DF93EC0103C021965F
:100B30000E94570588818823D1F7DF91CF910895CE
:100B40003F924F925F926F927F928F929F92AF925D
:100B5000BF92CF92DF92EF92FF920F931F93CF93AA
:100B6000DF93CDB7DEB72E970FB6F894DEBF0FBE7A
:100B7000CDBFFE01B29681919191FA83E9834C0138
:100B80004BE0342E30E090E0FAC1853211F0913024
:100B900011F50894811C911CF4018081843609F4BC
:100BA00052C0853648F4883509F42AC18336B1F03D
:100BB000803309F0D4C198C18337F1F0843720F431
:100BC0008C3609F0CCC131C0853709F4B6C08837FE
:100BD00009F0C5C115C10E945705CCC1313029F4B7
:100BE0008CE60E94570583E6C1C1E981FA813296FD
:100BF000FA83E9833297B9C1313029F48CE60E9437
:100C0000570583E7B3C1E981FA813296FA83E98314
:100C1000F290E29005C00E9457050894E11CF11C77
:100C2000F70180818823B9F7A3C1313019F031E091
:100C300091E005C08CE60E94570530E090E00894F2
:100C40008108910899C1FE01339620E3CE010E96EA
:100C50002193E817F907E1F71E86A980BA803323AC
:100C6000D9F1F501C080D180E280F380F7FC02C0A9
:100C700066240AC0F094E094D094C094C11CD11CA6
:100C8000E11CF11C31E0632E2AE0722E93E0492E24
:100C9000512C4C0E5D1E8201070D111DC701B601BE
:100CA0002AE030E040E050E00E94C111605DF801B0
:100CB0006083C701B6012AE030E040E050E00E94C6
:100CC000C11169017A017A94211531054105510557
:100CD00011F784E090E026C0F5012081318137FDD5
:100CE00002C0662405C0309521953F4F81E0682EF3
:100CF0000AE0702E8E010D5F1F4FF801E70DF11D08
:100D0000C9016AE070E00E948C11805D8083C90196
:100D10006AE070E00E948C119B017A94672B69F75E
:100D200082E090E0A80EB91EBA82A982662009F47A
:100D300060C08DE20E9457055CC0FE01339620E33F
:100D4000CE010E962193E817F907E1F71E86A980D8
:100D5000BA80332369F1F501C080D180E280F3804D
:100D60001AE0712EB3E04B2E512C4C0E5D1E820109
:100D7000070D111DC701B6012AE030E040E050E048
:100D80000E949F11605DF8016083C701B6012AE0EF
:100D900030E040E050E00E949F1169017A017A94AE
:100DA000211531054105510511F784E090E01DC082
:100DB000F50120813181AAE07A2E8E010D5F1F4F4F
:100DC000F801E70DF11DC9016AE070E00E94781199
:100DD000805D80837A94C9016AE070E00E94781196
:100DE0009B01672B69F782E090E0A80EB91EBA82DA
:100DF000A982872D8F5F232D831508F06EC06CC0EC
:100E0000FE01339620E3CE010E962193E817F907F1
:100E1000E1F71E86A980BA80332389F1E4E0F0E08F
:100E2000AE0EBF1EBA82A982F50152914291329153
:100E300022916AE0DE0113961CC0922F9F709A30B7
:100E400018F4892F805D09C0F4018081883711F47E
:100E500081E601C081E4890F8A50FD01E60FF11D92
:100E60008083F4E05695479537952795FA95D1F705
:100E700061502115310541055105F9F62BC082E07D
:100E800090E0A80EB91EBA82A982F5013291229192
:100E90006AE0AE014D5F5F4F1AC0922F9F709A308B
:100EA00018F4892F805D09C0F4018081883711F41E
:100EB00081E601C081E4890F8A50FA01E60FF11D35
:100EC0008083E4E036952795EA95E1F76150211596
:100ED000310519F7862F8ECF282FCE010396820F6A
:100EE000911D0E94930544C0313029F48CE60E9484
:100EF000570580E33BC00894811C911CF40190814C
:100F0000892F80538A3048F5392F3F70A4014F5FF5
:100F10005F4F9181892F80538A3030F43295307F32
:100F20009F70392B4F5F5F4F832F82958F702AE020
:100F3000829FC0011124232F2F70280F2C3008F01E
:100F40002BE07BE0372E321A6EEF862E6FEF962E57
:100F5000840E951E30E091E00FC080E303C0313075
:100F600019F48CE60E945705F40180810E94570510
:100F70005BE0352E30E090E00894811C911CF40178
:100F80008081882309F001CE80E090E02E960FB694
:100F9000F894DEBF0FBECDBFDF91CF911F910F91AF
:100FA000FF90EF90DF90CF90BF90AF909F908F9089
:100FB0007F906F905F904F903F9008951F93182FF0
:100FC00080917905882389F41092C1008091C60030
:100FD0008093C20080E48093C00086E08093C200CA
:100FE0001092C5001092C40010C01092C9008091E8
:100FF000CE008093CA0080E48093C80086E080938E
:10100000CA001092CD001092CC00CB01BA010E9410
:101010008803882319F480E090E053C0809179051B
:10102000912F9470412F4873212F3327882321F566
:101030008091C00080628093C0008091C1008B7F4E
:101040008093C1008091C100892B8093C10040939F
:10105000C2008091C20023703070220F331F822B98
:101060008093C2008091C2008091C100886180930A
:10107000C1008091C10023C08091C800806280932C
:10108000C8008091C9008B7F8093C9008091C900FE
:10109000892B8093C9004093CA008091CA002370B5
:1010A0003070220F331F822B8093CA008091CA00B8
:1010B0008091C90088618093C9008091C90081E056
:1010C00090E01F91089520E030E0822F8295807F8C
:1010D0008093ED00EEEEF0E01192E83FF105E1F7CC
:1010E0002F5F3F4F2F30310581F708954091ED007C
:1010F00020E030E0822F8295807F8093ED00809108
:10110000EF00807C29F44093ED00822F9927089509
:101110002F5F3F4F2F30310569F74093ED008FEF80
:1011200090E008958091EF00807C19F48FEF90E0BB
:1011300008959091EE00892F807E803221F08034D6
:1011400011F0803A11F499270895892F8F7119F4BD
:1011500080E090E0089599270895BC0140E050E0B8
:1011600005C0E60FF71F8091FA008083242F80913D
:10117000EF004F5F5F4FE22FFF2799278F7090702E
:10118000E817F90774F30895AF92BF92CF92DF92F8
:10119000EF92FF920F931F93CF93DF93CDB7DEB7FC
:1011A00021970FB6F894DEBF0FBECDBF882359F448
:1011B00071E0E72E63E018E0A2E0B2E070E051E0F9
:1011C00040E001E056C08091E2008E7719F461E0C2
:1011D000E62E09C08091E20099278E779070959550
:1011E0008795E82EE3948091E3008E7011F461E01E
:1011F00009C08091E30099278E709070959587952E
:10120000682F6F5F8091E4008E70833010F4A2E04D
:1012100009C08091E40099278E709070959587950C
:10122000A82FAF5F8091E4008077813110F4B2E0A5
:101230000CC08091E40099278077907024E0959508
:1012400087952A95E1F7B82FBF5F2B2F2A0F312DF5
:10125000311DC901860F911D089714F418E005C0CF
:101260001B2F1A0F6F5F160F615071E050E041E0C5
:1012700000E020E030E0822F8295807F8093ED00B7
:10128000EEEEF0E01192E83FF105E1F72F5F3F4FFE
:101290002F30310581F7FF24AA24BB24DD24CE2C76
:1012A000CC0C3EEFC30E013019F081E0898381C080
:1012B0000093D8000894A11CB11CC092E2002B2F0F
:1012C000269533272150304085E0220F331F8A9521
:1012D000E1F7862F99270197880F991F282B2093D4
:1012E000E3002A2F332721503040220F331F8B2F4A
:1012F0009927019734E0880F991F3A95E1F78160AB
:10130000822B8093E400C50123E0969587952A956A
:10131000E1F78093E5001092ED001092EE0080E876
:101320008093EF008AE08093D8008091D90082FFFB
:10133000FCCF8FEF8093DA00FF24B7CF8091EE00CF
:10134000992785FF11C08091EF008F738093EF0084
:101350001092D8008091D90082FDFCCF198250E014
:1013600040E081E0D82E7EC08F719070892B11F003
:1013700050E041E08091DA00282F332725FF11C08B
:10138000FF2041F48091DA0080628093DA00F1E07E
:10139000FF2E07C08091DA0080628093DA0050E06F
:1013A00041E02F703070232B21F050E041E001E04C
:1013B00059C0513019F256C07111AF5FA930F0F029
:1013C000B830F0F0193111F01F5F07C0E0E4EE16FD
:1013D00041F0E394F2E0CF0E18E0A2E0B2E070E05A
:1013E000EBCF8091EF008F738093EF001092D800C5
:1013F0008091D90082FDFCCFDD243BC0A63050F0A7
:101400002A2F33278B2F99270196821793071CF4D5
:10141000AB2FAF5FBA2F8A2F8B0F612F681B6150E4
:10142000862F81508830E0F44B2F55272A2F332701
:101430002F5F3F4F260F311DCA01880F991F880F5C
:10144000991F8217930764F0CA01880F991F480FEC
:10145000591F2417350724F071E051E040E005C022
:1014600071E0AACF413009F4A7CF2981213009F4D6
:101470001ACF8D2D992721960FB6F894DEBF0FBE97
:10148000CDBFDF91CF911F910F91FF90EF90DF9033
:10149000CF90BF90AF90089581E08093D8001092D4
:1014A000E2001092E3001092E40081E090E00895E1
:1014B0001F93CF93DF93EC018A85882309F487C0BB
:1014C0008F3109F484C08F3F09F481C088818295EF
:1014D000807F8093ED000E949208182F803271F077
:1014E000813218F4882341F067C0803409F45AC06F
:1014F000803A09F061C002C081E067C08091EF00CE
:101500008F708F83888599850E94AD088091F00047
:1015100099278470907095958795959587958B8779
:101520008091EF0084FF2BC081E08C878091F300D5
:101530008695869586958E839091F2008091F30032
:101540009695969596958295880F807E980F9D83A7
:101550009091F1008091F2009695969596958295DE
:10156000880F807E980F9C839091F0008091F1000D
:101570009695969596958295880F807E11C01C86CB
:101580008091F3008295869587708C839091F2000C
:101590008091F300929596959770880F880F880F29
:1015A000980F9B831A878091EF008F738093EF00D1
:1015B0001092EE0080E009C01A878091EF008F73CF
:1015C0008093EF001092EE0082E0992702C082E043
:1015D00090E0DF91CF911F9108950F931F93CF93C8
:1015E000DF93CDB7DEB724970FB6F894DEBF0FBEFA
:1015F000CDBF8C01FC01818192810C9791F4828591
:10160000803609F0CCC480818295807F8093ED0084
:101610008091EF008F738093EF001092EE001082A4
:10162000BEC40E947608982F8F3F09F4BBC480E6A1
:10163000F801828790839295907F9093ED00EEEE73
:10164000F0E01192E83FF105E1F7F8018181928124
:101650008630910509F4D7C187309105B0F4833005
:10166000910509F4FCC08430910538F4813091056E
:1016700029F1029709F093C497C08430910509F4C9
:101680003FC1059709F08BC473C18930910509F4F6
:1016900006C38A30910540F48730910509F4F5C1FD
:1016A000089709F07CC473C28A30910521F00B972A
:1016B00009F075C4D7C320E030E08AC3F8018485FF
:1016C000882381F196818581990F990F990F8295D1
:1016D00086958770980F9093F30095818481990F78
:1016E000990F990F829586958770980F9093F200C5
:1016F00094818381990F990F990F829586958770B0
:10170000980F9093F1008381880F880F880F809342
:10171000F0008091EF0080618093EF00F801278155
:1017200090E01FC0F801948183819295990F907E7B
:10173000869586958695980F9093F3008381829580
:10174000880F807E8093F2008091EF008F7EE4CF3F
:10175000F801A085B185A90FB11D8C918093FA0085
:101760009F5F9217A9F7F8018385882321F0809164
:10177000F000846003C08091F0008B7F8093F000C4
:101780008091EF00F8019781892B8093EF00809181
:10179000EF008F738093EF008091EF00806480935F
:1017A000EF0080E090E003C4F8018485882381F194
:1017B00096818581990F990F990F829586958770EB
:1017C000980F9093F30095818481990F990F990F49
:1017D000829586958770980F9093F200948183810B
:1017E000990F990F990F829586958770980F90930E
:1017F000F1008381880F880F880F8093F00080911B
:10180000EF0080618093EF00F801278190E01FC016
:10181000F801948183819295990F907E86958695A3
:101820008695980F9093F30083818295880F807E30
:101830008093F2008091EF008F7EE4CFF801A085C5
:10184000B185A90FB11D8C918093FA009F5F92170B
:10185000A9F7F80113868091F0008B7F4CC0F80146
:101860008485882359F196818581990F990F990F65
:10187000829586958770980F9093F3009581848167
:10188000990F990F990F829586958770980F90936D
:10189000F20094818381990F990F990F8295869513
:1018A0008770980F9093F1008381880F880F880FBD
:1018B0008093F0008091EF00806115C0F801948161
:1018C00083819295990F907E869586958695980F3F
:1018D0009093F30083818295880F807E8093F2003D
:1018E0008091EF008F7E8093EF0081E0F801838785
:1018F0008091F00084608093F0008091EF0043CFEE
:1019000019821A821B821C823B818C81880F880F6E
:10191000880F932F929596959770890F8093F70073
:101920002A81330F330F330F822F8295869587706C
:10193000380F3093F6009981220F220F220F892F42
:10194000829586958770280F2093F500990F990F3F
:10195000990F9093F4008091EF00F8019781892B03
:101960008093EF008091F4008B7F8093F4003DC062
:1019700019821A821B821C823B818C81880F880FFE
:10198000880F932F929596959770890F8093F70003
:101990002A81330F330F330F822F829586958770FC
:1019A000380F3093F6009981220F220F220F892FD2
:1019B000829586958770280F2093F500990F990FCF
:1019C000990F9093F4008091EF00F8019781892B93
:1019D0008093EF0013868091F40084608093F4007C
:1019E0008091F0008B7F8093F0008091F4008E7FD7
:1019F0008093F4008091EF008F738093EF008091CB
:101A0000EF008068CCCE19821A821B821C823B8137
:101A10008C81880F880F880F932F929596959770D9
:101A2000890F8093F7002A81330F330F330F822FF2
:101A3000829586958770380F3093F6009981220F32
:101A4000220F220F892F829586958770280F209369
:101A5000F500990F990F990F9093F4008091EF0082
:101A6000F8019781892B8093EF0081E08387809133
:101A7000F40084608093F4008091F000846080938F
:101A8000F0008091EF008F7DEAC1F8018485882302
:101A900059F196818581990F990F990F82958695B5
:101AA0008770980F9093F30095818481990F990F17
:101AB000990F829586958770980F9093F200948184
:101AC0008381990F990F990F829586958770980F4A
:101AD0009093F1008381880F880F880F8093F00026
:101AE0008091EF00806115C0F80194818381929507
:101AF000990F907E869586958695980F9093F30022
:101B000083818295880F807E8093F2008091EF0020
:101B10008F7E8093EF008FEF9FEFAFEFBFEF898352
:101B20009A83AB83BC833B818C81880F880F880F9D
:101B3000932F929596959770890F8093F7002A813D
:101B4000330F330F330F822F829586958770380FAE
:101B50003093F6009981220F220F220F892F829550
:101B600086958770280F2093F500990F990F990F8C
:101B70009093F4008091EF00F8019781892B809376
:101B8000EF008091F4008B7F8093F40015C1F80181
:101B90008485882359F196818581990F990F990F32
:101BA000829586958770980F9093F3009581848134
:101BB000990F990F990F829586958770980F90933A
:101BC000F20094818381990F990F990F82958695E0
:101BD0008770980F9093F1008381880F880F880F8A
:101BE0008093F0008091EF00806115C0F80194812E
:101BF00083819295990F907E869586958695980F0C
:101C00009093F30083818295880F807E8093F20009
:101C10008091EF008F7E8093EF008FEF9FEFAFEF0B
:101C2000BFEF89839A83AB83BC833B818C81880F10
:101C3000880F880F932F929596959770890F8093B0
:101C4000F7002A81330F330F330F822F8295869549
:101C50008770380F3093F6009981220F220F220FE0
:101C6000892F829586958770280F2093F500990F0C
:101C7000990F990F9093F4008091EF00F8019781EC
:101C8000892B8093EF0013868091F4008460809309
:101C9000F4008091F0008B7F8093F0008DC0F801FC
:101CA0008485882359F196818581990F990F990F21
:101CB000829586958770980F9093F3009581848123
:101CC000990F990F990F829586958770980F909329
:101CD000F20094818381990F990F990F82958695CF
:101CE0008770980F9093F1008381880F880F880F79
:101CF0008093F0008091EF00806115C0F80194811D
:101D000083819295990F907E869586958695980FFA
:101D10009093F30083818295880F807E8093F200F8
:101D20008091EF008F7E8093EF008FEF9FEFAFEFFA
:101D3000BFEF89839A83AB83BC833B818C81880FFF
:101D4000880F880F932F929596959770890F80939F
:101D5000F7002A81330F330F330F822F8295869538
:101D60008770380F3093F6009981220F220F220FCF
:101D7000892F829586958770280F2093F500990FFB
:101D8000990F990F9093F4008091EF00F8019781DB
:101D9000892B8093EF0081E083878091F400846039
:101DA0008093F4008091F00084608093F000809133
:101DB000EF008F7D8093EF008091F400816018CE5A
:101DC000F801A085B185A90FB11D8C918093FA000F
:101DD000922F2F5F3F4FF8018781981788F3198260
:101DE0001A821B821C823B818C81880F880F880F8E
:101DF000932F929596959770890F8093F7002A817B
:101E0000330F330F330F822F829586958770380FEB
:101E10003093F6009981220F220F220F892F82958D
:101E200086958770280F2093F500990F990F990FC9
:101E30009093F4008091EF009781892B8093EF00BD
:101E400081E083878091F40084608093F400809126
:101E5000F00084608093F0008091EF0080628093B6
:101E6000EF00C3CDF8018485882359F196818581DF
:101E7000990F990F990F829586958770980F909377
:101E8000F30095818481990F990F990F829586951A
:101E90008770980F9093F20094818381990F990F26
:101EA000990F829586958770980F9093F1008381A2
:101EB000880F880F880F8093F0008091EF00806179
:101EC00015C0F801948183819295990F907E869533
:101ED00086958695980F9093F30083818295880F5D
:101EE000807E8093F2008091EF008F7E8093EF00E0
:101EF00020E030E008C0F801A085B185A90FB11D30
:101F00008C918093FA00922F2F5F3F4FF8018781C9
:101F1000981788F38FEF9FEFAFEFBFEF89839A8316
:101F2000AB83BC833B818C81880F880F880F932FF4
:101F3000929596959770890F8093F7002A81330FB9
:101F4000330F330F822F829586958770380F309329
:101F5000F6009981220F220F220F892F82958695F4
:101F60008770280F2093F500990F990F990F909380
:101F7000F4008091EF009781892B8093EF0081E03E
:101F800083878091F40084608093F4008091F00056
:101F900084608093F0008091EF0080620BCFF801A5
:101FA0001286FFCB8FE1F80182878FEF90E02496B5
:101FB0000FB6F894DEBF0FBECDBFDF91CF911F915A
:101FC0000F9108950E94C408882319F480E090E0DE
:101FD00008950E9463088091D80082608093D800A1
:101FE00081E090E00895EF92FF920F931F93BC0160
:101FF00080917805813071F5F89420917F053091BA
:102000008005409181055091820578947B010027DD
:1020100011272E0D3F1D401F511FF89480917F0501
:1020200090918005A0918105B09182058217930758
:10203000A407B50779F080917F0590918005A09164
:102040008105B09182058E159F05A007B10711F09B
:102050007894E3CF1F910F91FF90EF900895F8943B
:102060001092B0001092B2001092B30080917000F4
:102070008E7F80937000809170008D7F80937000C0
:102080008091B0008F7C8093B0008091B000877BFE
:1020900088608093B0008091B6008F7E88608093C6
:1020A000B60080E28093B3008091B000887F8160A9
:1020B0008093B0008091B600992787709070892B2B
:1020C000C9F7B99A80917000826080937000109275
:1020D0007F05109280051092810510928205109262
:1020E0007E0510927D051092840510927B0510925A
:1020F000830510927C0581E080937805789408959B
:102100001F920F920FB60F9211242F938F939F93CC
:10211000AF93BF9380917F0590918005A091810539
:10212000B09182050196A11DB11D80937F0590930A
:102130008005A0938105B093820580917D059091E3
:102140007E05019690937E0580937D0580917D05A7
:1021500090917E05885E934051F510927E05109215
:102160007D05809184058F5F80938405809184052F
:102170008C33E9F41092840580917B058F5F809306
:102180007B0580917B058C3391F410927B058091C7
:1021900083058F5F8093830580918305883139F4AF
:1021A0001092830580917C058F5F80937C05BF91A1
:1021B000AF919F918F912F910F900FBE0F901F9015
:1021C00018958FEF81B912B8089582B9089590B12A
:1021D00080B19295907F82958F70982B92B90895D7
:1021E0008FEF80B90895382F8830D8F4662359F4DA
:1021F00022B181E090E002C0880F991F3A95E2F782
:10220000809528230BC0613061F422B181E090E019
:1022100002C0880F991F3A95E2F7282B22B981E076
:1022200001C080E0992708956C986F986E986D981A
:102230006A98749A779A769A759A729A08958CB178
:102240009CB12CB1892B822B8095847F992708958E
:102250002CB18CB19CB1282B292B2095247F2434C0
:1022600009F442C0253490F4203251F1213238F47F
:10227000203101F12431A1F12430B9F523C02033FC
:1022800039F12034D9F0243281F512C0243851F1CB
:10229000253838F4203611F1203871F0203529F531
:1022A00013C0203AB9F0203C89F02039F1F414C071
:1022B0002FE01BC021E019C022E017C023E015C0A9
:1022C00024E013C025E011C026E00FC027E00DC0B8
:1022D00028E00BC029E009C02AE007C02BE005C0B8
:1022E0002CE003C02DE001C02EE0822F9927089535
:1022F000AA1BBB1B51E107C0AA1FBB1FA617B7072C
:1023000010F0A61BB70B881F991F5A95A9F7809547
:102310009095BC01CD01089597FB092E07260AD0A0
:1023200077FD04D0E5DF06D000201AF470956195A2
:102330007F4F0895F6F7909581959F4F0895A1E2FC
:102340001A2EAA1BBB1BFD010DC0AA1FBB1FEE1F2F
:10235000FF1FA217B307E407F50720F0A21BB30B7A
:10236000E40BF50B661F771F881F991F1A9469F7F6
:1023700060957095809590959B01AC01BD01CF0152
:10238000089597FB092E05260ED057FD04D0D7DF00
:102390000AD0001C38F450954095309521953F4F58
:1023A0004F4F5F4F0895F6F7909580957095619522
:0823B0007F4F8F4F9F4F0895EE
:1023B8002D302D2025637843414E20402025303292
:1023C80058253032583A2030782530386C5828450E
:1023D80078742E292C204C3D25642C20002D312D7D
:1023E8002025637843414E2040202530325825303F
:1023F80032583A2030782530386C58284578742E71
:10240800292C204C3D25642C20002D302D202563BF
:102418007843414E20402025303258253032583AF2
:102428002020202020203078253033582853746409
:102438002E292C204C3D25642C20002D312D2025C3
:10244800637843414E204020253032582530325899
:102458003A20202020202030782530335828537403
:10246800642E292C204C3D25642C200052656D6F6C
:1024780074650D0A00253032582D00253032580D6C
:102488000A000D0A2D302D203D3D3D3D3D3D3D20AE
:1024980043414E204C494E45204552524F52200050
:1024A8000D0A2D312D203D3D3D3D3D3D3D20434113
:1024B8004E204C494E45204552524F5220002A008A
:1024C80020457869742046726F6D2050726F67726C
:1024D800616D21203D3D3D3D3D3D3D202D302D0D83
:1024E8000A0A0020457869742046726F6D20507280
:1024F8006F6772616D21203D3D3D3D3D3D3D202D85
:10250800312D780D0A0A002D3020257320302D0D2D
:102518000A002D3120257320312D0D0A003D3D3D47
:102528003D3D3D3D205541525420696E204543486C
:102538004F204D4F4445203D3D3D3D3D3D3D000D27
:102548000A0A2D302D203D3D3D3D3D3D3D20434176
:102558004E20535059204543484F204558414D502F
:102568004C45203D3D3D3D3D3D3D202D302D0D0A46
:10257800002573002D3020257320302D0D0A0A0008
:102588002D302D202E2E2E204E6F2041637469761B
:10259800697479206F6E2043414E20427573202163
:1025A800202E2E2E0D000D0A0A2D312D203D3D3DE9
:1025B8003D3D3D3D2043414E205350592045434821
:1025C8004F204558414D504C45203D3D3D3D3D3DFA
:1025D8003D202D312D0D0A002D312D202E2E2E209F
:1025E8004E6F204163746976697479206F6E204359
:1025F800414E204275732021202E2E2E0D003D3D88
:102608003D3D3D3D3D205541525420696E2043419A
:102618004E20414E414C595A4552203D3D3D3D3D8D
:102628003D3D003D3D3D3D3D3D3D204563686F20BE
:102638002B205541525420696E2043414E20414E73
:10264800414C595A4552203D3D3D3D3D3D3D000DD3
:102658000A20202020202020205F5F5F5F5F5F5FCF
:102668005F5F5F5F5F5F5F5F5F5F5F5F5F5F5F5F72
:102678005F5F5F5F5F5F0D0A2020202020202F5FB3
:102688005F5F2020205F5F5F5F5F5F5F5F5F5F5F0F
:102698005F5F5F5F5F5F5F5F5F5F5F5F5F7C0D0ACC
:1026A80020202020205F5F5F20207C207C20205F6E
:1026B8005F5F5F5F5F5F5F202020205F5F5F5F205D
:1026C80020205F0D0A202020202F2020207C207C25
:1026D800207C207C20205F2020205F205C20207C24
:1026E80020205F5F7C207C207C0D0A2020202F206A
:1026F8002F7C207C207C207C207C207C207C207CE3
:10270800207C207C207C207C5F5F20207C207C0D2E
:102718000A20202F202F207C207C207C207C207CDD
:10272800207C207C207C207C207C207C20205F5FFB
:102738007C207C207C0D0A202F202F5F207C207C91
:10274800207C207C207C207C207C207C207C207CA1
:10275800207C207C5F5F20207C207C5F5F0D0A2F1F
:102768005F5F5F5F7C7C5F7C207C5F7C207C5F7C24
:10277800207C5F7C207C5F7C207C5F5F5F5F7C20AF
:102788007C5F5F5F2F0D0A2C2D2D2D2D2D2D2D2DCE
:102798002D2D2D2D2D2D2D2D2D2D2D2D2D2D2D2D61
:1027A8002D2D2D2D2D2D2D2D2D2D2D2C0D0A7C2053
:1027B8004154393043414E7878204C6962726172D5
:1027C800792056657273696F6E20332E323020205F
:1027D800202F202852290D0A272D2D2D2D2D2D2D66
:1027E8002D2D2D2D2D2D2D2D2D2D2D2D2D2D2D2D11
:1027F8002D2D2D2D2D2D2D2D2D2D270D0A0A002D9A
:102808002D2D204154393043414E7878204C69624F
:10281800726172792056657273696F6E20332E3239
:0828280030202D2D2D0D0A00BA
:00000001FF
