:100000000C944A000C9467000C9467000C946700F1
:100010000C9467000C9467000C9467000C946700C4
:100020000C9467000C9457130C9467000C946700B1
:100030000C9467000C9467000C9467000C946700A4
:100040000C9467000C9467000C9467000C94670094
:100050000C9467000C9467000C9467000C94670084
:100060000C9467000C9467000C9467000C94670074
:100070000C9467000C9467000C9467000C94670064
:100080000C9467000C9467000C9467000C94670054
:100090000C94670011241FBECFEFD0E1DEBFCDBFAF
:1000A00012E0A0E0B1E0ECE6FAE200E00BBF02C033
:1000B00007900D92A030B107D9F712E0A0E0B2E0AE
:1000C00001C01D92AB30B107E1F70C9469000C94AC
:1000D0000000CF93DF93CDB7DEB7E1E6F0E080E834
:1000E0008083E1E6F0E01082E4E5F0E010820E9417
:1000F000E8020E94B81188E80E94C61180E00E94C0
:100100001B070E948400FFCFCF93DF93CDB7DEB7EC
:10011000C554D0400FB6F894DEBF0FBECDBFCE01A0
:10012000C99623969FAF8EAF2397E0E0F1E0259626
:10013000FFAFEEAF2597F8E02696FFAF26972596FE
:10014000EEADFFAD2597008025968EAD9FAD25972E
:10015000019625969FAF8EAF25972396EEADFFAD06
:100160002397008223968EAD9FAD23970196239609
:100170009FAF8EAF239726969FAD269791502696D8
:100180009FAF26972696EFAD2697EE23C1F68CEF0C
:100190009FEFA1E0B0E08F839887A987BA878F810E
:1001A0009885A985BA85ABBFF92FE82FD895802D02
:1001B0008E838E818D87CE010F9698A78FA31BA665
:1001C00081E08EA38DEF9FEFA1E0B0E08A839B8357
:1001D000AC83BD838A819B81AC81BD81ABBFF92F8C
:1001E000E82FD895802D89838981992782959295CA
:1001F000907F9827807F982797709BA38AA388E099
:1002000090E099A388A3CE0147969DAB8CAB18AE26
:1002100084E08BAB88E890E098AB8FA78BE090E010
:100220009EA78DA70E94BF138F8B0E943F14888FBB
:100230000E949C149C878B878B859C85892F99278E
:10024000898F8B858A8FCE014F960E94460788231F
:10025000D1F7CE018C960E9446078823D1F700C0C3
:10026000CE018C960E9490108E878E858823D9F4BB
:100270000E94BF138F8B0E943F14888F0E949C1492
:100280009C878B878B859C85892F9927898F8B8568
:100290008A8FCE018C960E9446078823D1F7CE0123
:1002A000C9960E944603CE014F960E9490108E87F9
:1002B0008E858823A9F69F858D85981741F48EA198
:1002C000813029F480E098EFFC010994C9CFCE0178
:1002D0004F960E9446078823D1F7C2CFCF93DF9372
:1002E000CDB7DEB729970FB6F894DEBF0FBECDBFEE
:1002F0008B836C834D8381E08A8381E08983AAE7C5
:10030000B0E0EAE7F0E090818FE789238C93AAE7D9
:10031000B0E0EAE7F0E08081877F8C93AAE7B0E065
:10032000EAE7F0E0808180618C938B81282F33276E
:1003300039872887888599858130910599F02885A6
:10034000398523303105F1F088859985009709F0CA
:1003500021C0ACE7B0E0ECE7F0E090818FE38923C7
:100360008C9319C0ACE7B0E0ECE7F0E090818FE748
:1003700089238C93ACE7B0E0ECE7F0E08081806407
:100380008C9309C0ACE7B0E0ECE7F0E08081806CD2
:100390008C9301C01A828C81282F33273F832E83B0
:1003A0008E819F81009771F02E813F812130310530
:1003B00009F010C0ACE7B0E0ECE7F0E080818062CB
:1003C0008C9309C0ACE7B0E0ECE7F0E080818F7D72
:1003D0008C9301C01982ACE7B0E0ECE7F0E08081DB
:1003E000807E8C93ACE7B0E0ECE7F0E090818D810B
:1003F000892B8C93AAE7B0E0EAE7F0E08081887F60
:100400008C93AAE7B0E0EAE7F0E0808186608C9305
:100410009A818981892B992729960FB6F894DEBF96
:100420000FBECDBFDF91CF910895CF93DF93CDB7AE
:10043000DEB728970FB6F894DEBF0FBECDBF888712
:100440001A821982A1E3B0E0E1E3F0E08081482F55
:100450008885282F332781E090E002C0880F991FFC
:100460002A95E2F7809584238C93A0E3B0E0E0E343
:10047000F0E08081482F8885282F332781E090E0A5
:1004800002C0880F991F2A95E2F7809584238C93E8
:10049000AEE7B0E0EEE7F0E08081482F8885282FB6
:1004A000332781E090E0022E02C0880F991F0A9442
:1004B000E2F7842B8C93AAE7B0E0EAE7F0E08081D2
:1004C00080688C93ECE7F0E080819927807C9070C5
:1004D000803C910581F41E821D8207C0000000004F
:1004E0008D819E8101969E838D838D819E812FE7D4
:1004F000803E920798F3AAE7B0E0EAE7F0E0808157
:100500008F7D8C93AAE7B0E0EAE7F0E08081806419
:100510008C93EAE7F0E080819927807190700097D2
:10052000C1F3AAE7B0E0EAE7F0E0808180618C9354
:100530001F822EC0AAE7B0E0EAE7F0E080818F7D5D
:100540008C93AAE7B0E0EAE7F0E0808180648C93C6
:10055000EAE7F0E080819927807190700097C1F3FD
:10056000E8E7F0E0808191819C838B8329813A8147
:100570008B819C81820F931F9A838983AAE7B0E0C5
:10058000EAE7F0E0808180618C938F818F5F8F83B9
:100590008F81803178F289819A81929582958F70CE
:1005A00089279F7089279C838B83AAE7B0E0EAE7BD
:1005B000F0E090818FE789238C938B819C81289632
:1005C0000FB6F894DEBF0FBECDBFDF91CF91089577
:1005D000CF93DF93CDB7DEB7E1E8F0E01082E0E83B
:1005E000F0E01082E2E8F0E01082A8E8B0E0E9E88C
:1005F000F0E0108280818C93A6E8B0E0E7E8F0E0BC
:10060000108280818C93A0E8B0E0E0E8F0E0808187
:1006100084608C93A0E8B0E0E0E8F0E080818D7F1A
:100620008C93E1E8F0E088E18083A1E8B0E0E1E8C4
:10063000F0E0808182608C93A4E2B0E0E4E2F0E03C
:10064000808180688C93DF91CF910895CF93DF9361
:10065000CDB7DEB722970FB6F894DEBF0FBECDBF81
:100660009A838983E7E8F0E089819A81892F992725
:100670008083E6E8F0E08981808322960FB6F894C3
:10068000DEBF0FBECDBFDF91CF910895CF93DF9333
:10069000CDB7DEB725970FB6F894DEBF0FBECDBF3E
:1006A0009C838B830E94E8028B819C8102969C83B1
:1006B0008B8318C0EB81FC81208131818B819C81EF
:1006C00002969C838B83C9010E94260389819A81AB
:1006D0000E944F1280E090E00E94260382E090E0AA
:1006E0000E944F12EB81FC81808191819A838983E2
:1006F0001D8289819A81009711F081E08D838B8121
:100700009C8102969C838B838D81882399F60E941D
:10071000920325960FB6F894DEBF0FBECDBFDF91D2
:10072000CF910895CF93DF93CDB7DEB7E0E8F0E047
:100730001082A6E8B0E0E7E8F0E0108280818C93B8
:10074000A4E2B0E0E4E2F0E090818FE789238C93AB
:10075000A5E2B0E0E5E2F0E090818FE789238C9399
:10076000DF91CF910895CF93DF93CDB7DEB7219777
:100770000FB6F894DEBF0FBECDBF898321960FB6AA
:10078000F894DEBF0FBECDBFDF91CF910895CF9318
:10079000DF93CDB7DEB723970FB6F894DEBF0FBE59
:1007A000CDBF1B821BC0EDEEF0E08B818295807F78
:1007B00080838EEE90E09A83898308C0E981FA8174
:1007C000108289819A8101969A83898389819A818D
:1007D000883F910598F38B818F5F8B838B818F305E
:1007E00010F323960FB6F894DEBF0FBECDBFDF9196
:1007F000CF910895CF93DF93CDB7DEB724970FB68F
:10080000F894DEBF0FBECDBFEDEEF0E080818983AE
:100810001A821BC0EDEEF0E08A818295807F808392
:10082000EFEEF0E080819927807C9070009751F482
:10083000EDEEF0E0898180838A81282F33273C8385
:100840002B830EC08A818F5F8A838A818F3010F359
:10085000EDEEF0E0898180838FEF90E09C838B83C5
:100860008B819C8124960FB6F894DEBF0FBECDBF5E
:10087000DF91CF910895CF93DF93CDB7DEB7249763
:100880000FB6F894DEBF0FBECDBFEFEEF0E0808173
:100890009927807C9070009729F42FEF30E03C83FB
:1008A0002B8325C0EEEEF0E08081898390EE898174
:1008B00089238A838A81803231F08A81803419F0D9
:1008C0008A81803A31F48A81282F33273C832B8315
:1008D0000EC089818F718A838A81882331F08A8151
:1008E000282F33273C832B8302C01C821B828B81E1
:1008F0009C8124960FB6F894DEBF0FBECDBFDF916A
:10090000CF910895CF93DF93CDB7DEB723970FB67E
:10091000F894DEBF0FBECDBF9B838A8319820FC0C0
:10092000898199279C018A819B81D901A80FB91FD0
:10093000EAEFF0E080818C9389818F5F89838981E0
:10094000282F3327EFEEF0E0808199278F70907089
:10095000281739072CF323960FB6F894DEBF0FBE85
:10096000CDBFDF91CF910895CF93DF93CDB7DEB7A1
:1009700067970FB6F894DEBF0FBECDBF8A8B1E827D
:10098000188688858B871B821D821C8281E08A875E
:100990008A898823A1F481E0888B88E08E8782E0B1
:1009A0008D8782E08C879D858C85980F8E85891B2D
:1009B00081508F8781E08F8381E0898799C0E2EE43
:1009C000F0E0808199278E7790709595879518161D
:1009D000190664F4E2EEF0E0808199278E7790703A
:1009E00095958795982F9F5F9F8B02C081E08F8B95
:1009F0009F89988BE3EEF0E0808199278E7090704C
:100A0000959587951816190664F4E3EEF0E0808159
:100A100099278E70907095958795982F9F5F9E8BE4
:100A200002C081E08E8B9E899F87E4EEF0E080819A
:100A300099278E709070959587958230910564F016
:100A4000E4EEF0E0808199278E70907095958795FF
:100A5000982F9F5F9D8B02C082E08D8B9D899D8723
:100A6000E4EEF0E0808199278077907095958795E6
:100A7000959587959595879595958795823091055C
:100A800094F0E4EEF0E0808199278077907095955E
:100A90008795959587959595879595958795982FA1
:100AA0009F5F9C8B02C082E08C8B9C899C878F858A
:100AB000282F33278D859927280F391F8C85992753
:100AC000820F931F883091054CF09F858D85980F7C
:100AD0008C85890F982F9F5F9B8B02C088E08B8B42
:100AE0009B899E8781E0888788858B871F821986EE
:100AF000198A1BC0EDEEF0E089898295807F8083A2
:100B00008EEE90E09A83898308C0E981FA81108291
:100B100089819A8101969A83898389819A81883F04
:100B2000910598F389898F5F898B89898F3010F3BC
:100B30004DC18F81813009F0B9C0E8EDF0E081E06E
:100B400080838C819D8101969D838C831E82E2EE41
:100B5000F0E088898150880F8083E3EEF0E08C8597
:100B6000869599270197880F991F82959295907F76
:100B70009827807F9827282F8F8599270197880F9E
:100B8000991F822B8083E4EEF0E08C8599270197F2
:100B900082959295907F9827807F9827282F8D8522
:100BA00099270197880F991F822B81608083E5EE3A
:100BB000F0E08C819D819695879596958795969581
:100BC00087958083EDEEF0E01082EEEEF0E010828B
:100BD000EFEEF0E080E88083E8EDF0E08AE08083EB
:100BE000E9EDF0E080819927847090700097C1F35F
:100BF000EAEDF0E08FEF808359C0EEEEF0E0808107
:100C0000898B89899927807290700097C9F019861D
:100C100018861A8681E08B83AFEEB0E0EFEEF0E04D
:100C200090818FE389238C93E8EDF0E01082E9ED69
:100C3000F0E080819927847090700097C1F736C0EA
:100C4000898999278F719070009719F081E08887C2
:100C50001986EAEDF0E08081898B89899927807275
:100C600090700097C1F08E81882359F4AAEDB0E00E
:100C7000EAEDF0E0808180628C938E818F5F8E83BD
:100C80000AC0AAEDB0E0EAEDF0E0808180628C93CA
:100C900081E088871986898999278F7090700097DD
:100CA00029F081E08887198681E08F8389858130EA
:100CB00009F4A3CF87C08B85882319F08D858F5FBA
:100CC0008D8781E08B878D85893078F18C858830A0
:100CD00060F182E08D8782E08C871B868E8589316A
:100CE00021F08E858F5F8E876DC088E08E87888922
:100CF000803421F088898F5F888B64C018861B82BE
:100D00001A86AFEEB0E0EFEEF0E090818FE389233A
:100D10008C93E8EDF0E01082E9EDF0E08081992716
:100D2000847090700097C1F74DC08D85863078F043
:100D30008D85282F33278C85992701968217930755
:100D400044F48C858F5F8C878C858D8702C08D8560
:100D50008C879D858C85980F8E85891B81508F8708
:100D60008F85893078F58F85882361F18C85992767
:100D7000AC01440F551F440F551F8F85282F332773
:100D80008D859927820F931F019648175907D4F034
:100D90008C85282F33278C859927280F391F8C8520
:100DA0009927A901480F591F8F85282F33278D8533
:100DB0009927820F931F0196841795071CF01886B8
:100DC00081E089878885813009F475CF8A858130F3
:100DD00009F4AFCE8B81992767960FB6F894DEBFE2
:100DE0000FBECDBFDF91CF910895CF93DF93CDB7E5
:100DF000DEB721970FB6F894DEBF0FBECDBF898353
:100E0000E8EDF0E081E08083E2EEF0E082E08083D4
:100E1000E3EEF0E08CE08083E4EEF0E087E38083B3
:100E200081E090E021960FB6F894DEBF0FBECDBFF3
:100E3000DF91CF910895CF93DF93CDB7DEB723979E
:100E40000FB6F894DEBF0FBECDBF898389810E94A3
:100E5000F506882319F41B821A820DC00E94C7036D
:100E6000A8EDB0E0E8EDF0E0808182608C9381E055
:100E700090E09B838A838A819B8123960FB6F894A6
:100E8000DEBF0FBECDBFDF91CF910895CF93DF932B
:100E9000CDB7DEB72E970FB6F894DEBF0FBECDBF2D
:100EA0009A878987E985FA85818192818C309105BD
:100EB00001F5E985FA8582858036B1F4ADEEB0E0C2
:100EC000E985FA8580818295807F8C93AFEEB0E0D2
:100ED000EFEEF0E090818FE389238C93EEEEF0E06B
:100EE0001082E985FA851082E985FA8512860C94CC
:100EF00083100E94FA038C838C818F3F11F40C9431
:100F00007A10E985FA8580E68287E985FA858C8101
:100F10008083EDEEF0E08C818295807F80838EEE81
:100F200090E09A83898308C0E981FA8110828981DF
:100F30009A8101969A83898389819A81883F910554
:100F400098F3E985FA850180F281E02DFE87ED872F
:100F50008D859E858630910509F476C38D859E85A5
:100F60008730910530F58D859E858330910509F494
:100F7000D3C18D859E858430910568F48D859E85CD
:100F800081309105E9F18D859E858230910509F4C6
:100F900002C10C9476108D859E858430910509F4EC
:100FA00065C28D859E858530910509F4D1C20C946A
:100FB00076108D859E858930910509F4C9C58D858A
:100FC0009E858A30910570F48D859E8587309105C8
:100FD00009F4BEC38D859E858830910509F4B3C49C
:100FE0000C9476108D859E858A30910509F4BDC6D6
:100FF0008D859E858B30910509F453C70C9476102E
:10100000E985FA858485882309F457C0A3EFB0E009
:1010100089859A850396FC0133968081282F220FBB
:10102000220F220F89859A850396FC0132968081D2
:10103000829586958770820F8C93A2EFB0E08985A8
:101040009A850396FC0132968081282F220F220F69
:10105000220F89859A850396FC01319680818295BD
:1010600086958770820F8C93A1EFB0E089859A8571
:101070000396FC0131968081282F220F220F220F28
:1010800089859A850396FC01808182958695877073
:10109000820F8C93A0EFB0E089859A850396FC01BE
:1010A0008081880F880F880F8C93AFEEB0E0EFEE51
:1010B000F0E0808180618C9328C0A3EFB0E0898547
:1010C0009A850396FC0131968081282F2295220F64
:1010D000207E89859A850396FC0180818695869578
:1010E0008695820F8C93A2EFB0E089859A8503964E
:1010F000FC0180818295880F807E8C93AFEEB0E0FA
:10110000EFEEF0E080818F7E8C931B8210C0AAEFFF
:10111000B0E0E985FA85208531858B819927F90131
:10112000E80FF91F80818C938B818F5F8B83E9851A
:10113000FA8597818B81891750F3E985FA85838534
:10114000882341F0A0EFB0E0E0EFF0E08081846020
:101150008C9307C0A0EFB0E0E0EFF0E080818B7FE0
:101160008C93AFEEB0E0EFEEF0E09081E985FA8588
:101170008781892B8C93AFEEB0E0EFEEF0E09081A9
:101180008FE389238C93AFEEB0E0EFEEF0E0808147
:1011900080648C93B8C7E985FA858485882309F42F
:1011A00057C0A3EFB0E089859A850396FC0133967A
:1011B0008081282F220F220F220F89859A8503967E
:1011C000FC0132968081829586958770820F8C9380
:1011D000A2EFB0E089859A850396FC013296808162
:1011E000282F220F220F220F89859A850396FC0152
:1011F00031968081829586958770820F8C93A1EFBE
:10120000B0E089859A850396FC0131968081282F6C
:10121000220F220F220F89859A850396FC01808177
:10122000829586958770820F8C93A0EFB0E08985B8
:101230009A850396FC018081880F880F880F8C9314
:10124000AFEEB0E0EFEEF0E0808180618C9328C0DB
:10125000A3EFB0E089859A850396FC0131968081E1
:10126000282F2295220F207E89859A850396FC01DE
:101270008081869586958695820F8C93A2EFB0E04B
:1012800089859A850396FC0180818295880F807EEE
:101290008C93AFEEB0E0EFEEF0E080818F7E8C9328
:1012A0001B8210C0AAEFB0E0E985FA852085318560
:1012B0008B819927F901E80FF91F80818C938B812D
:1012C0008F5F8B83E985FA8597818B81891750F32E
:1012D000E985FA851386A0EFB0E0E0EFF0E08081C9
:1012E0008B7F8C93AFEEB0E0EFEEF0E09081E9857C
:1012F000FA858781892B8C93AFEEB0E0EFEEF0E0BA
:1013000090818FE389238C93AFEEB0E0EFEEF0E0B5
:10131000808180648C93F7C6E985FA85848588236B
:1013200009F457C0A3EFB0E089859A850396FC01C4
:1013300033968081282F220F220F220F89859A85CC
:101340000396FC0132968081829586958770820F84
:101350008C93A2EFB0E089859A850396FC013296C2
:101360008081282F220F220F220F89859A850396CC
:10137000FC0131968081829586958770820F8C93CF
:10138000A1EFB0E089859A850396FC0131968081B2
:10139000282F220F220F220F89859A850396FC01A0
:1013A0008081829586958770820F8C93A0EFB0E044
:1013B00089859A850396FC018081880F880F880FA4
:1013C0008C93AFEEB0E0EFEEF0E0808180618C9323
:1013D00028C0A3EFB0E089859A850396FC01319679
:1013E0008081282F2295220F207E89859A85039659
:1013F000FC018081869586958695820F8C93A2EF5D
:10140000B0E089859A850396FC0180818295880FDA
:10141000807E8C93AFEEB0E0EFEEF0E080818F7EC7
:101420008C93E985FA8581E08387A0EFB0E0E0EF57
:10143000F0E0808184608C93AFEEB0E0EFEEF0E0FE
:101440009081E985FA858781892B8C93AFEEB0E096
:10145000EFEEF0E090818FE389238C93AFEEB0E064
:10146000EFEEF0E0808180648C934DC61D821E8279
:101470001F821886A7EFB0E0CE010596FC013396D7
:101480008081282F220F220F220FCE010596FC010A
:1014900032968081829586958770820F8C93A6EF15
:1014A000B0E0CE010596FC0132968081282F220FF4
:1014B000220F220FCE010596FC0131968081829584
:1014C00086958770820F8C93A5EFB0E0CE010596CC
:1014D000FC0131968081982F990F990F990FFE0189
:1014E00035968081829586958770890F8C93A4EFBD
:1014F000B0E0FE0135968081880F880F880F8C93AD
:10150000AFEEB0E0EFEEF0E09081E985FA858781FB
:10151000892B8C93A4EFB0E0E4EFF0E080818B7F27
:101520008C93A4EFB0E0E4EFF0E080818E7F8C93A9
:10153000AFEEB0E0EFEEF0E090818FE389238C9383
:10154000AFEEB0E0EFEEF0E0808180688C93DBC519
:101550001D821E821F821886A7EFB0E0CE0105967D
:10156000FC0133968081282F220F220F220FCE01FB
:101570000596FC0132968081829586958770820F50
:101580008C93A6EFB0E0CE010596FC0132968081E7
:10159000282F220F220F220FCE010596FC01319633
:1015A0008081829586958770820F8C93A5EFB0E03D
:1015B000CE010596FC0131968081982F990F990FE5
:1015C000990FFE0135968081829586958770890FE7
:1015D0008C93A4EFB0E0FE0135968081880F880FD0
:1015E000880F8C93AFEEB0E0EFEEF0E09081E985EC
:1015F000FA858781892B8C93E985FA851386A4EF78
:10160000B0E0E4EFF0E0808184608C93A0EFB0E084
:10161000E0EFF0E080818B7F8C93A4EFB0E0E4EF0B
:10162000F0E080818E7F8C93AFEEB0E0EFEEF0E0E3
:1016300090818FE389238C93AFEEB0E0EFEEF0E082
:10164000808180688C935FC51D821E821F821886F0
:10165000A7EFB0E0CE010596FC0133968081282FDC
:10166000220F220F220FCE010596FC0132968081B7
:10167000829586958770820F8C93A6EFB0E0CE019D
:101680000596FC0132968081282F220F220F220F0F
:10169000CE010596FC0131968081829586958770F2
:1016A000820F8C93A5EFB0E0CE010596FC01319638
:1016B0008081982F990F990F990FFE01359680819F
:1016C000829586958770890F8C93A4EFB0E0FE0118
:1016D00035968081880F880F880F8C93AFEEB0E02D
:1016E000EFEEF0E09081E985FA858781892B8C9374
:1016F000E985FA8581E08387A4EFB0E0E4EFF0E0CC
:10170000808184608C93A0EFB0E0E0EFF0E0808116
:1017100084608C93AFEEB0E0EFEEF0E080818F7DDF
:101720008C93A4EFB0E0E4EFF0E080818E7F8C93A7
:10173000AFEEB0E0EFEEF0E090818FE389238C9381
:10174000AFEEB0E0EFEEF0E0808180688C93DBC418
:10175000E985FA858485882309F457C0A3EFB0E0B2
:1017600089859A850396FC0133968081282F220F64
:10177000220F220F89859A850396FC01329680817B
:10178000829586958770820F8C93A2EFB0E0898551
:101790009A850396FC0132968081282F220F220F12
:1017A000220F89859A850396FC0131968081829566
:1017B00086958770820F8C93A1EFB0E089859A851A
:1017C0000396FC0131968081282F220F220F220FD1
:1017D00089859A850396FC0180818295869587701C
:1017E000820F8C93A0EFB0E089859A850396FC0167
:1017F0008081880F880F880F8C93AFEEB0E0EFEEFA
:10180000F0E0808180618C9328C0A3EFB0E08985EF
:101810009A850396FC0131968081282F2295220F0C
:10182000207E89859A850396FC0180818695869520
:101830008695820F8C93A2EFB0E089859A850396F6
:10184000FC0180818295880F807E8C93AFEEB0E0A2
:10185000EFEEF0E080818F7E8C938FEF9FEFAFEF04
:10186000BFEF8D839E83AF83B887A7EFB0E0CE0133
:101870000596FC0133968081282F220F220F220F1C
:10188000CE010596FC0132968081829586958770FF
:10189000820F8C93A6EFB0E0CE010596FC01329644
:1018A0008081282F220F220F220FCE010596FC01E6
:1018B00031968081829586958770820F8C93A5EFF3
:1018C000B0E0CE010596FC0131968081982F990FEA
:1018D000990F990FFE0135968081829586958770C4
:1018E000890F8C93A4EFB0E0FE0135968081880FBC
:1018F000880F880F8C93AFEEB0E0EFEEF0E09081B0
:10190000E985FA858781892B8C93A4EFB0E0E4EF19
:10191000F0E080818B7F8C93A4EFB0E0E4EFF0E007
:10192000808181608C93AFEEB0E0EFEEF0E09081CB
:101930008FE389238C93AFEEB0E0EFEEF0E080818F
:1019400080688C93E0C3E985FA858485882309F44F
:1019500057C0A3EFB0E089859A850396FC013396C2
:101960008081282F220F220F220F89859A850396C6
:10197000FC0132968081829586958770820F8C93C8
:10198000A2EFB0E089859A850396FC0132968081AA
:10199000282F220F220F220F89859A850396FC019A
:1019A00031968081829586958770820F8C93A1EF06
:1019B000B0E089859A850396FC0131968081282FB5
:1019C000220F220F220F89859A850396FC018081C0
:1019D000829586958770820F8C93A0EFB0E0898501
:1019E0009A850396FC018081880F880F880F8C935D
:1019F000AFEEB0E0EFEEF0E0808180618C9328C024
:101A0000A3EFB0E089859A850396FC013196808129
:101A1000282F2295220F207E89859A850396FC0126
:101A20008081869586958695820F8C93A2EFB0E093
:101A300089859A850396FC0180818295880F807E36
:101A40008C93AFEEB0E0EFEEF0E080818F7E8C9370
:101A50008FEF9FEFAFEFBFEF8D839E83AF83B8878C
:101A6000A7EFB0E0CE010596FC0133968081282FC8
:101A7000220F220F220FCE010596FC0132968081A3
:101A8000829586958770820F8C93A6EFB0E0CE0189
:101A90000596FC0132968081282F220F220F220FFB
:101AA000CE010596FC0131968081829586958770DE
:101AB000820F8C93A5EFB0E0CE010596FC01319624
:101AC0008081982F990F990F990FFE01359680818B
:101AD000829586958770890F8C93A4EFB0E0FE0104
:101AE00035968081880F880F880F8C93AFEEB0E019
:101AF000EFEEF0E09081E985FA858781892B8C9360
:101B0000E985FA851386A4EFB0E0E4EFF0E0808188
:101B100084608C93A0EFB0E0E0EFF0E080818B7FF9
:101B20008C93A4EFB0E0E4EFF0E0808181608C93CF
:101B3000AFEEB0E0EFEEF0E090818FE389238C937D
:101B4000AFEEB0E0EFEEF0E0808180688C93DBC216
:101B5000E985FA858485882309F457C0A3EFB0E0AE
:101B600089859A850396FC0133968081282F220F60
:101B7000220F220F89859A850396FC013296808177
:101B8000829586958770820F8C93A2EFB0E089854D
:101B90009A850396FC0132968081282F220F220F0E
:101BA000220F89859A850396FC0131968081829562
:101BB00086958770820F8C93A1EFB0E089859A8516
:101BC0000396FC0131968081282F220F220F220FCD
:101BD00089859A850396FC01808182958695877018
:101BE000820F8C93A0EFB0E089859A850396FC0163
:101BF0008081880F880F880F8C93AFEEB0E0EFEEF6
:101C0000F0E0808180618C9328C0A3EFB0E08985EB
:101C10009A850396FC0131968081282F2295220F08
:101C2000207E89859A850396FC018081869586951C
:101C30008695820F8C93A2EFB0E089859A850396F2
:101C4000FC0180818295880F807E8C93AFEEB0E09E
:101C5000EFEEF0E080818F7E8C938FEF9FEFAFEF00
:101C6000BFEF8D839E83AF83B887A7EFB0E0CE012F
:101C70000596FC0133968081282F220F220F220F18
:101C8000CE010596FC0132968081829586958770FB
:101C9000820F8C93A6EFB0E0CE010596FC01329640
:101CA0008081282F220F220F220FCE010596FC01E2
:101CB00031968081829586958770820F8C93A5EFEF
:101CC000B0E0CE010596FC0131968081982F990FE6
:101CD000990F990FFE0135968081829586958770C0
:101CE000890F8C93A4EFB0E0FE0135968081880FB8
:101CF000880F880F8C93AFEEB0E0EFEEF0E09081AC
:101D0000E985FA858781892B8C93E985FA8581E0BD
:101D10008387A4EFB0E0E4EFF0E0808184608C93EF
:101D2000A0EFB0E0E0EFF0E0808184608C93AFEE54
:101D3000B0E0EFEEF0E080818F7D8C93A4EFB0E017
:101D4000E4EFF0E0808181608C93AFEEB0E0EFEEE5
:101D5000F0E090818FE389238C93AFEEB0E0EFEE5B
:101D6000F0E0808180688C93CEC11B8210C0AAEF06
:101D7000B0E0E985FA85208531858B819927F901C5
:101D8000E80FF91F80818C938B818F5F8B83E985AE
:101D9000FA8597818B81891750F31D821E821F82DD
:101DA0001886A7EFB0E0CE010596FC01339680813E
:101DB000282F220F220F220FCE010596FC0132960A
:101DC0008081829586958770820F8C93A6EFB0E014
:101DD000CE010596FC0132968081282F220F220F1A
:101DE000220FCE010596FC01319680818295869561
:101DF0008770820F8C93A5EFB0E0CE010596FC01B1
:101E000031968081982F990F990F990FFE01359681
:101E10008081829586958770890F8C93A4EFB0E0BE
:101E2000FE0135968081880F880F880F8C93AFEE66
:101E3000B0E0EFEEF0E09081E985FA858781892BAB
:101E40008C93E985FA8581E08387A4EFB0E0E4EF25
:101E5000F0E0808184608C93A0EFB0E0E0EFF0E0F0
:101E6000808184608C93AFEEB0E0EFEEF0E0808193
:101E700080628C93A4EFB0E0E4EFF0E080818E7F8D
:101E80008C93AFEEB0E0EFEEF0E090818FE389232A
:101E90008C93AFEEB0E0EFEEF0E0808180688C9341
:101EA00032C1E985FA858485882309F457C0A3EFF8
:101EB000B0E089859A850396FC0133968081282FAE
:101EC000220F220F220F89859A850396FC013296F4
:101ED0008081829586958770820F8C93A2EFB0E007
:101EE00089859A850396FC0132968081282F220FDE
:101EF000220F220F89859A850396FC0131968081F5
:101F0000829586958770820F8C93A1EFB0E08985CA
:101F10009A850396FC0131968081282F220F220F8B
:101F2000220F89859A850396FC018081829586958A
:101F30008770820F8C93A0EFB0E089859A85039615
:101F4000FC018081880F880F880F8C93AFEEB0E082
:101F5000EFEEF0E0808180618C9328C0A3EFB0E0C9
:101F600089859A850396FC0131968081282F2295D8
:101F7000220F207E89859A850396FC0180818695B3
:101F800086958695820F8C93A2EFB0E089859A851D
:101F90000396FC0180818295880F807E8C93AFEE42
:101FA000B0E0EFEEF0E080818F7E8C931B8210C05A
:101FB000AAEFB0E0E985FA85208531858B819927E4
:101FC000F901E80FF91F80818C938B818F5F8B83E0
:101FD000E985FA8597818B81891750F38FEF9FEF01
:101FE000AFEFBFEF8D839E83AF83B887A7EFB0E0DD
:101FF000CE010596FC0133968081282F220F220FF7
:10200000220FCE010596FC0132968081829586953D
:102010008770820F8C93A6EFB0E0CE010596FC018D
:1020200032968081282F220F220F220FCE01059693
:10203000FC0131968081829586958770820F8C9302
:10204000A5EFB0E0CE010596FC0131968081982F76
:10205000990F990F990FFE0135968081829586958B
:102060008770890F8C93A4EFB0E0FE0135968081D4
:10207000880F880F880F8C93AFEEB0E0EFEEF0E0A2
:102080009081E985FA858781892B8C93E985FA858A
:1020900081E08387A4EFB0E0E4EFF0E0808184602A
:1020A0008C93A0EFB0E0E0EFF0E0808184608C934F
:1020B000AFEEB0E0EFEEF0E0808180628C93A4EFB1
:1020C000B0E0E4EFF0E0808181608C93AFEEB0E0AF
:1020D000EFEEF0E090818FE389238C93AFEEB0E0D8
:1020E000EFEEF0E0808180688C930DC0E985FA8581
:1020F000128609C0E985FA858FE182878FEF90E02B
:102100009C878B8702C01C861B868B859C852E96A0
:102110000FB6F894DEBF0FBECDBFDF91CF9108950B
:10212000CF93DF93CDB7DEB728970FB6F894DEBF15
:102130000FBECDBF9C838B83EB81FC8182858A831C
:102140008A81882331F08A818F3119F08A818F3F0B
:1021500029F422E030E038872F83FFC0ADEEB0E0F5
:10216000EB81FC8180818295807F8C930E943B046F
:102170008A838A81282F33273E832D838D819E81F8
:1021800080329105C9F02D813E81213231052CF438
:102190008D819E81009769F0CAC02D813E812034D7
:1021A000310509F4B3C08D819E81803A910521F0FB
:1021B000BEC081E08983CCC0EFEEF0E080818F70FB
:1021C000EB81FC818783EB81FC81808591850E9476
:1021D0008204E0EFF0E080819927847090709595FB
:1021E000879595958795EB81FC818387EFEEF0E0ED
:1021F00080819927807190709595879595958795A1
:102200009595879595958795009709F44CC0EB8136
:10221000FC8181E084878B819C810396DC0113968D
:10222000E3EFF0E080818695869586958C938B818F
:102230009C810396DC011296E2EFF0E08081982FFA
:10224000969596959695E3EFF0E080818295880FBC
:10225000807E890F8C938B819C810396DC01119683
:10226000E1EFF0E08081982F969596959695E2EFB4
:10227000F0E080818295880F807E890F8C938B811E
:102280009C810396DC01E0EFF0E08081982F969529
:1022900096959695E1EFF0E080818295880F807E9B
:1022A000890F8C9322C0EB81FC8114868B819C81E9
:1022B0000396DC011196E3EFF0E08081829586952C
:1022C00087708C938B819C810396DC01E2EFF0E0B8
:1022D0008081982F929596959770E3EFF0E080813A
:1022E000880F880F880F890F8C93EB81FC818A817E
:1022F0008287AFEEB0E0EFEEF0E090818FE38923CC
:102300008C93EEEEF0E01082198222C0EB81FC810A
:102310008A818287AFEEB0E0EFEEF0E090818FE34C
:1023200089238C93EEEEF0E01082198211C0EB81CC
:10233000FC818A818287AFEEB0E0EFEEF0E0908121
:102340008FE389238C93EEEEF0E0108282E08983A4
:102350008981282F332738872F838F819885289666
:102360000FB6F894DEBF0FBECDBFDF91CF910895B9
:10237000CF93DF93CDB7DEB7E1E2F0E08FEF80835C
:10238000E2E2F0E01082DF91CF910895CF93DF93E6
:10239000CDB7DEB721970FB6F894DEBF0FBECDBF25
:1023A0008983E2E2F0E08981808321960FB6F89478
:1023B000DEBF0FBECDBFDF91CF910895CF93DF93E6
:1023C000CDB7DEB7A2E2B0E0E0E2F0E0808199278D
:1023D00082959295907F9827807F9827982FE0E2AA
:1023E000F0E0808182958F70892B8C93DF91CF9163
:1023F0000895CF93DF93CDB7DEB7E0E2F0E08FEF43
:102400008083DF91CF910895CF93DF93CDB7DEB76F
:1024100023970FB6F894DEBF0FBECDBF8A836B83C0
:1024200019828A81883080F58B818823B1F481E01C
:102430008983A2E2B0E0E2E2F0E08081482F8A8165
:10244000282F332781E090E0022E02C0880F991FC9
:102450000A94E2F7809584238C938B818130A1F4D8
:1024600081E08983A2E2B0E0E2E2F0E08081482FDF
:102470008A81282F332781E090E002C0880F991FBE
:102480002A95E2F7842B8C938981992723960FB69E
:10249000F894DEBF0FBECDBFDF91CF910895CF93EB
:1024A000DF93CDB7DEB72A970FB6F894DEBF0FBE25
:1024B000CDBF9A87898780910002813009F045C09D
:1024C000F8948091050290910602A0910702B091C4
:1024D00008028D839E83AF83B887789489859A8517
:1024E0009C01442755278D819E81AF81B885820F3D
:1024F000931FA41FB51F8D839E83AF83B887F89465
:102500002091050230910602409107025091080285
:102510008D819E81AF81B885281739074A075B07EF
:1025200099F189859A859C01442755278091050258
:1025300090910602A0910702B0910802281739076E
:102540004A075B0709F17894DACF1C821B8215C019
:102550001A820BC0198203C089818F5F89838981A8
:102560008A35D0F38A818F5F8A838A81883090F39D
:102570008B819C8101969C838B832B813C818985F7
:102580009A852817390720F32A960FB6F894DEBFEC
:102590000FBECDBFDF91CF910895CF93DF93CDB71D
:1025A000DEB722970FB6F894DEBF0FBECDBFF8940A
:1025B000E0EBF0E01082E2EBF0E01082E3EBF0E021
:1025C00010821A82198205C089819A8101969A83A4
:1025D000898389819A812FEF8F3F9207A9F7A0E71E
:1025E000B0E0E0E7F0E080818E7F8C93A0E7B0E080
:1025F000E0E7F0E080818D7F8C93A0EBB0E0E0EB32
:10260000F0E080818F7C8C93A0EBB0E0E0EBF0E019
:102610008081877B88608C93A6EBB0E0E6EBF0E0EE
:1026200080818F7E88608C93E3EBF0E080E2808392
:10263000A0EBB0E0E0EBF0E08081887F81608C93DC
:10264000E6EBF0E080819927877090700097C1F7E2
:10265000A7E3B0E0E7E3F0E0808182608C93A0E73D
:10266000B0E0E0E7F0E0808182608C931092050298
:1026700010920602109207021092080210920402B1
:102680001092030210920A021092010210920902A3
:102690001092020281E080930002789422960FB695
:1026A000F894DEBF0FBECDBFDF91CF9108951F928A
:1026B0000F920FB60F9211242F938F939F93AF9386
:1026C000BF93CF93DF93CDB7DEB780910502909192
:1026D0000602A0910702B09108020196A11DB11D4A
:1026E0008093050290930602A0930702B09308021C
:1026F00080910302909104020196909304028093CA
:102700000302809103029091040223E0883E920725
:1027100051F5109204021092030280910A028F5F19
:1027200080930A0280910A028C33E9F410920A0223
:10273000809101028F5F80930102809101028C33AE
:1027400091F410920102809109028F5F8093090237
:1027500080910902883139F41092090280910202B5
:102760008F5F80930202DF91CF91BF91AF919F91D4
:102770008F912F910F900FBE0F901F901895CF93B0
:10278000DF93CDB7DEB727970FB6F894DEBF0FBE45
:10279000CDBF40E060E081E00E946E0180E00E94D9
:1027A00015029D838C832C813D8184E690E0289FD7
:1027B000A001299F500D389F500D11242FEF33E0B9
:1027C0008C819D81281B390BCA01B9010E9400151B
:1027D000CB019F838E8387E290E09A83898313C025
:1027E00089819A81880F991FFC01E85FFE4F208143
:1027F00031818E819F818217930750F489819A815C
:1028000001969A83898389819A818C34910544F356
:1028100089819A8101979A83898389819A818632F5
:102820009105E9F487E290E09A83898313C0898156
:102830009A81880F991FFC01E85FFE4F208131814A
:102840008E819F818217930750F089819A81019729
:102850009A83898389819A811816190644F389819C
:102860008F508B838B81992787FD909527960FB684
:10287000F894DEBF0FBECDBFDF91CF910895CF9307
:10288000DF93CDB7DEB726970FB6F894DEBF0FBE45
:10289000CDBF41E060E081E00E946E0181E00E94D6
:1028A00015029C838B832B813C8181E290E0289FE1
:1028B000A001299F500D389F500D11242FEF33E0B8
:1028C0008B819C81281B390BCA01B9010E9400151C
:1028D000CB019E838D8381E0898313C089819927F1
:1028E00087FD9095880F991FFC01E056FE4F2081CF
:1028F00031818D819E818217930730F489818E5FAB
:1029000089838981803354F38981992787FD909544
:102910000197880F991FFC01E056FE4F808191813D
:102920008A838A81992726960FB6F894DEBF0FBE58
:10293000CDBFDF91CF910895CF93DF93CDB7DEB7B1
:102940002A970FB6F894DEBF0FBECDBF42E060E01D
:1029500083E00E946E0182E00E941502AA27BB2735
:102960008B839C83AD83BE838B819C81AD81BE8133
:102970002DE730E040E050E0BC01CD010E94E114C1
:10298000DC01CB018F839887A987BA878F819885CF
:10299000A985BA8524E630E040E050E0BC01CD01D5
:1029A0000E941415DA01C9019A83898389819A8169
:1029B0002A960FB6F894DEBF0FBECDBFDF91CF9140
:1029C0000895629FD001739FF001829FE00DF11D79
:1029D000649FE00DF11D929FF00D839FF00D749F99
:1029E000F00D659FF00D9927729FB00DE11DF91F45
:1029F000639FB00DE11DF91FBD01CF0111240895A2
:102A0000AA1BBB1B51E107C0AA1FBB1FA617B70714
:102A100010F0A61BB70B881F991F5A95A9F7809530
:102A20009095BC01CD010895A1E21A2EAA1BBB1BF3
:102A3000FD010DC0AA1FBB1FEE1FFF1FA217B3078A
:102A4000E407F50720F0A21BB30BE40BF50B661FA0
:102A5000771F881F991F1A9469F760957095809564
:0C2A600090959B01AC01BD01CF010895D1
:102A6C0064001E001C010000910358032403F302B0
:102A7C00C3029B0274024F022C020C02EE01D10124
:102A8C00B7019E01870171015D014A0138012701DF
:102A9C0017010801FA00ED00E100D500CA00C000E2
:102AAC00B600AD00A4009C0094008D008600800050
:102ABC00790074006E00690064005F005B005700D1
:102ACC0053004F004B004800450042003F003C00C3
:102ADC003A0037003500320030002E002C002B005D
:102AEC0029002700260024002300210020001F00BD
:102AFC001D001C001B001A001900180017001600FE
:102B0C000000080701001A04020048030400BC027C
:102B1C00080062020C003002110008021700D601F6
:102B2C001E00A40124007C012C004A0132002C015F
:102B3C00390004013F00DC004600B4004D008C005D
:102B4C00550064005B00460062002800670014001A
:102B5C006E000A007800050087000200A00001004A
:00000001FF
