:100000000C944A000C9467000C9467000C946700F1
:100010000C9467000C9467000C9467000C946700C4
:100020000C9467000C94BB010C9467000C9467005F
:100030000C9467000C9467000C9467000C946700A4
:100040000C9467000C9467000C9467000C94670094
:100050000C9467000C9467000C9467000C94670084
:100060000C9467000C9467000C9467000C94670074
:100070000C9467000C9467000C9467000C94670064
:100080000C9467000C9467000C9467000C94670054
:100090000C94670011241FBECFEFD0E1DEBFCDBFAF
:1000A00011E0A0E0B1E0E0E5F4E000E00BBF02C049
:1000B00007900D92A030B107D9F711E0A0E0B1E0B0
:1000C00001C01D92AB30B107E1F70C9469000C94AC
:1000D0000000F89480E880936100109261000E9413
:1000E000FB000E9497000E946A010E94AB008230D0
:1000F00029F0853031F0813051F406C03091020191
:1001000008C03091090105C03091010102C0309151
:100110000A01832F6AE00E941C02292F832F0E946C
:100120001C028295807F822B0E94FF00DECF6C989C
:100130006F986E986D986A98749A779A769A759A6D
:10014000729A08958CB19CB12CB1892B822B809529
:10015000847F992708952CB18CB19CB1282B292B31
:100160002095247F243409F442C0253490F42032B1
:1001700051F1213238F4203101F12431A1F1243040
:10018000B9F523C0203339F12034D9F0243281F578
:1001900012C0243851F1253838F4203611F12038B6
:1001A00071F0203529F513C0203AB9F0203C89F0D0
:1001B0002039F1F414C02FE01BC021E019C022E067
:1001C00017C023E015C024E013C025E011C026E0CD
:1001D0000FC027E00DC028E00BC029E009C02AE0CD
:1001E00007C02BE005C02CE003C02DE001C02EE0CD
:1001F000822F992708958FEF81B912B8089582B997
:10020000089590B180B19295907F82958F70982BD0
:1002100092B908958FEF80B90895382F8830D8F4B7
:10022000662359F422B181E090E002C0880F991F43
:100230003A95E2F7809528230BC0613061F422B132
:1002400081E090E002C0880F991F3A95E2F7282BD1
:1002500022B981E001C080E099270895EF92FF92D2
:100260000F931F93BC0180910001813071F5F894C8
:10027000209105013091060140910701509108013C
:1002800078947B01002711272E0D3F1D401F511F21
:10029000F8948091050190910601A0910701B09119
:1002A000080182179307A407B50779F0809105012B
:1002B00090910601A0910701B09108018E159F054C
:1002C000A007B10711F07894E3CF1F910F91FF9031
:1002D000EF900895F8941092B0001092B20010922E
:1002E000B300809170008E7F8093700080917000C9
:1002F0008D7F809370008091B0008F7C8093B000E0
:100300008091B000877B88608093B0008091B600B8
:100310008F7E88608093B60080E28093B3008091E6
:10032000B000887F81608093B0008091B6009927EB
:1003300087709070892BC9F7B99A8091700082609C
:10034000809370001092050110920601109207012F
:1003500010920801109204011092030110920A01F8
:1003600010920101109209011092020181E0809324
:100370000001789408951F920F920FB60F921124E6
:100380002F938F939F93AF93BF938091050190918B
:100390000601A0910701B09108010196A11DB11DB0
:1003A0008093050190930601A0930701B093080183
:1003B0008091030190910401019690930401809330
:1003C00003018091030190910401885E934051F5EF
:1003D000109204011092030180910A018F5F8093B3
:1003E0000A0180910A018C33E9F410920A0180918C
:1003F00001018F5F80930101809101018C3391F4A1
:1004000010920101809109018F5F80930901809111
:100410000901883139F410920901809102018F5F3E
:1004200080930201BF91AF919F918F912F910F9077
:100430000FBE0F901F901895991B79E004C0991F6B
:10044000961708F0961B881F7A95C9F7809508952E
:00000001FF
