:020000021000EC
:10E000000C944AF00C9467F00C9467F00C9467F051
:10E010000C9467F00C9467F00C9467F00C9467F024
:10E020000C9467F00C9467F00C9467F00C9467F014
:10E030000C9467F00C9467F00C9467F00C9467F004
:10E040000C9467F00C9467F00C9467F00C9467F0F4
:10E050000C9467F00C9467F00C9467F00C9467F0E4
:10E060000C9467F00C9467F00C9467F00C9467F0D4
:10E070000C9467F00C9467F00C9467F00C9467F0C4
:10E080000C9467F00C9467F00C9467F00C9467F0B4
:10E090000C9467F011241FBECFEFD0E1DEBFCDBFDF
:10E0A00011E0A0E0B1E0E6EFF5EF01E00BBF02C048
:10E0B00007900D92AA30B107D9F712E0AAE0B1E0BB
:10E0C00001C01D92A034B107E1F70C9469F00C94E3
:10E0D00000F00F931F93F89484B7882311F114BEB6
:10E0E0005098589A09B10095017080E09FEF0E9406
:10E0F00050F88F3F19F0002319F013C0002389F066
:10E1000088E09FEF0E9450F8082F89E09FEF0E945F
:10E1100050F81127102F00279927802B912B0E9450
:10E1200021F810921202569855985E9A5D9A01E075
:10E13000009501704E99FECF81E08093D80082E077
:10E140009FEF0E9450F88F3F99F083E09FEF0E946D
:10E1500050F88093E20084E09FEF0E9450F8809393
:10E16000E30085E09FEF0E9450F88093E40005C033
:10E17000802F0E9430F18823D9F30E94CFF0809144
:10E18000D80082608093D80080911202882311F415
:10E190000E94E2F20E942CF38823E1F7C9CF20E02D
:10E1A00030E0822F8295807F8093ED00EEEEF0E0EC
:10E1B0001192E83FF105E1F72F5F3F4F2F30310516
:10E1C00081F708954091ED0020E030E0822F8295A4
:10E1D000807F8093ED008091EF00807C29F4409354
:10E1E000ED00822F992708952F5F3F4F2F30310583
:10E1F00069F74093ED008FEF90E008958091EF0074
:10E20000807C19F48FEF90E008959091EE00892FB3
:10E21000807E803221F0803411F0803A11F4992709
:10E220000895892F8F7119F480E090E0089599275F
:10E230000895BC0140E050E005C0E60FF71F809153
:10E24000FA008083242F8091EF004F5F5F4FE22F11
:10E25000FF2799278F709070E817F90774F30895D6
:10E26000AF92BF92CF92DF92EF92FF920F931F93E4
:10E27000CF93DF93CDB7DEB721970FB6F894DEBF0B
:10E280000FBECDBF882359F471E0E72E63E018E09C
:10E29000A2E0B2E070E051E040E001E056C08091C1
:10E2A000E2008E7719F461E0E62E09C08091E20069
:10E2B00099278E77907095958795E82EE3948091B5
:10E2C000E3008E7011F461E009C08091E3009927AA
:10E2D0008E70907095958795682F6F5F8091E400A0
:10E2E0008E70833010F4A2E009C08091E400992779
:10E2F0008E70907095958795A82FAF5F8091E40000
:10E300008077813110F4B2E00CC08091E40099274D
:10E310008077907024E0959587952A95E1F7B82F3E
:10E32000BF5F2B2F2A0F312D311DC901860F911D83
:10E33000089714F418E005C01B2F1A0F6F5F160F13
:10E34000615071E050E041E000E020E030E0822FD9
:10E350008295807F8093ED00EEEEF0E01192E83F31
:10E36000F105E1F72F5F3F4F2F30310581F7FF2493
:10E37000AA24BB24DD24CE2CCC0C3EEFC30E0130EE
:10E3800019F081E0898381C00093D8000894A11C12
:10E39000B11CC092E2002B2F26953327215030402C
:10E3A00085E0220F331F8A95E1F7862F9927019781
:10E3B000880F991F282B2093E3002A2F3327215001
:10E3C0003040220F331F8B2F9927019734E0880F9D
:10E3D000991F3A95E1F78160822B8093E400C50193
:10E3E00023E0969587952A95E1F78093E5001092B2
:10E3F000ED001092EE0080E88093EF008AE08093B9
:10E40000D8008091D90082FFFCCF8FEF8093DA0093
:10E41000FF24B7CF8091EE00992785FF11C080912E
:10E42000EF008F738093EF001092D8008091D90095
:10E4300082FDFCCF198250E040E081E0D82E7EC002
:10E440008F719070892B11F050E041E08091DA00DB
:10E45000282F332725FF11C0FF2041F48091DA00D7
:10E4600080628093DA00F1E0FF2E07C08091DA002D
:10E4700080628093DA0050E041E02F703070232BEF
:10E4800021F050E041E001E059C0513019F256C08E
:10E490007111AF5FA930F0F0B830F0F0193111F020
:10E4A0001F5F07C0E0E4EE1641F0E394F2E0CF0E08
:10E4B00018E0A2E0B2E070E0EBCF8091EF008F7344
:10E4C0008093EF001092D8008091D90082FDFCCF9C
:10E4D000DD243BC0A63050F02A2F33278B2F9927FD
:10E4E0000196821793071CF4AB2FAF5FBA2F8A2FC8
:10E4F0008B0F612F681B6150862F81508830E0F4AC
:10E500004B2F55272A2F33272F5F3F4F260F311DC3
:10E51000CA01880F991F880F991F8217930764F00B
:10E52000CA01880F991F480F591F2417350724F077
:10E5300071E051E040E005C071E0AACF413009F43C
:10E54000A7CF2981213009F41ACF8D2D9927219643
:10E550000FB6F894DEBF0FBECDBFDF91CF911F91F4
:10E560000F91FF90EF90DF90CF90BF90AF90089504
:10E5700081E08093D8001092E2001092E3001092A4
:10E58000E40081E090E0089582E292E00E943DF58F
:10E590008823D1F782E292E00E94E9F58130D1F33D
:10E5A0000895809120029091210206969093260270
:10E5B0008093250210922D0281E0809329020E940F
:10E5C000C4F20895CF93DF931092390210923A0269
:10E5D0001092360210923502C1E0D0E0D09338029A
:10E5E000C093370210923F0287E09FEF0E9450F8DD
:10E5F000992724E0880F991F2A95E1F7909321022B
:10E6000080932002815F974020F0109221021092A7
:10E6100020028AE092E090931C0280931B021092E9
:10E620001F0210921E0280EF97E0909319028093D0
:10E63000180282E090E090931502809314028DE21C
:10E6400092E090932B0280932A02D0932402C093ED
:10E650002302DF91CF9108951F9388E080931A02DF
:10E6600080912002909121029093170280931602CC
:10E6700083E192E00E943DF58823D1F783E192E0A7
:10E680000E94E9F5482F8130C9F3823019F480E007
:10E6900090E0F1C120912002309121028091160278
:10E6A00090911702821B930B8230910509F4B6C03A
:10E6B0008330910530F4009781F0019709F0D9C1BA
:10E6C00040C08430910509F483C18430910508F479
:10E6D00009C1069709F0CDC19DC110910A0286E0DB
:10E6E0009FEF0E9450F8181729F080910A028F3F7F
:10E6F00009F0BFC190911A02913009F0BAC180911E
:10E700001202882339F49093120210923902109267
:10E710003A0204C01092120210923F02809120022D
:10E7200090912102909326028093250282E08093AB
:10E73000290284E080932D028091120280932E02A0
:10E7400096C180911202882309F493C180910A0234
:10E75000803881F480910B028F3F09F077C180915E
:10E760000C028F3F09F072C10E94CEFA882309F093
:10E770003FC06CC1882309F069C160910D02772701
:10E78000762F662780910E029927682B792B80912E
:10E790000B029927982F882720910C023327822B70
:10E7A000932B0E9431F810921F0210921E0221E05A
:10E7B00020933F02809135029091360290933E0261
:10E7C00080933D02809137029091380290933C02F1
:10E7D00080933B02809120029091210201969093B8
:10E7E00026028093250210922D022093290213C045
:10E7F00080912002909121020196909326028093AD
:10E80000250210922D0281E08093290280913F021F
:10E81000813009F02CC11092290229C18091120285
:10E82000882309F426C180913F02813009F00EC18E
:10E8300020911A0260911E0270911F02DB01A65FF7
:10E84000BE4F90E008C0E92FFF27E65FFD4F8081B3
:10E850008D939F5F40E09217B1F7620F711D709327
:10E860001F0260931E02693F710538F480913702E0
:10E87000909138026817790749F48AE091E00E9484
:10E880005AF8482F10921F0210921E028091200207
:10E89000909121020296909326028093250281E0B6
:10E8A00080932902442321F482E080932D02DFC06B
:10E8B0004130A9F410922D0210923F0280913D0246
:10E8C00090913E02909336028093350280913B02F4
:10E8D00090913C029093380280933702C8C0109206
:10E8E0003F02B4C080911202882309F4C2C02D5F98
:10E8F0003F4F309326022093250210922902609107
:10E900000D027727762F662780910E029927682BB4
:10E91000792B80910B029927982F882720910C0240
:10E920003327822B932B0E9431F8809135029091EE
:10E93000360290933E0280933D028091370290917F
:10E94000380290933C0280933B0280910A02882314
:10E95000C1F488E08093290268E070E08DE292E0E3
:10E960000E9447F9882319F40E94C4F2F5CF813040
:10E9700029F4809137028093290217C00E94D1F2B6
:10E9800016C0803809F062C00E94D6F8882369F466
:10E9900082E0809329022091350230913602832F44
:10E9A000992780932D0220932E020E94C4F2809119
:10E9B0003D0290913E029093360280933502809101
:10E9C0003B0290913C02909338028093370251C0F1
:10E9D00080911202882309F44CC080910A0283308E
:10E9E000A9F580910B02882331F480916000886042
:10E9F00080936000FFCF813049F580910C02992708
:10EA0000982F882720910D023327822B932B0E9469
:10EA100021F82FC080911202882359F180910A02B7
:10EA20008823B9F0813029F480910B020E942BF8E1
:10EA300010C0823031F0833049F480910B020E9483
:10EA40002BF880910C020E942EF803C00E94D1F294
:10EA500010C0809120029091210206969093260288
:10EA60008093250281E08093290210922D020E945A
:10EA7000C4F281E090E01F910895CF93DF93DC0111
:10EA800080E6ED018A8789819A818130910509F0BC
:10EA900048C08EE08C9380EE8093ED00EEEEF0E0C7
:10EAA0001192E83FF105E1F78091EF008F7E8093AE
:10EAB000EF00FD01948183819295990F907E869558
:10EAC00086958695980F9093F30083818295880FA1
:10EAD000807E8093F2008091EF008F7E8093EF0024
:10EAE000278190E009C0ED01E885F985E90FF11D66
:10EAF00080818093FA009F5F9217A9F78091F000C0
:10EB00008B7F8093F0008091EF00822B8093EF0049
:10EB10008091EF008F738093EF008091EF0080640D
:10EB200051C0029711F08FEF50C01C921092ED006F
:10EB3000EEEEF0E01192E83FF105E1F78091EF0091
:10EB40008F7E8093EF00FD01948183819295990FD0
:10EB5000907E869586958695980F9093F300838195
:10EB60008295880F807E8093F2008091EF008F7EE7
:10EB70008093EF00968185819295990F907E86957E
:10EB800086958695980F9093F70085818295880FDA
:10EB9000807E8093F6008091F40084608093F4007E
:10EBA0008091F0008B7F8093F0008091F400816071
:10EBB0008093F4008091EF008F738093EF00809139
:10EBC000EF0080688093EF0080E09927DF91CF917C
:10EBD00008951F93CF93DF93EC018A85882309F46E
:10EBE0004BC08F3109F448C08F3F09F445C088817C
:10EBF0008295807F8093ED000E94FEF0182F803276
:10EC000061F0813218F4882331F02BC08034F9F0A0
:10EC1000803A39F502C081E02DC08091EF008F70FD
:10EC20008F83888599850E9419F18091F3008295E0
:10EC3000869587708C839091F2008091F300929575
:10EC400096959770880F880F880F980F9B831A8767
:10EC50008091EF008F738093EF001092EE0080E0C0
:10EC600009C01A878091EF008F738093EF00109294
:10EC7000EE0082E0992702C082E090E0DF91CF9120
:10EC80001F9108950F930B01FC0101E007BFE89568
:10EC9000112407B600FCFDCF0F9108950F9307B61E
:10ECA00000FCFDCFFC0105E007BFE89507B600FCBE
:10ECB000FDCF0F9108950F9307B600FCFDCFFC0127
:10ECC00003E007BFE89507B600FCFDCF0F9108955C
:10ECD0002BB7332744275527A90133272227AA27F3
:10ECE000BB27282B392B4A2B5B2B4BBFF32FE22F53
:10ECF000D895202D822F992708952BB733274427A5
:10ED00005527A90133272227AA27BB27282B392BD0
:10ED10004A2B5B2B4BBFF32FE22FD895802D0BB6E0
:10ED20003196011C0BBED895902D0895CF93DF939B
:10ED3000BC016070C0E0D0E08BB79927AA27BB2741
:10ED4000DC01992788279B0144275527822B932B89
:10ED5000A42BB52BABBFF92FE82FD895802D0BB680
:10ED60003196011C0BBED895902D8F5F9F4F19F0E7
:10ED700080E090E108C06E5F7F4F2196C038D105DA
:10ED8000D9F680E090E07070862B972BDF91CF91C1
:10ED90000895DF92EF92FF920F931F93DBB6EE245C
:10EDA000FF248701C801AA27BB278BBFC7010E9488
:10EDB0005BF680E091E0A0E0B0E0E80EF91E0A1FEB
:10EDC0001B1F90E0E91690EEF90691E0090790E02C
:10EDD000190741F7DBBE1F910F91FF90EF90DF9075
:10EDE00008953F924F925F926F927F928F929F927F
:10EDF000AF92BF92CF92DF92EF92FF920F931F9349
:10EE0000CF93DF934C012B01EA013FB6F8948B01BD
:10EE1000007082C082E090E0E80EF91E209709F4AD
:10EE200046C0E414F50440F0F40181914F01C82E6E
:10EE3000DD242197C9F422C08BB79927AA27BB27C5
:10EE4000DC0199278827970144275527822B932B8C
:10EE5000A42BB52BABBFF92FE82FD895802DC82E4A
:10EE6000DD24A414B50451F4F40181914F019927D4
:10EE7000782F66276C297D29219732C08BB7992777
:10EE8000AA27BB27DC019927882795014427552706
:10EE9000822B932BA42BB52BABBFF92FE82FD89542
:10EEA000802D9927782F66276C297D2919C08BB76B
:10EEB0009927AA27BB27DC01992788279701442790
:10EEC0005527822B932BA42BB52BABBFF92FE82F03
:10EED000D895602D0BB63196011C0BBED895702DC0
:10EEE000C7010E9442F60894611C711C82E090E008
:10EEF000A80EB91E90E86916710409F08BCFC801FD
:10EF00000E9496F6892B19F0C8010E945BF6C80191
:10EF10000E944EF600501F4F209741F05801089470
:10EF2000A11CB11C78016624772478CF002401E16C
:10EF300007BFE89507B600FCFDCF37FE01C0789407
:10EF4000DF91CF911F910F91FF90EF90DF90CF90C5
:10EF5000BF90AF909F908F907F906F905F904F90F9
:10EF60003F900895CF93DF93CDB7DEB721970FB6CB
:10EF7000F894DEBF0FBECDBF698341E050E0BC0115
:10EF8000CE0101960E94F1F621960FB6F894DEBFED
:10EF90000FBECDBFDF91CF910895F999FECFFC014F
:10EFA000E1BDF2BDF89A80B599270895F999FECF91
:10EFB000FC01E1BDF2BD60BDFA9AF99A0895DC0149
:10EFC0000EC08C91F999FECFFB01E1BDF2BD80BD71
:10EFD000FA9AF99A11966F5F7F4F41505040411550
:10EFE000510579F7089520E030E09FEFF999FECFC1
:10EFF000F901E1BDF2BDF89A80B58F3F41F0F99972
:10F00000FECFF901E1BDF2BD90BDFA9AF99A2F5FEA
:10F010003F4F80E12030380748F308959C01DB0121
:10F020000CC0F999FECFF901E1BDF2BDF89A80B5A7
:10F030008D932F5F3F4F415050404115510589F747
:10F04000089520E78030920718F4FC010994089590
:10F050000C940000089580933902089580933A0239
:10F0600008959093360280933502681B790B6F5F89
:10F070007F4F709338026093370208951F931BB738
:10F0800021E02BBF0E94F1F61BBF1F9108951F9333
:10F090001BB721E02BBF0E94B2F71BBF1F91089541
:10F0A0001F931BB721E02BBF0E9468F61BBF992757
:10F0B0001F9108950F931F93CF93DF938C01EB0162
:10F0C000809139028130C9F0813020F0843009F01C
:10F0D00065C03AC081E09FEF0E9450F88F3F09F071
:10F0E0005DC080913A028BBF60913502709136020B
:10F0F000AE01C8010E94F1F60FC081E09FEF0E94AF
:10F1000050F88F3F09F04AC0609135027091360285
:10F11000AE01C8010E94DFF780913502909136025E
:10F120008C0F9D1F90933602809335028091370299
:10F13000909138028C1B9D0B90933802809337027C
:10F1400020E0892B61F528C081E09FEF0E9450F8F4
:10F150008F3F59F4609135027091360260507140D2
:10F16000AE01C8010E943EF8D7CF81E09FEF0E9418
:10F1700050F88E3F99F480913502909136020197B4
:10F1800069F4219759F4F80180818C3F39F46CEFD0
:10F1900081E09FEF0E9447F821E001C02FEF822F0E
:10F1A0009927DF91CF911F910F9108958091390296
:10F1B000813041F1813020F0843009F063C03FC0DC
:10F1C00080913A028BBF80913502909136020E9465
:10F1D00068F68F3F09F058C0809135029091360251
:10F1E0000196909336028093350280913702909178
:10F1F000380201979093380280933702892B09F4E3
:10F2000041C0E1CF80913502909136020E94CDF746
:10F210008F3FD1F5809135029091360201969093FF
:10F22000360280933502809137029091380201971F
:10F230009093380280933702892B21F1E3CF80919C
:10F24000350290913602805091400E9450F82091F2
:10F25000350230913602F901E050FF4F9081891755
:10F2600099F42F5F3F4F30933602209335028091FF
:10F2700037029091380201979093380280933702B9
:10F28000892BE9F681E001C080E099270895EF928B
:10F29000FF920F931F93CF93DF937C01EB0180913B
:10F2A0003902823009F49FC0833030F4882371F032
:10F2B000813009F068C153C0843009F403C184303F
:10F2C00008F4CBC0853009F05EC129C181E09FEF11
:10F2D0000E9450F88F3F39F081E09FEF0E9450F874
:10F2E0008E3F09F050C180913A028BBF209741F0C8
:10F2F00080913702909138028C179D0708F4EC0139
:10F3000000E010E01DC080913502909136020E940D
:10F3100068F6F70181937F01809135029091360262
:10F320000196909336028093350280913702909136
:10F330003802019790933802809337020F5F1F4F76
:10F340000C171D0701F78091370290913802892B25
:10F3500009F01BC1D0933802C093370242C081E04C
:10F360009FEF0E9450F88F3F39F081E09FEF0E949D
:10F3700050F88E3F09F007C1009137021091380212
:10F38000C017D10708F48E01C0E0D0E01CC0809106
:10F390003502909136020E94CDF7F70181937F01EB
:10F3A00080913502909136020196909336028093B7
:10F3B000350280913702909138020197909338027C
:10F3C000809337022196C017D10709F78091370241
:10F3D00090913802892B09F0D8C01093380200931D
:10F3E000370281E0D3C02091370230913802621792
:10F3F000730708F49B01F70140E050E0AEE171E8CB
:10F4000067E927C08091350290913602009711F488
:10F41000A0830AC08130910511F4708305C0029762
:10F4200011F4608301C01082809135029091360200
:10F430000196909336028093350280913702909125
:10F440003802019790933802809337024F5F5F4FE5
:10F45000319642175307B1F68BC020913702309195
:10F4600038026217730708F49B01F70140E050E08F
:10F47000A4E071ED62ED22C08091350290913602D8
:10F48000009711F4A08305C0019711F4708301C0A7
:10F4900060838091350290913602019690933602F6
:10F4A00080933502809137029091380201979093B2
:10F4B0003802809337024F5F5F4F319642175307F0
:10F4C000D9F656C0009137021091380260177107C3
:10F4D00008F48B01C0E0D0E01EC08091350290910D
:10F4E0003602805091400E9450F8F70181937F01CD
:10F4F0008091350290913602019690933602809366
:10F50000350280913702909138020197909338022A
:10F51000809337022196C017D107F9F657CF209173
:10F520003702309138026217730708F49B0140E0FC
:10F5300050E0D7011AC0E0913502F0913602808187
:10F540008D93809135029091360201969093360208
:10F550008093350280913702909138020197909301
:10F560003802809337024F5F5F4F4217530719F7F6
:10F570008091370290913802892B39F43093380208
:10F58000209337022ECF8FEF01C080E09927DF91C3
:10F59000CF911F910F91FF90EF90089580913902C4
:10F5A000813069F0813018F0843011F512C00E946A
:10F5B000C9F66FEF81E09FEF0E9447F808C081E035
:10F5C0009FEF0E9450F88F3F99F40E94F3F781E07B
:10F5D00010C081E09FEF0E9450F88F3F49F44AE04D
:10F5E00050E060E07FEF80E091E00E943EF8EFCFD6
:06F5F00080E09927089558
:0AF5F600FFFFFFFFFFFFFF00000012
:0AFF0000FFFFFFFFFFFFFF000000FE
:06FFFA000E94F1F60895DB
:040000031000E00009
:00000001FF
