:106000000C944A300C9465300C9465300C946530D7
:106010000C9465300C9465300C9465300C946530AC
:106020000C9465300C9465300C9465300C9465309C
:106030000C9465300C9465300C9465300C9465308C
:106040000C9465300C9465300C9465300C9465307C
:106050000C9465300C9465300C9465300C9465306C
:106060000C9465300C9465300C9465300C9465305C
:106070000C9465300C9465300C9465300C9465304C
:106080000C9465300C9465300C9465300C9465303C
:106090000C94653011241FBECFEFD8E0DEBFCDBF1A
:1060A00011E0A0E0B1E0EAEBF4E702C005900D9248
:1060B000AA30B107D9F712E0AAE0B1E001C01D9201
:1060C000A034B107E1F70C9467300C9400300F93C3
:1060D0001F93F89484B7882311F114BE5098589AEE
:1060E00009B10095017080E09FE70E94C1378F3FA2
:1060F00019F0002319F013C0002389F088E09FE70E
:106100000E94C137082F89E09FE70E94C1371127FD
:10611000102F00279927802B912B0E949E371092D9
:106120001202569855985E9A5D9A01E000950170AA
:106130004E99FECF81E08093D80082E09FE70E94D5
:10614000C1378F3F99F083E09FE70E94C13780936A
:10615000E20084E09FE70E94C1378093E30085E07E
:106160009FE70E94C1378093E40005C0802F0E9402
:106170002E318823D9F30E94CD308091D8008260DF
:106180008093D80080911202882311F40E94E0329B
:106190000E942A338823E1F7C9CF20E030E0822F24
:1061A0008295807F8093ED00EEEEF0E01192E83F63
:1061B000F105E1F72F5F3F4F2F30310581F708954B
:1061C0004091ED0020E030E0822F8295807F809327
:1061D000ED008091EF00807C29F44093ED00822F48
:1061E000992708952F5F3F4F2F30310569F740936E
:1061F000ED008FEF90E008958091EF00807C19F41E
:106200008FEF90E008959091EE00892F807E80328C
:1062100021F0803411F0803A11F499270895892FE4
:106220008F7119F480E090E0089599270895BC01DA
:1062300040E050E005C0E60FF71F8091FA00808330
:10624000242F8091EF004F5F5F4FE22FFF279927A8
:106250008F709070E817F90774F30895AF92BF92AA
:10626000CF92DF92EF92FF920F931F93CF93DF9322
:10627000CDB7DEB721970FB6F894DEBF0FBECDBF06
:10628000882359F471E0E72E63E018E0A2E0B2E061
:1062900070E051E040E001E056C08091E2008E776E
:1062A00019F461E0E62E09C08091E20099278E770B
:1062B000907095958795E82EE3948091E3008E7019
:1062C00011F461E009C08091E30099278E7090700D
:1062D00095958795682F6F5F8091E4008E7083306D
:1062E00010F4A2E009C08091E40099278E709070AC
:1062F00095958795A82FAF5F8091E40080778131D5
:1063000010F4B2E00CC08091E4009927807790707F
:1063100024E0959587952A95E1F7B82FBF5F2B2F3D
:106320002A0F312D311DC901860F911D089714F4D4
:1063300018E005C01B2F1A0F6F5F160F615071E038
:1063400050E041E000E020E030E0822F8295807F45
:106350008093ED00EEEEF0E01192E83FF105E1F7F9
:106360002F5F3F4F2F30310581F7FF24AA24BB2434
:10637000DD24CE2CCC0C3EEFC30E013019F081E0B1
:10638000898381C00093D8000894A11CB11CC092DD
:10639000E2002B2F269533272150304085E0220F35
:1063A000331F8A95E1F7862F99270197880F991F48
:1063B000282B2093E3002A2F332721503040220F2F
:1063C000331F8B2F9927019734E0880F991F3A9537
:1063D000E1F78160822B8093E400C50123E096956C
:1063E00087952A95E1F78093E5001092ED001092D1
:1063F000EE0080E88093EF008AE08093D8008091DF
:10640000D90082FFFCCF8FEF8093DA00FF24B7CF53
:106410008091EE00992785FF11C08091EF008F7366
:106420008093EF001092D8008091D90082FDFCCFBC
:10643000198250E040E081E0D82E7EC08F719070CC
:10644000892B11F050E041E08091DA00282F3327AA
:1064500025FF11C0FF2041F48091DA008062809313
:10646000DA00F1E0FF2E07C08091DA0080628093AD
:10647000DA0050E041E02F703070232B21F050E023
:1064800041E001E059C0513019F256C07111AF5FBF
:10649000A930F0F0B830F0F0193111F01F5F07C0EB
:1064A000E0E4EE1641F0E394F2E0CF0E18E0A2E053
:1064B000B2E070E0EBCF8091EF008F738093EF003C
:1064C0001092D8008091D90082FDFCCFDD243BC022
:1064D000A63050F02A2F33278B2F99270196821749
:1064E00093071CF4AB2FAF5FBA2F8A2F8B0F612F4E
:1064F000681B6150862F81508830E0F44B2F552760
:106500002A2F33272F5F3F4F260F311DCA01880FD7
:10651000991F880F991F8217930764F0CA01880F8B
:10652000991F480F591F2417350724F071E051E0D7
:1065300040E005C071E0AACF413009F4A7CF29811E
:10654000213009F41ACF8D2D992721960FB6F89492
:10655000DEBF0FBECDBFDF91CF911F910F91FF9096
:10656000EF90DF90CF90BF90AF90089581E080933F
:10657000D8001092E2001092E3001092E40081E053
:1065800090E0089582E292E00E943B358823D1F7A3
:1065900082E292E00E94E7358130D1F30895809144
:1065A0002002909121020696909326028093250264
:1065B00010922D0281E0809329020E94C232089538
:1065C000CF93DF931092390210923A021092360262
:1065D00010923502C1E0D0E0D0933802C093370268
:1065E00010923F0287E09FE70E94C137992724E07D
:1065F000880F991F2A95E1F790932102809320023A
:10660000815F974020F010922102109220028AE0D0
:1066100092E090931C0280931B0210921F02109232
:106620001E0280EF97E0909319028093180282E097
:1066300090E090931502809314028DE292E0909383
:106640002B0280932A02D0932402C0932302DF916D
:10665000CF9108951F9388E080931A0280912002C1
:1066600090912102909317028093160283E192E0A9
:106670000E943B358823D1F783E192E00E94E73501
:10668000482F8130C9F3823019F480E090E0F1C1E5
:1066900020912002309121028091160290911702E0
:1066A000821B930B8230910509F4B6C083309105AB
:1066B00030F4009781F0019709F0D9C140C08430CF
:1066C000910509F483C18430910508F409C1069746
:1066D00009F0CDC19DC110910A0286E09FE70E949A
:1066E000C137181729F080910A028F3F09F0BFC106
:1066F00090911A02913009F0BAC180911202882358
:1067000039F4909312021092390210923A0204C0A6
:106710001092120210923F02809120029091210269
:10672000909326028093250282E08093290284E0E0
:1067300080932D028091120280932E0296C1809147
:106740001202882309F493C180910A02803881F4EF
:1067500080910B028F3F09F077C180910C028F3F2F
:1067600009F072C10E94303A882309F03FC06CC121
:10677000882309F069C160910D027727762F66277B
:1067800080910E029927682B792B80910B02992713
:10679000982F882720910C023327822B932B0E945D
:1067A000AE3710921F0210921E0221E020933F028A
:1067B000809135029091360290933E0280933D0283
:1067C000809137029091380290933C0280933B0273
:1067D000809120029091210201969093260280934D
:1067E000250210922D022093290213C080912002CD
:1067F0009091210201969093260280932502109297
:106800002D0281E08093290280913F02813009F0BE
:106810002CC11092290229C180911202882309F407
:1068200026C180913F02813009F00EC120911A02E9
:1068300060911E0270911F02DB01A65FBE4F90E0C7
:1068400008C0E92FFF27E65FFD4F80818D939F5F92
:1068500040E09217B1F7620F711D70931F026093B1
:106860001E02693F710538F4809137029091380219
:106870006817790749F48AE091E00E94C537482FEC
:1068800010921F0210921E0280912002909121020C
:106890000296909326028093250281E0809329023C
:1068A000442321F482E080932D02DFC04130A9F41B
:1068B00010922D0210923F0280913D0290913E0273
:1068C000909336028093350280913B0290913C0276
:1068D0009093380280933702C8C010923F02B4C030
:1068E00080911202882309F4C2C02D5F3F4F30937C
:1068F0002602209325021092290260910D0277272B
:10690000762F662780910E029927682B792B80912C
:106910000B029927982F882720910C023327822B6E
:10692000932B0E94AE37809135029091360290935E
:106930003E0280933D0280913702909138029093FD
:106940003C0280933B0280910A028823C1F488E0D4
:106950008093290268E070E08DE292E00E94AC38FA
:10696000882319F40E94C232F5CF813029F4809136
:1069700037028093290217C00E94CF3216C0803898
:1069800009F062C00E943E38882369F482E0809357
:1069900029022091350230913602832F9927809366
:1069A0002D0220932E020E94C23280913D029091CE
:1069B0003E02909336028093350280913B02909183
:1069C0003C02909338028093370251C080911202AA
:1069D000882309F44CC080910A028330A9F5809184
:1069E0000B02882331F480916000886080936000FE
:1069F000FFCF813049F580910C029927982F882785
:106A000020910D023327822B932B0E949E372FC09B
:106A100080911202882359F180910A028823B9F0EB
:106A2000813029F480910B020E94A83710C0823077
:106A300031F0833049F480910B020E94A837809195
:106A40000C020E94AB3703C00E94CF3210C080916D
:106A500020029091210206969093260280932502AF
:106A600081E08093290210922D020E94C23281E0BF
:106A700090E01F910895CF93DF93DC0180E6ED0154
:106A80008A8789819A818130910509F048C08EE01A
:106A90008C9380EE8093ED00EEEEF0E01192E83FF3
:106AA000F105E1F78091EF008F7E8093EF00FD010B
:106AB000948183819295990F907E8695869586958F
:106AC000980F9093F30083818295880F807E809346
:106AD000F2008091EF008F7E8093EF00278190E09D
:106AE00009C0ED01E885F985E90FF11D80818093EA
:106AF000FA009F5F9217A9F78091F0008B7F809337
:106B0000F0008091EF00822B8093EF008091EF00E6
:106B10008F738093EF008091EF00806451C00297E3
:106B200011F08FEF50C01C921092ED00EEEEF0E0ED
:106B30001192E83FF105E1F78091EF008F7E80939D
:106B4000EF00FD01948183819295990F907E869547
:106B500086958695980F9093F30083818295880F90
:106B6000807E8093F2008091EF008F7E8093EF0013
:106B7000968185819295990F907E869586958695CA
:106B8000980F9093F70085818295880F807E80937F
:106B9000F6008091F40084608093F4008091F0000E
:106BA0008B7F8093F0008091F40081608093F400EB
:106BB0008091EF008F738093EF008091EF008068E9
:106BC0008093EF0080E09927DF91CF9108951F9384
:106BD000CF93DF93EC018A85882309F44BC08F3172
:106BE00009F448C08F3F09F445C088818295807FB1
:106BF0008093ED000E94FC30182F803261F08132CA
:106C000018F4882331F02BC08034F9F0803A39F53C
:106C100002C081E02DC08091EF008F708F83888546
:106C200099850E9417318091F3008295869587702F
:106C30008C839091F2008091F300929596959770D5
:106C4000880F880F880F980F9B831A878091EF0019
:106C50008F738093EF001092EE0080E009C01A87D6
:106C60008091EF008F738093EF001092EE0082E02E
:106C7000992702C082E090E0DF91CF911F910895A3
:106C80000F930B01FC0101E007BFE895112407B643
:106C900000FCFDCF0F9108950F9307B600FCFDCFC8
:106CA000FC0105E007BFE89507B600FCFDCF0F919A
:106CB00008950F9307B600FCFDCFFC0103E007BF6A
:106CC000E89507B600FCFDCF0F910895FC01C8952B
:106CD000802D99270895FC01C895802D3196C8957F
:106CE000902D08959C01207040E050E0F901C89576
:106CF000802D3196C895902D8F5F9F4F19F080E0C1
:106D000090E109C02E5F3F4F4F5F5F4F4038510504
:106D100069F780E090E03070822B932B0895CF9339
:106D2000DF93C0E0D0E0CE010E945936C050DF4F63
:106D300080E6C030D807B9F7DF91CF9108955F9210
:106D40006F927F928F929F92AF92BF92CF92DF927B
:106D5000EF92FF920F931F93CF93DF935C013B0160
:106D60007A015FB6F894C12C6FEFD62EC620D720DB
:106D700052C02296E114F10461F1C615D70560F006
:106D8000F50181915F01282F33270894E108F1086C
:106D9000E114F10449F414C0FE01C895802D282F98
:106DA00033270615170561F4F50181915F019927D5
:106DB000782F6627622B732B0894E108F1080FC027
:106DC000F801C895802D9927782F6627622B732BA1
:106DD00006C0FE01C895602D3196C895702DCE0174
:106DE0000E9440360894811C911C0E5F1F4FF0E8F2
:106DF0008F16910409F0BDCFC6010E947236892B0F
:106E000019F0C6010E945936C6010E944C3680E036
:106E100091E0C80ED91EE114F10439F086010F5F2C
:106E20001F4FE60188249924A5CF002401E107BF64
:106E3000E89507B600FCFDCF57FE01C07894DF91BE
:106E4000CF911F910F91FF90EF90DF90CF90BF9067
:106E5000AF909F908F907F906F905F900895CF93A9
:106E6000DF93CDB7DEB721970FB6F894DEBF0FBE24
:106E7000CDBF698341E050E0BC01CE0101960E9484
:106E80009F3621960FB6F894DEBF0FBECDBFDF91BF
:106E9000CF910895F999FECFFC01E1BDF2BDF89ABA
:106EA00080B599270895F999FECFFC01E1BDF2BDA7
:106EB00060BDFA9AF99A0895DC010EC08C91F99997
:106EC000FECFFB01E1BDF2BD80BDFA9AF99A1196A1
:106ED0006F5F7F4F415050404115510579F708953C
:106EE00020E030E09FEFF999FECFF901E1BDF2BD5E
:106EF000F89A80B58F3F41F0F999FECFF901E1BDD5
:106F0000F2BD90BDFA9AF99A2F5F3F4F84E020308E
:106F1000380748F308959C01DB010CC0F999FECFB6
:106F2000F901E1BDF2BDF89A80B58D932F5F3F4F17
:106F3000415050404115510589F7089520E38030B4
:106F4000920718F4FC01099408950C940000089528
:106F500080933902089580933A02089590933602FF
:106F600080933502681B790B6F5F7F4F70933802F7
:106F70006093370208950E949F3608950E942F372C
:106F800008950E946636992708950F931F93CF9313
:106F9000DF938C01EB01809139028130B1F08130B7
:106FA00020F0843009F062C037C081E09FE70E9482
:106FB000C1378F3F09F05AC0609135027091360297
:106FC000AE01C8010E949F360FC081E09FE70E947A
:106FD000C1378F3F09F04AC0609135027091360287
:106FE000AE01C8010E945C37809135029091360253
:106FF0008C0F9D1F9093360280933502809137024B
:10700000909138028C1B9D0B90933802809337022D
:1070100020E0892B61F528C081E09FE70E94C137FD
:107020008F3F59F46091350270913602605071487B
:10703000AE01C8010E94BB37D7CF81E09FE70E9415
:10704000C1378E3F99F480913502909136020197B5
:1070500069F4219759F4F80180818C3F39F46CEF81
:1070600081E09FE70E94BE3721E001C02FEF822F11
:107070009927DF91CF911F910F9108958091390247
:10708000813029F1813020F0843009F060C03CC0AB
:1070900080913502909136020E9466368F3F09F04A
:1070A00058C0809135029091360201969093360235
:1070B0008093350280913702909138020197909326
:1070C000380280933702892B09F441C0E1CF8091C7
:1070D0003502909136020E944A378F3FD1F5809158
:1070E00035029091360201969093360280933502D4
:1070F00080913702909138020197909338028093E3
:107100003702892B21F1E3CF80913502909136022D
:10711000805091480E94C13720913502309136024B
:10712000F901E050FF4F9081891799F42F5F3F4F8D
:1071300030933602209335028091370290913802C5
:1071400001979093380280933702892BE9F681E00A
:1071500001C080E099270895EF92FF920F931F934B
:10716000CF93DF937C01EB0180913902823009F4E7
:107170009CC0833030F4882371F0813009F065C100
:1071800050C0843009F400C1843008F4C8C0853090
:1071900009F05BC126C181E09FE70E94C1378F3FA4
:1071A00039F081E09FE70E94C1378E3F09F04DC161
:1071B000209741F080913702909138028C179D07FB
:1071C00008F4EC0100E010E01DC0809135029091C0
:1071D00036020E946636F70181937F018091350265
:1071E00090913602019690933602809335028091F9
:1071F00037029091380201979093380280933702BA
:107200000F5F1F4F0C171D0701F7809137029091F8
:107210003802892B09F01BC1D0933802C093370282
:1072200042C081E09FE70E94C1378F3F39F081E083
:107230009FE70E94C1378E3F09F007C100913702D6
:1072400010913802C017D10708F48E01C0E0D0E0D9
:107250001CC080913502909136020E944A37F70196
:1072600081937F018091350290913602019690932F
:10727000360280933502809137029091380201974F
:1072800090933802809337022196C017D10709F7EF
:107290008091370290913802892B09F0D8C0109361
:1072A00038020093370281E0D3C020913702309139
:1072B00038026217730708F49B01F70140E050E0C1
:1072C000AEE171E865E927C0809135029091360200
:1072D000009711F4A0830AC08130910511F47083E6
:1072E00005C0029711F4608301C0108280913502BD
:1072F00090913602019690933602809335028091E8
:1073000037029091380201979093380280933702A8
:107310004F5F5F4F319642175307B1F68BC02091F4
:107320003702309138026217730708F49B01F701A6
:1073300040E050E0A4E071ED62ED22C080913502A2
:1073400090913602009711F4A08305C0019711F4C3
:10735000708301C06083809135029091360201965E
:1073600090933602809335028091370290913802D3
:10737000019790933802809337024F5F5F4F3196A9
:1073800042175307D9F656C00091370210913802C0
:107390006017710708F48B01C0E0D0E01EC0809137
:1073A000350290913602805091480E94C137F70112
:1073B00081937F01809135029091360201969093DE
:1073C00036028093350280913702909138020197FE
:1073D00090933802809337022196C017D107F9F6AF
:1073E00057CF20913702309138026217730708F4A3
:1073F0009B0140E050E0D7011AC0E0913502F091C6
:10740000360280818D9380913502909136020196EB
:107410009093360280933502809137029091380222
:10742000019790933802809337024F5F5F4F421766
:10743000530719F78091370290913802892B39F45C
:1074400030933802209337022ECF8FEF01C080E0B7
:107450009927DF91CF911F910F91FF90EF900895A1
:1074600080913902813069F0813018F0843011F553
:1074700012C00E948F366FEF81E09FE70E94BE37F7
:1074800008C081E09FE70E94C1378F3F99F40E94B6
:10749000703781E010C081E09FE70E94C1378F3FC5
:1074A00049F44AE050E060E07FE780E091E00E942C
:0A74B000BB37EFCF80E09927089565
:0A74BA00FFFFFFFFFFFFFF000000CF
:0A7F0000FFFFFFFFFFFFFF0000007E
:067FFA000E949F3608956D
:040000030000600099
:00000001FF
