:100000000C944A000C9467000C9467000C946700F1
:100010000C9467000C9467000C9467000C946700C4
:100020000C9467000C94FC120C9467000C9467000D
:100030000C9467000C9467000C9467000C946700A4
:100040000C9467000C9467000C9467000C94670094
:100050000C9467000C9467000C9467000C94670084
:100060000C9467000C9467000C9467000C94670074
:100070000C9467000C9467000C9467000C94670064
:100080000C9467000C9467000C9467000C94670054
:100090000C94670011241FBECFEFD0E1DEBFCDBFAF
:1000A00016E0A0E0B1E0E8ECF6E200E00BBF02C031
:1000B00007900D92A835B107D9F716E0A8E5B6E08C
:1000C00001C01D92A336B107E1F70C9469000C94AE
:1000D0000000CF93DF93CDB7DEB7E1E6F0E080E834
:1000E0008083E1E6F0E010820E945D110E94221000
:1000F00080E00E94850581E00E946B118CE991E00F
:1001000061E270E00E94B20082E00E946B1180E028
:1001100091E060E270E00E94B20084E00E946B1106
:1001200088E892E062E270E00E94B20088E00E94FB
:100130006B1188EB93E063E270E00E94B20080E113
:100140000E946B1180E594E064E270E00E94B200CE
:1001500080E20E946B1188E195E065E270E00E9408
:10016000B200C9CFCF93DF93CDB7DEB7A0970FB65C
:10017000F894DEBF0FBECDBF9E8F8D8F78A36F8F9B
:100180008D8D9E8D9A83898381E08F831C821B8253
:100190007CC0CE010896998F888F8B819C81892F96
:1001A000992788878B81898782E08D833DC08D81E7
:1001B000282F3327E981FA814081CE010896FC017E
:1001C000E20FF31F4083CE010896FC01E20FF31FFC
:1001D00080818E838D818F5F8D8389819A81019645
:1001E0009A8389838D81282F3327E981FA81408181
:1001F000CE010896FC01E20FF31F4083CE01089662
:10020000FC01E20FF31F90818E81892B8E838D81FB
:100210008F5F8D8389819A8101969A8389838E81EC
:10022000882311F41F8204C08D81883008F4BFCF69
:100230008D81282F33278B819C81820F931F0297FA
:100240009C838B831C8E8D818F8B8F8D98A19C8B33
:100250008B8B82E090E09A8B898BCE0140960E9436
:10026000B0058823D1F7CE0140960E94FA0E813066
:10027000D1F31D8207C0EEE3F0E08D8180838D8194
:100280008F5F8D838D818F3FB1F78F81882309F038
:1002900080CFA0960FB6F894DEBF0FBECDBFDF9122
:1002A000CF910895CF93DF93CDB7DEB7E1E8F0E0CB
:1002B0001082E0E8F0E01082E2E8F0E01082A8E8C6
:1002C000B0E0E9E8F0E0108280818C93A6E8B0E02D
:1002D000E7E8F0E0108280818C93A0E8B0E0E0E8ED
:1002E000F0E0808184608C93A0E8B0E0E0E8F0E08A
:1002F00080818D7F8C93E1E8F0E088E18083A1E844
:10030000B0E0E1E8F0E0808182608C93A4E2B0E0AC
:10031000E4E2F0E0808180688C93DF91CF910895D2
:10032000CF93DF93CDB7DEB722970FB6F894DEBF39
:100330000FBECDBF9A838983E7E8F0E089819A8177
:10034000892F99278083E6E8F0E0898180832296CF
:100350000FB6F894DEBF0FBECDBFDF91CF910895E9
:10036000CF93DF93CDB7DEB725970FB6F894DEBFF6
:100370000FBECDBF9C838B830E9452018B819C81D9
:1003800002969C838B8318C0EB81FC812081318194
:100390008B819C8102969C838B83C9010E94900172
:1003A00089819A810E94F41180E090E00E9490017E
:1003B00082E090E00E94F411EB81FC8180819181C8
:1003C0009A8389831D8289819A81009711F081E047
:1003D0008D838B819C8102969C838B838D81882366
:1003E00099F60E94FC0125960FB6F894DEBF0FBE69
:1003F000CDBFDF91CF910895CF93DF93CDB7DEB717
:10040000E0E8F0E01082A6E8B0E0E7E8F0E0108273
:1004100080818C93A4E2B0E0E4E2F0E090818FE789
:1004200089238C93A5E2B0E0E5E2F0E090818FE7CC
:1004300089238C93DF91CF910895CF93DF93CDB72C
:10044000DEB721970FB6F894DEBF0FBECDBF89830C
:1004500021960FB6F894DEBF0FBECDBFDF91CF91CE
:100460000895CF93DF93CDB7DEB723970FB6F894F7
:10047000DEBF0FBECDBF1B821BC0EDEEF0E08B8157
:100480008295807F80838EEE90E09A83898308C076
:10049000E981FA81108289819A8101969A83898300
:1004A00089819A81883F910598F38B818F5F8B8337
:1004B0008B818F3010F323960FB6F894DEBF0FBEFA
:1004C000CDBFDF91CF910895CF93DF93CDB7DEB746
:1004D00024970FB6F894DEBF0FBECDBFEDEEF0E06F
:1004E000808189831A821BC0EDEEF0E08A818295BB
:1004F000807F8083EFEEF0E080819927807C907090
:10050000009751F4EDEEF0E0898180838A81282FF5
:1005100033273C832B830EC08A818F5F8A838A8135
:100520008F3010F3EDEEF0E0898180838FEF90E063
:100530009C838B838B819C8124960FB6F894DEBFBD
:100540000FBECDBFDF91CF910895CF93DF93CDB78D
:10055000DEB724970FB6F894DEBF0FBECDBFEFEE27
:10056000F0E080819927807C9070009729F42FEF2C
:1005700030E03C832B8325C0EEEEF0E08081898360
:1005800090EE898189238A838A81803231F08A8141
:10059000803419F08A81803A31F48A81282F3327F8
:1005A0003C832B830EC089818F718A838A81882343
:1005B00031F08A81282F33273C832B8302C01C8291
:1005C0001B828B819C8124960FB6F894DEBF0FBEF0
:1005D000CDBFDF91CF910895CF93DF93CDB7DEB735
:1005E00023970FB6F894DEBF0FBECDBF9B838A83DF
:1005F00019820FC0898199279C018A819B81D90129
:10060000A80FB91FEAEFF0E080818C9389818F5F9A
:1006100089838981282F3327EFEEF0E080819927A5
:100620008F709070281739072CF323960FB6F89423
:10063000DEBF0FBECDBFDF91CF910895CF93DF9383
:10064000CDB7DEB767970FB6F894DEBF0FBECDBF4C
:100650008A8B1E82188688858B871B821D821C824E
:1006600081E08A878A898823A1F481E0888B88E0E9
:100670008E8782E08D8782E08C879D858C85980FA0
:100680008E85891B81508F8781E08F8381E08987E8
:1006900099C0E2EEF0E0808199278E779070959571
:1006A00087951816190664F4E2EEF0E08081992728
:1006B0008E77907095958795982F9F5F9F8B02C03E
:1006C00081E08F8B9F89988BE3EEF0E08081992702
:1006D0008E709070959587951816190664F4E3EE60
:1006E000F0E0808199278E70907095958795982F6E
:1006F0009F5F9E8B02C081E08E8B9E899F87E4EE78
:10070000F0E0808199278E70907095958795823062
:10071000910564F0E4EEF0E0808199278E7090708E
:1007200095958795982F9F5F9D8B02C082E08D8B5A
:100730009D899D87E4EEF0E0808199278077907015
:100740009595879595958795959587959595879591
:100750008230910594F0E4EEF0E080819927807773
:10076000907095958795959587959595879595958D
:100770008795982F9F5F9C8B02C082E08C8B9C8911
:100780009C878F85282F33278D859927280F391F20
:100790008C859927820F931F883091054CF09F8597
:1007A0008D85980F8C85890F982F9F5F9B8B02C03A
:1007B00088E08B8B9B899E8781E0888788858B87E3
:1007C0001F821986198A1BC0EDEEF0E08989829597
:1007D000807F80838EEE90E09A83898308C0E981D0
:1007E000FA81108289819A8101969A83898389810D
:1007F0009A81883F910598F389898F5F898B8989D0
:100800008F3010F34DC18F81813009F0B9C0E8ED10
:10081000F0E081E080838C819D8101969D838C83B3
:100820001E82E2EEF0E088898150880F8083E3EE3B
:10083000F0E08C85869599270197880F991F8295FE
:100840009295907F9827807F9827282F8F859927CA
:100850000197880F991F822B8083E4EEF0E08C854E
:100860009927019782959295907F9827807F982766
:10087000282F8D8599270197880F991F822B8160DA
:100880008083E5EEF0E08C819D8196958795969525
:100890008795969587958083EDEEF0E01082EEEED9
:1008A000F0E01082EFEEF0E080E88083E8EDF0E029
:1008B0008AE08083E9EDF0E0808199278470907070
:1008C0000097C1F3EAEDF0E08FEF808359C0EEEEC0
:1008D000F0E08081898B89899927807290700097D8
:1008E000C9F0198618861A8681E08B83AFEEB0E0D6
:1008F000EFEEF0E090818FE389238C93E8EDF0E058
:100900001082E9EDF0E08081992784709070009763
:10091000C1F736C0898999278F719070009719F0B7
:1009200081E088871986EAEDF0E08081898B8989EA
:100930009927807290700097C1F08E81882359F4B6
:10094000AAEDB0E0EAEDF0E0808180628C938E81C8
:100950008F5F8E830AC0AAEDB0E0EAEDF0E08081FF
:1009600080628C9381E088871986898999278F70A6
:100970009070009729F081E08887198681E08F8345
:100980008985813009F4A3CF87C08B85882319F02E
:100990008D858F5F8D8781E08B878D85893078F19C
:1009A0008C85883060F182E08D8782E08C871B86A1
:1009B0008E85893121F08E858F5F8E876DC088E0AE
:1009C0008E878889803421F088898F5F888B64C006
:1009D00018861B821A86AFEEB0E0EFEEF0E0908151
:1009E0008FE389238C93E8EDF0E01082E9EDF0E0ED
:1009F00080819927847090700097C1F74DC08D85D4
:100A0000863078F08D85282F33278C85992701969D
:100A10008217930744F48C858F5F8C878C858D8734
:100A200002C08D858C879D858C85980F8E85891B4E
:100A300081508F878F85893078F58F85882361F184
:100A40008C859927AC01440F551F440F551F8F8586
:100A5000282F33278D859927820F931F01964817DA
:100A60005907D4F08C85282F33278C859927280F98
:100A7000391F8C859927A901480F591F8F85282F69
:100A800033278D859927820F931F01968417950729
:100A90001CF0188681E089878885813009F475CF3C
:100AA0008A85813009F4AFCE8B81992767960FB67E
:100AB000F894DEBF0FBECDBFDF91CF910895CF93E5
:100AC000DF93CDB7DEB721970FB6F894DEBF0FBE28
:100AD000CDBF8983E8EDF0E081E08083E2EEF0E0D5
:100AE00082E08083E3EEF0E08CE08083E4EEF0E0EF
:100AF00087E3808381E090E021960FB6F894DEBF13
:100B00000FBECDBFDF91CF910895CF93DF93CDB7C7
:100B1000DEB723970FB6F894DEBF0FBECDBF898333
:100B200089810E945F05882319F41B821A820DC0F7
:100B30000E943102A8EDB0E0E8EDF0E08081826033
:100B40008C9381E090E09B838A838A819B812396AA
:100B50000FB6F894DEBF0FBECDBFDF91CF910895E1
:100B6000CF93DF93CDB7DEB72E970FB6F894DEBFE5
:100B70000FBECDBF9A878987E985FA8581819281E9
:100B80008C30910501F5E985FA8582858036B1F4CE
:100B9000ADEEB0E0E985FA8580818295807F8C9307
:100BA000AFEEB0E0EFEEF0E090818FE389238C931D
:100BB000EEEEF0E01082E985FA851082E985FA858B
:100BC00012860C94ED0E0E9464028C838C818F3F00
:100BD00011F40C94E40EE985FA8580E68287E985B4
:100BE000FA858C818083EDEEF0E08C818295807FA8
:100BF00080838EEE90E09A83898308C0E981FA8130
:100C0000108289819A8101969A83898389819A8148
:100C1000883F910598F3E985FA850180F281E02DFE
:100C2000FE87ED878D859E858630910509F476C314
:100C30008D859E858730910530F58D859E85833025
:100C4000910509F4D3C18D859E858430910568F4A2
:100C50008D859E8581309105E9F18D859E85823057
:100C6000910509F402C10C94E00E8D859E858430B7
:100C7000910509F465C28D859E858530910509F43D
:100C8000D1C20C94E00E8D859E858930910509F4C2
:100C9000C9C58D859E858A30910570F48D859E85A8
:100CA0008730910509F4BEC38D859E8588309105F6
:100CB00009F4B3C40C94E00E8D859E858A309105AD
:100CC00009F4BDC68D859E858B30910509F453C707
:100CD0000C94E00EE985FA858485882309F457C0D1
:100CE000A3EFB0E089859A850396FC013396808155
:100CF000282F220F220F220F89859A850396FC0147
:100D000032968081829586958770820F8C93A2EFB0
:100D1000B0E089859A850396FC0132968081282F60
:100D2000220F220F220F89859A850396FC013196A6
:100D30008081829586958770820F8C93A1EFB0E0B9
:100D400089859A850396FC0131968081282F220F90
:100D5000220F220F89859A850396FC018081829556
:100D600086958770820F8C93A0EFB0E089859A8575
:100D70000396FC018081880F880F880F8C93AFEE5B
:100D8000B0E0EFEEF0E0808180618C9328C0A3EFAB
:100D9000B0E089859A850396FC0131968081282FE1
:100DA0002295220F207E89859A850396FC018081F9
:100DB000869586958695820F8C93A2EFB0E0898503
:100DC0009A850396FC0180818295880F807E8C93A2
:100DD000AFEEB0E0EFEEF0E080818F7E8C931B826F
:100DE00010C0AAEFB0E0E985FA85208531858B81B6
:100DF0009927F901E80FF91F80818C938B818F5F10
:100E00008B83E985FA8597818B81891750F3E98572
:100E1000FA858385882341F0A0EFB0E0E0EFF0E0B1
:100E2000808184608C9307C0A0EFB0E0E0EFF0E039
:100E300080818B7F8C93AFEEB0E0EFEEF0E090819D
:100E4000E985FA858781892B8C93AFEEB0E0EFEED0
:100E5000F0E090818FE389238C93AFEEB0E0EFEE6A
:100E6000F0E0808180648C93B8C7E985FA85848539
:100E7000882309F457C0A3EFB0E089859A850396CB
:100E8000FC0133968081282F220F220F220F8985A3
:100E90009A850396FC0132968081829586958770AB
:100EA000820F8C93A2EFB0E089859A850396FC01AE
:100EB00032968081282F220F220F220F89859A8552
:100EC0000396FC0131968081829586958770820F0A
:100ED0008C93A1EFB0E089859A850396FC01319649
:100EE0008081282F220F220F220F89859A85039651
:100EF000FC018081829586958770820F8C93A0EF8C
:100F0000B0E089859A850396FC018081880F880F5F
:100F1000880F8C93AFEEB0E0EFEEF0E0808180615F
:100F20008C9328C0A3EFB0E089859A850396FC01D5
:100F300031968081282F2295220F207E89859A85DF
:100F40000396FC018081869586958695820F8C9309
:100F5000A2EFB0E089859A850396FC018081829595
:100F6000880F807E8C93AFEEB0E0EFEEF0E08081F2
:100F70008F7E8C931B8210C0AAEFB0E0E985FA85C2
:100F8000208531858B819927F901E80FF91F808130
:100F90008C938B818F5F8B83E985FA8597818B8119
:100FA000891750F3E985FA851386A0EFB0E0E0EFEA
:100FB000F0E080818B7F8C93AFEEB0E0EFEEF0E05D
:100FC0009081E985FA858781892B8C93AFEEB0E01B
:100FD000EFEEF0E090818FE389238C93AFEEB0E0E9
:100FE000EFEEF0E0808180648C93F7C6E985FA85A6
:100FF0008485882309F457C0A3EFB0E089859A85DA
:101000000396FC0133968081282F220F220F220F96
:1010100089859A850396FC01329680818295869512
:101020008770820F8C93A2EFB0E089859A85039632
:10103000FC0132968081282F220F220F220F8985F2
:101040009A850396FC0131968081829586958770FA
:10105000820F8C93A1EFB0E089859A850396FC01FD
:1010600031968081282F220F220F220F89859A85A1
:101070000396FC018081829586958770820F8C9300
:10108000A0EFB0E089859A850396FC018081880FE6
:10109000880F880F8C93AFEEB0E0EFEEF0E0808128
:1010A00080618C9328C0A3EFB0E089859A85039670
:1010B000FC0131968081282F2295220F207E898580
:1010C0009A850396FC018081869586958695820F88
:1010D0008C93A2EFB0E089859A850396FC0180810C
:1010E0008295880F807E8C93AFEEB0E0EFEEF0E05B
:1010F00080818F7E8C93E985FA8581E08387A0EFDC
:10110000B0E0E0EFF0E0808184608C93AFEEB0E07F
:10111000EFEEF0E09081E985FA858781892B8C9349
:10112000AFEEB0E0EFEEF0E090818FE389238C9397
:10113000AFEEB0E0EFEEF0E0808180648C934DC6BE
:101140001D821E821F821886A7EFB0E0CE01059691
:10115000FC0133968081282F220F220F220FCE010F
:101160000596FC0132968081829586958770820F64
:101170008C93A6EFB0E0CE010596FC0132968081FB
:10118000282F220F220F220FCE010596FC01319647
:101190008081829586958770820F8C93A5EFB0E051
:1011A000CE010596FC0131968081982F990F990FF9
:1011B000990FFE0135968081829586958770890FFB
:1011C0008C93A4EFB0E0FE0135968081880F880FE4
:1011D000880F8C93AFEEB0E0EFEEF0E09081E98500
:1011E000FA858781892B8C93A4EFB0E0E4EFF0E0DF
:1011F00080818B7F8C93A4EFB0E0E4EFF0E08081FE
:101200008E7F8C93AFEEB0E0EFEEF0E090818FE355
:1012100089238C93AFEEB0E0EFEEF0E08081806840
:101220008C93DBC51D821E821F821886A7EFB0E05B
:10123000CE010596FC0133968081282F220F220FC4
:10124000220FCE010596FC0132968081829586950B
:101250008770820F8C93A6EFB0E0CE010596FC015B
:1012600032968081282F220F220F220FCE01059661
:10127000FC0131968081829586958770820F8C93D0
:10128000A5EFB0E0CE010596FC0131968081982F44
:10129000990F990F990FFE01359680818295869559
:1012A0008770890F8C93A4EFB0E0FE0135968081A2
:1012B000880F880F880F8C93AFEEB0E0EFEEF0E070
:1012C0009081E985FA858781892B8C93E985FA8558
:1012D0001386A4EFB0E0E4EFF0E0808184608C93AB
:1012E000A0EFB0E0E0EFF0E080818B7F8C93A4EF83
:1012F000B0E0E4EFF0E080818E7F8C93AFEEB0E061
:10130000EFEEF0E090818FE389238C93AFEEB0E0B5
:10131000EFEEF0E0808180688C935FC51D821E82B5
:101320001F821886A7EFB0E0CE010596FC01339628
:101330008081282F220F220F220FCE010596FC015B
:1013400032968081829586958770820F8C93A6EF66
:10135000B0E0CE010596FC0132968081282F220F45
:10136000220F220FCE010596FC01319680818295D5
:1013700086958770820F8C93A5EFB0E0CE0105961D
:10138000FC0131968081982F990F990F990FFE01DA
:1013900035968081829586958770890F8C93A4EF0E
:1013A000B0E0FE0135968081880F880F880F8C93FE
:1013B000AFEEB0E0EFEEF0E09081E985FA8587814D
:1013C000892B8C93E985FA8581E08387A4EFB0E0CF
:1013D000E4EFF0E0808184608C93A0EFB0E0E0EF78
:1013E000F0E0808184608C93AFEEB0E0EFEEF0E04F
:1013F00080818F7D8C93A4EFB0E0E4EFF0E08081FA
:101400008E7F8C93AFEEB0E0EFEEF0E090818FE353
:1014100089238C93AFEEB0E0EFEEF0E0808180683E
:101420008C93DBC4E985FA858485882309F457C049
:10143000A3EFB0E089859A850396FC0133968081FD
:10144000282F220F220F220F89859A850396FC01EF
:1014500032968081829586958770820F8C93A2EF59
:10146000B0E089859A850396FC0132968081282F09
:10147000220F220F220F89859A850396FC0131964F
:101480008081829586958770820F8C93A1EFB0E062
:1014900089859A850396FC0131968081282F220F39
:1014A000220F220F89859A850396FC0180818295FF
:1014B00086958770820F8C93A0EFB0E089859A851E
:1014C0000396FC018081880F880F880F8C93AFEE04
:1014D000B0E0EFEEF0E0808180618C9328C0A3EF54
:1014E000B0E089859A850396FC0131968081282F8A
:1014F0002295220F207E89859A850396FC018081A2
:10150000869586958695820F8C93A2EFB0E08985AB
:101510009A850396FC0180818295880F807E8C934A
:10152000AFEEB0E0EFEEF0E080818F7E8C938FEF36
:101530009FEFAFEFBFEF8D839E83AF83B887A7EF99
:10154000B0E0CE010596FC0133968081282F220F52
:10155000220F220FCE010596FC01329680818295E2
:1015600086958770820F8C93A6EFB0E0CE0105962A
:10157000FC0132968081282F220F220F220FCE01EC
:101580000596FC0131968081829586958770820F41
:101590008C93A5EFB0E0CE010596FC0131968081D9
:1015A000982F990F990F990FFE013596808182959A
:1015B00086958770890F8C93A4EFB0E0FE01359675
:1015C0008081880F880F880F8C93AFEEB0E0EFEE2C
:1015D000F0E09081E985FA858781892B8C93A4EFCF
:1015E000B0E0E4EFF0E080818B7F8C93A4EFB0E07B
:1015F000E4EFF0E0808181608C93AFEEB0E0EFEE3D
:10160000F0E090818FE389238C93AFEEB0E0EFEEB2
:10161000F0E0808180688C93E0C3E985FA85848559
:10162000882309F457C0A3EFB0E089859A85039613
:10163000FC0133968081282F220F220F220F8985EB
:101640009A850396FC0132968081829586958770F3
:10165000820F8C93A2EFB0E089859A850396FC01F6
:1016600032968081282F220F220F220F89859A859A
:101670000396FC0131968081829586958770820F52
:101680008C93A1EFB0E089859A850396FC01319691
:101690008081282F220F220F220F89859A85039699
:1016A000FC018081829586958770820F8C93A0EFD4
:1016B000B0E089859A850396FC018081880F880FA8
:1016C000880F8C93AFEEB0E0EFEEF0E080818061A8
:1016D0008C9328C0A3EFB0E089859A850396FC011E
:1016E00031968081282F2295220F207E89859A8528
:1016F0000396FC018081869586958695820F8C9352
:10170000A2EFB0E089859A850396FC0180818295DD
:10171000880F807E8C93AFEEB0E0EFEEF0E080813A
:101720008F7E8C938FEF9FEFAFEFBFEF8D839E8304
:10173000AF83B887A7EFB0E0CE010596FC013396E2
:101740008081282F220F220F220FCE010596FC0147
:1017500032968081829586958770820F8C93A6EF52
:10176000B0E0CE010596FC0132968081282F220F31
:10177000220F220FCE010596FC01319680818295C1
:1017800086958770820F8C93A5EFB0E0CE01059609
:10179000FC0131968081982F990F990F990FFE01C6
:1017A00035968081829586958770890F8C93A4EFFA
:1017B000B0E0FE0135968081880F880F880F8C93EA
:1017C000AFEEB0E0EFEEF0E09081E985FA85878139
:1017D000892B8C93E985FA851386A4EFB0E0E4EFBA
:1017E000F0E0808184608C93A0EFB0E0E0EFF0E067
:1017F00080818B7F8C93A4EFB0E0E4EFF0E08081F8
:1018000081608C93AFEEB0E0EFEEF0E090818FE37B
:1018100089238C93AFEEB0E0EFEEF0E0808180683A
:101820008C93DBC2E985FA858485882309F457C047
:10183000A3EFB0E089859A850396FC0133968081F9
:10184000282F220F220F220F89859A850396FC01EB
:1018500032968081829586958770820F8C93A2EF55
:10186000B0E089859A850396FC0132968081282F05
:10187000220F220F220F89859A850396FC0131964B
:101880008081829586958770820F8C93A1EFB0E05E
:1018900089859A850396FC0131968081282F220F35
:1018A000220F220F89859A850396FC0180818295FB
:1018B00086958770820F8C93A0EFB0E089859A851A
:1018C0000396FC018081880F880F880F8C93AFEE00
:1018D000B0E0EFEEF0E0808180618C9328C0A3EF50
:1018E000B0E089859A850396FC0131968081282F86
:1018F0002295220F207E89859A850396FC0180819E
:10190000869586958695820F8C93A2EFB0E08985A7
:101910009A850396FC0180818295880F807E8C9346
:10192000AFEEB0E0EFEEF0E080818F7E8C938FEF32
:101930009FEFAFEFBFEF8D839E83AF83B887A7EF95
:10194000B0E0CE010596FC0133968081282F220F4E
:10195000220F220FCE010596FC01329680818295DE
:1019600086958770820F8C93A6EFB0E0CE01059626
:10197000FC0132968081282F220F220F220FCE01E8
:101980000596FC0131968081829586958770820F3D
:101990008C93A5EFB0E0CE010596FC0131968081D5
:1019A000982F990F990F990FFE0135968081829596
:1019B00086958770890F8C93A4EFB0E0FE01359671
:1019C0008081880F880F880F8C93AFEEB0E0EFEE28
:1019D000F0E09081E985FA858781892B8C93E985F0
:1019E000FA8581E08387A4EFB0E0E4EFF0E0808146
:1019F00084608C93A0EFB0E0E0EFF0E08081846041
:101A00008C93AFEEB0E0EFEEF0E080818F7D8C93B1
:101A1000A4EFB0E0E4EFF0E0808181608C93AFEE62
:101A2000B0E0EFEEF0E090818FE389238C93AFEE8E
:101A3000B0E0EFEEF0E0808180688C93CEC11B8235
:101A400010C0AAEFB0E0E985FA85208531858B8149
:101A50009927F901E80FF91F80818C938B818F5FA3
:101A60008B83E985FA8597818B81891750F31D82D5
:101A70001E821F821886A7EFB0E0CE010596FC01FA
:101A800033968081282F220F220F220FCE01059638
:101A9000FC0132968081829586958770820F8C93A7
:101AA000A6EFB0E0CE010596FC0132968081282F8A
:101AB000220F220F220FCE010596FC013196808164
:101AC000829586958770820F8C93A5EFB0E0CE014A
:101AD0000596FC0131968081982F990F990F990FE7
:101AE000FE0135968081829586958770890F8C934B
:101AF000A4EFB0E0FE0135968081880F880F880F33
:101B00008C93AFEEB0E0EFEEF0E09081E985FA85DE
:101B10008781892B8C93E985FA8581E08387A4EFFF
:101B2000B0E0E4EFF0E0808184608C93A0EFB0E05F
:101B3000E0EFF0E0808184608C93AFEEB0E0EFEEF8
:101B4000F0E0808180628C93A4EFB0E0E4EFF0E0FD
:101B500080818E7F8C93AFEEB0E0EFEEF0E090816D
:101B60008FE389238C93AFEEB0E0EFEEF0E080815D
:101B700080688C9332C1E985FA858485882309F4CD
:101B800057C0A3EFB0E089859A850396FC01339690
:101B90008081282F220F220F220F89859A85039694
:101BA000FC0132968081829586958770820F8C9396
:101BB000A2EFB0E089859A850396FC013296808178
:101BC000282F220F220F220F89859A850396FC0168
:101BD00031968081829586958770820F8C93A1EFD4
:101BE000B0E089859A850396FC0131968081282F83
:101BF000220F220F220F89859A850396FC0180818E
:101C0000829586958770820F8C93A0EFB0E08985CE
:101C10009A850396FC018081880F880F880F8C932A
:101C2000AFEEB0E0EFEEF0E0808180618C9328C0F1
:101C3000A3EFB0E089859A850396FC0131968081F7
:101C4000282F2295220F207E89859A850396FC01F4
:101C50008081869586958695820F8C93A2EFB0E061
:101C600089859A850396FC0180818295880F807E04
:101C70008C93AFEEB0E0EFEEF0E080818F7E8C933E
:101C80001B8210C0AAEFB0E0E985FA852085318576
:101C90008B819927F901E80FF91F80818C938B8143
:101CA0008F5F8B83E985FA8597818B81891750F344
:101CB0008FEF9FEFAFEFBFEF8D839E83AF83B8872A
:101CC000A7EFB0E0CE010596FC0133968081282F66
:101CD000220F220F220FCE010596FC013296808141
:101CE000829586958770820F8C93A6EFB0E0CE0127
:101CF0000596FC0132968081282F220F220F220F99
:101D0000CE010596FC01319680818295869587707B
:101D1000820F8C93A5EFB0E0CE010596FC013196C1
:101D20008081982F990F990F990FFE013596808128
:101D3000829586958770890F8C93A4EFB0E0FE01A1
:101D400035968081880F880F880F8C93AFEEB0E0B6
:101D5000EFEEF0E09081E985FA858781892B8C93FD
:101D6000E985FA8581E08387A4EFB0E0E4EFF0E055
:101D7000808184608C93A0EFB0E0E0EFF0E08081A0
:101D800084608C93AFEEB0E0EFEEF0E08081806293
:101D90008C93A4EFB0E0E4EFF0E0808181608C935D
:101DA000AFEEB0E0EFEEF0E090818FE389238C930B
:101DB000AFEEB0E0EFEEF0E0808180688C930DC074
:101DC000E985FA85128609C0E985FA858FE182875F
:101DD0008FEF90E09C878B8702C01C861B868B85CB
:101DE0009C852E960FB6F894DEBF0FBECDBFDF9157
:101DF000CF910895CF93DF93CDB7DEB728970FB675
:101E0000F894DEBF0FBECDBF9C838B83EB81FC813A
:101E100082858A838A81882331F08A818F3119F003
:101E20008A818F3F29F422E030E038872F83FFC07A
:101E3000ADEEB0E0EB81FC8180818295807F8C9358
:101E40000E94A5028A838A81282F33273E832D830F
:101E50008D819E8180329105C9F02D813E81213294
:101E600031052CF48D819E81009769F0CAC02D81C7
:101E70003E812034310509F4B3C08D819E81803AC2
:101E8000910521F0BEC081E08983CCC0EFEEF0E087
:101E900080818F70EB81FC818783EB81FC81808561
:101EA00091850E94EC02E0EFF0E080819927847038
:101EB00090709595879595958795EB81FC818387A3
:101EC000EFEEF0E08081992780719070959587956D
:101ED000959587959595879595958795009709F49C
:101EE0004CC0EB81FC8181E084878B819C810396CF
:101EF000DC011396E3EFF0E0808186958695869568
:101F00008C938B819C810396DC011296E2EFF0E0CA
:101F10008081982F969596959695E3EFF0E08081D5
:101F20008295880F807E890F8C938B819C8103968C
:101F3000DC011196E1EFF0E08081982F969596955F
:101F40009695E2EFF0E080818295880F807E890F80
:101F50008C938B819C810396DC01E0EFF0E0808123
:101F6000982F969596959695E1EFF0E08081829571
:101F7000880F807E890F8C9322C0EB81FC811486B0
:101F80008B819C810396DC011196E3EFF0E0808168
:101F90008295869587708C938B819C810396DC015A
:101FA000E2EFF0E08081982F929596959770E3EF9D
:101FB000F0E08081880F880F880F890F8C93EB8168
:101FC000FC818A818287AFEEB0E0EFEEF0E0908195
:101FD0008FE389238C93EEEEF0E01082198222C009
:101FE000EB81FC818A818287AFEEB0E0EFEEF0E01A
:101FF00090818FE389238C93EEEEF0E010821982BA
:1020000011C0EB81FC818A818287AFEEB0E0EFEEF8
:10201000F0E090818FE389238C93EEEEF0E0108264
:1020200082E089838981282F332738872F838F8106
:10203000988528960FB6F894DEBF0FBECDBFDF910E
:10204000CF910895CF93DF93CDB7DEB7ADE2B0E087
:10205000EDE2F0E080818F7E8C93ADE2B0E0EDE2C6
:10206000F0E090818FE789238C93ADE2B0E0EDE260
:10207000F0E080818F7B8C93ADE2B0E0EDE2F0E0A8
:1020800080818F7D8C93ADE2B0E0EDE2F0E0808165
:102090008B7F8C93AEE2B0E0EEE2F0E08081806175
:1020A0008C93AEE2B0E0EEE2F0E0808180688C9349
:1020B000AEE2B0E0EEE2F0E0808180648C93AEE2CC
:1020C000B0E0EEE2F0E0808180628C93AEE2B0E0BE
:1020D000EEE2F0E0808184608C93DF91CF910895EF
:1020E000CF93DF93CDB7DEB722970FB6F894DEBF5C
:1020F0000FBECDBFECE2F0E09081ECE2F0E0808139
:10210000892B982FECE2F0E08081892B8095982F25
:1021100084EF89238A8319829A818981892B8A8312
:102120008A81992722960FB6F894DEBF0FBECDBFE5
:10213000DF91CF910895CF93DF93CDB7DEB724978A
:102140000FB6F894DEBF0FBECDBFECE2F0E0908199
:10215000ECE2F0E08081892B982FECE2F0E08081C6
:10216000892B8095982F84EF89238A8319829A81FD
:102170008981892B8A838A81282F33273C832B836B
:102180008B819C818434910509F487C02B813C812B
:102190002534310584F58B819C818032910509F4C9
:1021A0005EC02B813C81213231059CF48B819C8166
:1021B0008031910509F44AC02B813C8124313105DD
:1021C00009F465C08B819C818430910509F44AC073
:1021D00069C02B813C812033310509F44CC08B81CF
:1021E0009C8180349105C1F12B813C8124323105E1
:1021F00009F456C057C08B819C818438910509F43D
:1022000049C02B813C812538310584F48B819C8128
:1022100080369105C9F12B813C8120383105C9F008
:102220008B819C818035910501F13CC02B813C81E3
:10223000203A310519F18B819C81803C9105C1F0D8
:102240002B813C8120393105E1F02CC081E08A836B
:1022500029C082E08A8326C083E08A8323C084E089
:102260008A8320C085E08A831DC086E08A831AC0E5
:1022700087E08A8317C088E08A8314C089E08A8354
:1022800011C08AE08A830EC08BE08A830BC08CE089
:102290008A8308C08DE08A8305C08EE08A8302C0ED
:1022A0008FE08A838A81992724960FB6F894DEBF3F
:1022B0000FBECDBFDF91CF910895CF93DF93CDB700
:1022C000DEB7E1E2F0E08FEF8083E2E2F0E010823F
:1022D000DF91CF910895CF93DF93CDB7DEB72197EC
:1022E0000FB6F894DEBF0FBECDBF8983E2E2F0E007
:1022F0008981808321960FB6F894DEBF0FBECDBFD3
:10230000DF91CF910895CF93DF93CDB7DEB7A2E2EF
:10231000B0E0E0E2F0E08081992782959295907F8D
:102320009827807F9827982FE0E2F0E080818295BF
:102330008F70892B8C93DF91CF910895CF93DF938A
:10234000CDB7DEB7E0E2F0E08FEF8083DF91CF9191
:102350000895CF93DF93CDB7DEB723970FB6F894E8
:10236000DEBF0FBECDBF8A836B8319828A8188301E
:1023700080F58B818823B1F481E08983A2E2B0E00B
:10238000E2E2F0E08081482F8A81282F332781E024
:1023900090E0022E02C0880F991F0A94E2F7809500
:1023A00084238C938B818130A1F481E08983A2E224
:1023B000B0E0E2E2F0E08081482F8A81282F3327C5
:1023C00081E090E002C0880F991F2A95E2F7842BE4
:1023D0008C938981992723960FB6F894DEBF0FBEA0
:1023E000CDBFDF91CF910895CF93DF93CDB7DEB707
:1023F0002A970FB6F894DEBF0FBECDBF9A878987A4
:1024000080915806813009F045C0F89480915D06AE
:1024100090915E06A0915F06B09160068D839E83C9
:10242000AF83B887789489859A859C01442755277E
:102430008D819E81AF81B885820F931FA41FB51F28
:102440008D839E83AF83B887F89420915D06309189
:102450005E0640915F06509160068D819E81AF813E
:10246000B885281739074A075B0799F189859A8546
:102470009C014427552780915D0690915E06A091AE
:102480005F06B0916006281739074A075B0709F114
:102490007894DACF1C821B8215C01A820BC0198275
:1024A00003C089818F5F898389818A35D0F38A81CE
:1024B0008F5F8A838A81883090F38B819C8101961B
:1024C0009C838B832B813C8189859A8528173907CA
:1024D00020F32A960FB6F894DEBF0FBECDBFDF9172
:1024E000CF910895CF93DF93CDB7DEB722970FB684
:1024F000F894DEBF0FBECDBFF894E0EBF0E01082A1
:10250000E2EBF0E01082E3EBF0E010821A82198235
:1025100005C089819A8101969A83898389819A81EC
:102520002FEF8F3F9207A9F7A0E7B0E0E0E7F0E0D8
:1025300080818E7F8C93A0E7B0E0E0E7F0E08081BF
:102540008D7F8C93A0EBB0E0E0EBF0E080818F7C9E
:102550008C93A0EBB0E0E0EBF0E08081877B8860BB
:102560008C93A6EBB0E0E6EBF0E080818F7E886094
:102570008C93E3EBF0E080E28083A0EBB0E0E0EB53
:10258000F0E08081887F81608C93E6EBF0E08081D1
:102590009927877090700097C1F7A7E3B0E0E7E351
:1025A000F0E0808182608C93A0E7B0E0E0E7F0E0AB
:1025B000808182608C9310925D0610925E0610926C
:1025C0005F061092600610925C0610925B061092F5
:1025D0006206109259061092610610925A0681E026
:1025E00080935806789422960FB6F894DEBF0FBEFB
:1025F000CDBFDF91CF9108951F920F920FB60F922A
:1026000011242F938F939F93AF93BF93CF93DF9317
:10261000CDB7DEB780915D0690915E06A0915F0612
:10262000B09160060196A11DB11D80935D06909347
:102630005E06A0935F06B093600680915B06909162
:102640005C06019690935C0680935B0680915B0626
:1026500090915C0623E0883E920751F510925C064B
:1026600010925B06809162068F5F80936206809174
:1026700062068C33E9F410926206809159068F5FEE
:1026800080935906809159068C3391F41092590623
:10269000809161068F5F8093610680916106883129
:1026A00039F41092610680915A068F5F80935A0622
:1026B000DF91CF91BF91AF919F918F912F910F900B
:0826C0000FBE0F901F9018954A
:1026C800200190007B019000380290007B0190006F
:1026D800FA0190007B0190003E01900038029000C2
:1026E8007B019000EE00900038029000D40090002A
:1026F8007B019000FA019000EE0090007B019000B1
:10270800FA0190007B019000380290007B01900054
:10271800FA0190003E019000380290007B01900081
:10272800EE0090007B019000D40090007B019000A7
:10273800FA019000EE0090007B019000FA019000F1
:102748007B019000380290007B019000FA01900014
:102758007B0190003E014002380200009B01CD0041
:10276800CB02CD000100330159026700CB0267009C
:1027780001006700CB02CD003004CD00CB02CD00B4
:102788002303CD00CB02CD0001003301DD0167003A
:10279800CB02670001006700CB02CD00C201CD006B
:1027A800BB03CD005902CD00CB02CD00DD01CD0029
:1027B800CB026700CB0267002303670001006700B4
:1027C8002303CD00BB03CD007D026702CB02D104F9
:1027D8000100CD00CB02CD00010033015902670092
:1027E800CB02670001006700CB02CD003004CD00AA
:1027F800CB02CD002303CD00CB02CD000100330175
:10280800DD016700CB02670001006700CB02CD0045
:10281800C201CD00BB03CD005902CD00CB02CD00D3
:10282800DD01CD00CB026700CB0267002303670000
:10283800010067002303CD00BB03CD007D026702C2
:10284800CB02CD00010000002001520030045200EC
:102858003004520030045200300452003004520058
:10286800300452003004520030045200A9015200D2
:10287800A9015200A9015200A90152009101520078
:1028880091015200910152009101520065015200DC
:102898006501520065015200650152006501520050
:1028A800650152006501520030045200380252009E
:1028B80038025200380252003802520051015200C8
:1028C800510152005101520051015200650152005C
:1028D8006501520065015200650152006501520010
:1028E8006501520065015200650152006501520000
:1028F80065015200650152006501520065015200F0
:1029080065015200650152006501520051015200F3
:10291800510152005101520051015200650152000B
:1029280065015200510152005101520065015200E7
:102938006501520065015200650152009101520083
:10294800910152009101520091015200650152001B
:102958006501520065015200650152009101520063
:10296800910152006501520065012001910190001A
:10297800A9019000F4030000DC025C00DD015C00AA
:1029880065015C00DD015C006501DC02DD016E01B2
:1029980059026E013004DC02CB026E0101005C00BA
:1029A800DD015C0065015C00DD015C006501DC02A5
:1029B800DD016E0159026E013004DC0291016E01E5
:1029C80001005C00DD015C0001005C009101DC029B
:1029D8006501B7002C015C000100B7003E015C00F6
:1029E80001005C0065015C000100DC0291016E01E0
:1029F80001005C00DD015C0065015C00DD015C003C
:102A08006501DC02DD016E013004DC02CB0200004E
:102A1800AE00AE007B01570001005700650157006A
:102A28003E0157000100B802EE0057000100AE0059
:102A3800A9015700010057007B01B8026501AE00EB
:102A48000100AE003E015700010057003802570050
:102A5800FA0157000100B802B20057000100AE00A9
:102A68003802570001005700FA015C01EE005C01D2
:102A7800D4005C01BD00AE007B0157000100570087
:102A8800650157003E0157000100B802EE00AE0094
:102A98000100AE00D400570001005700BD00B80285
:102AA800B20057000100AE003E0157000100AE0021
:102AB8003E015C01BD005C01D40057000100AE007E
:102AC8003E0157000100AE00B200570001005C0152
:102AD800D400B802EE000000000180015902800015
:102AE8002303800001008000230380000100800090
:102AF80023030001300400010100000201008001ED
:102B0800300480002303800001008000230380003C
:102B180001008000230300015902000101000002A6
:102B28000100800159028000230380000100800019
:102B3800230380000100800023030001300400010A
:102B4800010000020100800130048000230380009E
:102B5800010080002303800001008000230380001F
:102B680059028000DD01800001008000230300017C
:102B7800CB02000123038001590280002303800057
:102B8800010080002303800001008000230300016E
:102B980030040001010000020100800130048000BF
:102BA80023038000010080002303800001008000CF
:102BB8002303000159020001010000020100800105
:102BC8005902800023038000010080002303800055
:102BD800010080002303000130040001010000020D
:102BE8000100800130048000230380000100800080
:102BF8002303800001008000230380005902800025
:102C0800DD0180000100800023030001CB020001E8
:082C18002303800059020000B3
:00000001FF
