:100000000C944A000C9467000C9467000C946700F1
:100010000C9467000C9467000C9467000C946700C4
:100020000C9467000C94200A0C9467000C946700F1
:100030000C9467000C9467000C9467000C946700A4
:100040000C9467000C9467000C9467000C94670094
:100050000C9467000C9467000C9467000C94670084
:100060000C9467000C9467000C9467000C94670074
:100070000C9467000C9467000C9467000C94670064
:100080000C9467000C9467000C9467000C94670054
:100090000C94670011241FBECFEFD0E1DEBFCDBFAF
:1000A00012E0A0E0B1E0EAECF6E100E00BBF02C034
:1000B00007900D92A030B107D9F712E0A0E0B2E0AE
:1000C00001C01D92AB30B107E1F70C94A8000C946D
:1000D0000000CF93DF93CDB7DEB76D970FB6F894DE
:1000E000DEBF0FBECDBFDE011196E0E0F1E088E09B
:1000F00001900D928150E1F7CE0109969A8F898F78
:100100000E94CB0A89870E949C0A8A870E94810AE2
:10011000292F33272B878C871D8E84E0888F82E8D8
:1001200090E09D8B8C8B8BE090E09B8B8A8BCE013B
:1001300041960E945A048823D1F7CE0141960E942D
:10014000C5038130D1F3CE0101960E94A801D8CF1A
:1001500080E880936100109261000E9472010E9409
:10016000600982E80E94640980E00E944F090E94B1
:100170006900FFCF982F80917A008F7780937A0063
:1001800080917A00877F80937A0080917A008061E5
:1001900080937A00913051F0913020F0933079F0D3
:1001A00090E013C080917C008F730CC080917C0024
:1001B0008F7780937C0080917C00806403C0809165
:1001C0007C00806C80937C0091E0662341F061307C
:1001D00011F020E00AC080917C00806203C0809111
:1001E0007C008F7D80937C0021E080917C00807E6C
:1001F00080937C0080917C00842B80937C00809194
:100200007A00887F80937A0080917A00866080935C
:100210007A00922B892F9927089591B321E030E03D
:1002200002C0220F331F8A95E2F7422F4095942394
:1002300091BB80B3842380BB80917E00822B80930E
:100240007E0080917A00806880937A0080917C00A3
:10025000807C803C49F480E090E000000000019642
:100260002FE7803E9207C9F780917A008F7D8093B7
:100270007A0080917A00806480937A0080917A007D
:1002800084FFFCCF80917A00806180937A0040E007
:1002900020E030E080917A008F7D80937A00809119
:1002A0007A00806480937A0080917A0084FFFCCF8A
:1002B0008091780090917900280F391F80917A0001
:1002C000806180937A004F5F403121F780917A00FE
:1002D0008F7780937A00C90124E0969587952A95B7
:1002E000E1F7089521E830E0F9011082A0E8B0E0DC
:1002F0001C9210928200E9E8F0E0108280818093E5
:100300008800E7E8F0E010828081809386008C917D
:1003100084608C938C918D7F8C9388E1F90180832C
:10032000808182608083279A0895292F3327209324
:10033000870080938600089510928000E7E8F0E03F
:10034000108280818093860027982F9808950895C1
:100350000F931F93CF93DF938C010E947201E801EA
:100360000FC0888199810E949501C8010E9493095C
:1003700080E090E00E94950182E090E00E94930965
:100380000A811B8124960115110559F70E949C01D1
:10039000DF91CF911F910F91089520E030E0822FDF
:1003A0008295807F8093ED00EEEEF0E01192E83FC1
:1003B000F105E1F72F5F3F4F2F30310581F70895A9
:1003C0004091ED0020E030E0822F8295807F809385
:1003D000ED008091EF00807C29F44093ED00822FA6
:1003E000992708952F5F3F4F2F30310569F74093CC
:1003F000ED008FEF90E008958091EF00807C19F47C
:100400008FEF90E008959091EE00892F807E8032EA
:1004100021F0803411F0803A11F499270895892F42
:100420008F7119F480E090E0089599270895BC0138
:1004300040E050E005C0E60FF71F8091FA0080838E
:10044000242F8091EF004F5F5F4FE22FFF27992706
:100450008F709070E817F90774F30895AF92BF9208
:10046000CF92DF92EF92FF920F931F93CF93DF9380
:10047000CDB7DEB721970FB6F894DEBF0FBECDBF64
:10048000882359F471E0E72E63E018E0A2E0B2E0BF
:1004900070E051E040E001E056C08091E2008E77CC
:1004A00019F461E0E62E09C08091E20099278E7769
:1004B000907095958795E82EE3948091E3008E7077
:1004C00011F461E009C08091E30099278E7090706B
:1004D00095958795682F6F5F8091E4008E708330CB
:1004E00010F4A2E009C08091E40099278E7090700A
:1004F00095958795A82FAF5F8091E4008077813133
:1005000010F4B2E00CC08091E400992780779070DD
:1005100024E0959587952A95E1F7B82FBF5F2B2F9B
:100520002A0F312D311DC901860F911D089714F432
:1005300018E005C01B2F1A0F6F5F160F615071E096
:1005400050E041E000E020E030E0822F8295807FA3
:100550008093ED00EEEEF0E01192E83FF105E1F757
:100560002F5F3F4F2F30310581F7FF24AA24BB2492
:10057000DD24CE2CCC0C3EEFC30E013019F081E00F
:10058000898381C00093D8000894A11CB11CC0923B
:10059000E2002B2F269533272150304085E0220F93
:1005A000331F8A95E1F7862F99270197880F991FA6
:1005B000282B2093E3002A2F332721503040220F8D
:1005C000331F8B2F9927019734E0880F991F3A9595
:1005D000E1F78160822B8093E400C50123E09695CA
:1005E00087952A95E1F78093E5001092ED0010922F
:1005F000EE0080E88093EF008AE08093D80080913D
:10060000D90082FFFCCF8FEF8093DA00FF24B7CFB1
:100610008091EE00992785FF11C08091EF008F73C4
:100620008093EF001092D8008091D90082FDFCCF1A
:10063000198250E040E081E0D82E7EC08F7190702A
:10064000892B11F050E041E08091DA00282F332708
:1006500025FF11C0FF2041F48091DA008062809371
:10066000DA00F1E0FF2E07C08091DA00806280930B
:10067000DA0050E041E02F703070232B21F050E081
:1006800041E001E059C0513019F256C07111AF5F1D
:10069000A930F0F0B830F0F0193111F01F5F07C049
:1006A000E0E4EE1641F0E394F2E0CF0E18E0A2E0B1
:1006B000B2E070E0EBCF8091EF008F738093EF009A
:1006C0001092D8008091D90082FDFCCFDD243BC080
:1006D000A63050F02A2F33278B2F992701968217A7
:1006E00093071CF4AB2FAF5FBA2F8A2F8B0F612FAC
:1006F000681B6150862F81508830E0F44B2F5527BE
:100700002A2F33272F5F3F4F260F311DCA01880F35
:10071000991F880F991F8217930764F0CA01880FE9
:10072000991F480F591F2417350724F071E051E035
:1007300040E005C071E0AACF413009F4A7CF29817C
:10074000213009F41ACF8D2D992721960FB6F894F0
:10075000DEBF0FBECDBFDF91CF911F910F91FF90F4
:10076000EF90DF90CF90BF90AF90089581E080939D
:10077000D80082E08093E2008CE08093E30087E37E
:100780008093E40081E090E008951F93CF93DF937E
:10079000EC018A85882309F487C08F3109F484C06D
:1007A0008F3F09F481C088818295807F8093ED001E
:1007B0000E94FC01182F803271F0813218F48823D6
:1007C00041F067C0803409F45AC0803A09F061C032
:1007D00002C081E067C08091EF008F708F838885B1
:1007E00099850E9417028091F0009927847090707B
:1007F00095958795959587958B878091EF0084FFD8
:100800002BC081E08C878091F30086958695869534
:100810008E839091F2008091F3009695969596952F
:100820008295880F807E980F9D839091F100809132
:10083000F2009695969596958295880F807E980FF2
:100840009C839091F0008091F100969596959695F5
:100850008295880F807E11C01C868091F30082955E
:10086000869587708C839091F2008091F300929529
:1008700096959770880F880F880F980F9B831A871B
:100880008091EF008F738093EF001092EE0080E074
:1008900009C01A878091EF008F738093EF00109248
:1008A000EE0082E0992702C082E090E0DF91CF91D4
:1008B0001F9108950F931F93CF93DF93CDB7DEB7AA
:1008C00024970FB6F894DEBF0FBECDBF8C01FC019C
:1008D000818192810C9791F48285803609F0CCC495
:1008E00080818295807F8093ED008091EF008F73EF
:1008F0008093EF001092EE001082BEC40E94E001CF
:10090000982F8F3F09F4BBC480E6F801828790835B
:100910009295907F9093ED00EEEEF0E01192E83F1B
:10092000F105E1F7F801818192818630910509F4A2
:10093000D7C187309105B0F48330910509F4FCC02C
:100940008430910538F48130910529F1029709F03E
:1009500093C497C08430910509F43FC1059709F00D
:100960008BC473C18930910509F406C38A3091059F
:1009700040F48730910509F4F5C1089709F07CC46B
:1009800073C28A30910521F00B9709F075C4D7C363
:1009900020E030E08AC3F8018485882381F19681C4
:1009A0008581990F990F990F829586958770980F79
:1009B0009093F30095818481990F990F990F8295F7
:1009C00086958770980F9093F20094818381990F98
:1009D000990F990F829586958770980F9093F100E3
:1009E0008381880F880F880F8093F0008091EF003B
:1009F00080618093EF00F801278190E01FC0F8012B
:100A0000948183819295990F907E8695869586959F
:100A1000980F9093F30083818295880F807E809356
:100A2000F2008091EF008F7EE4CFF801A085B185C0
:100A3000A90FB11D8C918093FA009F5F9217A9F7BF
:100A4000F8018385882321F08091F000846003C041
:100A50008091F0008B7F8093F0008091EF00F8018F
:100A60009781892B8093EF008091EF008F738093A3
:100A7000EF008091EF0080648093EF0080E090E0D1
:100A800003C4F8018485882381F196818581990FBB
:100A9000990F990F829586958770980F9093F30020
:100AA00095818481990F990F990F8295869587700A
:100AB000980F9093F20094818381990F990F990F69
:100AC000829586958770980F9093F1008381880FA7
:100AD000880F880F8093F0008091EF0080618093F1
:100AE000EF00F801278190E01FC0F8019481838115
:100AF0009295990F907E869586958695980F9093FE
:100B0000F30083818295880F807E8093F20080912C
:100B1000EF008F7EE4CFF801A085B185A90FB11D4C
:100B20008C918093FA009F5F9217A9F7F8011386C2
:100B30008091F0008B7F4CC0F8018485882359F1A7
:100B400096818581990F990F990F82958695877067
:100B5000980F9093F30095818481990F990F990FC5
:100B6000829586958770980F9093F2009481838187
:100B7000990F990F990F829586958770980F90938A
:100B8000F1008381880F880F880F8093F000809197
:100B9000EF00806115C0F801948183819295990FCF
:100BA000907E869586958695980F9093F300838125
:100BB0008295880F807E8093F2008091EF008F7E77
:100BC0008093EF0081E0F80183878091F0008460DA
:100BD0008093F0008091EF0043CF19821A821B822C
:100BE0001C823B818C81880F880F880F932F9295F0
:100BF00096959770890F8093F7002A81330F330FF2
:100C0000330F822F829586958770380F3093F600C8
:100C10009981220F220F220F892F82958695877046
:100C2000280F2093F500990F990F990F9093F400D6
:100C30008091EF00F8019781892B8093EF008091DC
:100C4000F4008B7F8093F4003DC019821A821B82CE
:100C50001C823B818C81880F880F880F932F92957F
:100C600096959770890F8093F7002A81330F330F81
:100C7000330F822F829586958770380F3093F60058
:100C80009981220F220F220F892F829586958770D6
:100C9000280F2093F500990F990F990F9093F40066
:100CA0008091EF00F8019781892B8093EF001386E4
:100CB0008091F40084608093F4008091F0008B7F39
:100CC0008093F0008091F4008E7F8093F4008091F7
:100CD000EF008F738093EF008091EF008068CCCE9F
:100CE00019821A821B821C823B818C81880F880F9B
:100CF000880F932F929596959770890F8093F700A0
:100D00002A81330F330F330F822F82958695877098
:100D1000380F3093F6009981220F220F220F892F6E
:100D2000829586958770280F2093F500990F990F6B
:100D3000990F9093F4008091EF00F8019781892B2F
:100D40008093EF0081E083878091F400846080933A
:100D5000F4008091F00084608093F0008091EF00B7
:100D60008F7DEAC1F8018485882359F196818581B8
:100D7000990F990F990F829586958770980F909388
:100D8000F30095818481990F990F990F829586952B
:100D90008770980F9093F20094818381990F990F37
:100DA000990F829586958770980F9093F1008381B3
:100DB000880F880F880F8093F0008091EF0080618A
:100DC00015C0F801948183819295990F907E869544
:100DD00086958695980F9093F30083818295880F6E
:100DE000807E8093F2008091EF008F7E8093EF00F1
:100DF0008FEF9FEFAFEFBFEF89839A83AB83BC8305
:100E00003B818C81880F880F880F932F9295969540
:100E10009770890F8093F7002A81330F330F330FB8
:100E2000822F829586958770380F3093F6009981CE
:100E3000220F220F220F892F829586958770280F07
:100E40002093F500990F990F990F9093F4008091DA
:100E5000EF00F8019781892B8093EF008091F400D7
:100E60008B7F8093F40015C1F8018485882359F1A4
:100E700096818581990F990F990F82958695877034
:100E8000980F9093F30095818481990F990F990F92
:100E9000829586958770980F9093F2009481838154
:100EA000990F990F990F829586958770980F909357
:100EB000F1008381880F880F880F8093F000809164
:100EC000EF00806115C0F801948183819295990F9C
:100ED000907E869586958695980F9093F3008381F2
:100EE0008295880F807E8093F2008091EF008F7E44
:100EF0008093EF008FEF9FEFAFEFBFEF89839A836F
:100F0000AB83BC833B818C81880F880F880F932F24
:100F1000929596959770890F8093F7002A81330FE9
:100F2000330F330F822F829586958770380F309359
:100F3000F6009981220F220F220F892F8295869524
:100F40008770280F2093F500990F990F990F9093B0
:100F5000F4008091EF00F8019781892B8093EF00D6
:100F600013868091F40084608093F4008091F000F7
:100F70008B7F8093F0008DC0F8018485882359F120
:100F800096818581990F990F990F82958695877023
:100F9000980F9093F30095818481990F990F990F81
:100FA000829586958770980F9093F2009481838143
:100FB000990F990F990F829586958770980F909346
:100FC000F1008381880F880F880F8093F000809153
:100FD000EF00806115C0F801948183819295990F8B
:100FE000907E869586958695980F9093F3008381E1
:100FF0008295880F807E8093F2008091EF008F7E33
:101000008093EF008FEF9FEFAFEFBFEF89839A835D
:10101000AB83BC833B818C81880F880F880F932F13
:10102000929596959770890F8093F7002A81330FD8
:10103000330F330F822F829586958770380F309348
:10104000F6009981220F220F220F892F8295869513
:101050008770280F2093F500990F990F990F90939F
:10106000F4008091EF00F8019781892B8093EF00C5
:1010700081E083878091F40084608093F400809104
:10108000F00084608093F0008091EF008F7D80936A
:10109000EF008091F400816018CEF801A085B18541
:1010A000A90FB11D8C918093FA00922F2F5F3F4FB3
:1010B000F8018781981788F319821A821B821C8293
:1010C0003B818C81880F880F880F932F929596957E
:1010D0009770890F8093F7002A81330F330F330FF6
:1010E000822F829586958770380F3093F60099810C
:1010F000220F220F220F892F829586958770280F45
:101100002093F500990F990F990F9093F400809117
:10111000EF009781892B8093EF0081E08387809196
:10112000F40084608093F4008091F00084608093E8
:10113000F0008091EF0080628093EF00C3CDF80152
:101140008485882359F196818581990F990F990F8C
:10115000829586958770980F9093F300958184818E
:10116000990F990F990F829586958770980F909394
:10117000F20094818381990F990F990F829586953A
:101180008770980F9093F1008381880F880F880FE4
:101190008093F0008091EF00806115C0F801948188
:1011A00083819295990F907E869586958695980F66
:1011B0009093F30083818295880F807E8093F20064
:1011C0008091EF008F7E8093EF0020E030E008C038
:1011D000F801A085B185A90FB11D8C918093FA000B
:1011E000922F2F5F3F4FF8018781981788F38FEF79
:1011F0009FEFAFEFBFEF89839A83AB83BC833B81C3
:101200008C81880F880F880F932F929596959770F1
:10121000890F8093F7002A81330F330F330F822F0A
:10122000829586958770380F3093F6009981220F4A
:10123000220F220F892F829586958770280F209381
:10124000F500990F990F990F9093F4008091EF009A
:101250009781892B8093EF0081E083878091F40050
:1012600084608093F4008091F00084608093F000AB
:101270008091EF0080620BCFF8011286FFCB8FE1E7
:10128000F80182878FEF90E024960FB6F894DEBFC6
:101290000FBECDBFDF91CF911F910F9108950E9496
:1012A000B603882319F480E090E008950E94CD01F0
:1012B0008091D80082608093D80081E090E008950A
:1012C0008FEF81B912B8089582B9089590B180B1B5
:1012D0009295907F82958F70982B92B908958FEF99
:1012E00080B90895382F8830D8F4662359F422B194
:1012F00081E090E002C0880F991F3A95E2F780954F
:1013000028230BC0613061F422B181E090E002C07B
:10131000880F991F3A95E2F7282B22B981E001C086
:1013200080E099270895EF92FF920F931F93BC01DD
:1013300080910002813071F5F8942091050230917E
:101340000602409107025091080278947B01002721
:1013500011272E0D3F1D401F511FF894809105024B
:1013600090910602A0910702B0910802821793079C
:10137000A407B50779F08091050290910602A0912B
:101380000702B09108028E159F05A007B10711F062
:101390007894E3CF1F910F91FF90EF900895F89408
:1013A0001092B0001092B2001092B30080917000C1
:1013B0008E7F80937000809170008D7F809370008D
:1013C0008091B0008F7C8093B0008091B000877BCB
:1013D00088608093B0008091B6008F7E8860809393
:1013E000B60080E28093B3008091B000887F816076
:1013F0008093B0008091B600992787709070892BF8
:10140000C9F7B99A80917000826080937000109241
:101410000502109206021092070210920802109222
:1014200004021092030210920A021092010210921A
:1014300009021092020281E08093000278940895DC
:101440001F920F920FB60F9211242F938F939F9399
:10145000AF93BF938091050290910602A09107027D
:10146000B09108020196A11DB11D809305029093D1
:101470000602A0930702B0930802809103029091A4
:101480000402019690930402809303028091030268
:1014900090910402885E934051F5109204021092DC
:1014A000030280910A028F5F80930A0280910A02F0
:1014B0008C33E9F410920A02809101028F5F8093CD
:1014C0000102809101028C3391F41092010280910B
:1014D00009028F5F8093090280910902883139F4F3
:1014E00010920902809102028F5F80930202BF91E5
:1014F000AF919F918F912F910F900FBE0F901F90E2
:10150000189542E060E083E00E94BA0082E00E9409
:101510000D01AA27BB27BC01CD012DE730E040E03B
:1015200050E00E94100B24E630E040E050E00E94C2
:10153000430BDA01C901089541E060E081E00E94B7
:10154000BA0081E00E940D016FEF73E0681B790B18
:1015500021E230E0AC01429FC001439F900D529FB9
:10156000900D11240E942F0BE1E0A2EAB1E08D91D1
:101570009C9111976817790720F4EE5F1496E13378
:10158000B1F7FF27E7FDF095EE0FFF1FE256FE4F84
:1015900080819927089540E060E081E00E94BA00D0
:1015A00080E00E940D016FEF73E0681B790B24E669
:1015B00030E0AC01429FC001439F900D529F900DBF
:1015C00011240E942F0B27E230E0E6E5F1E0808154
:1015D00091816817790730F021503040263231056B
:1015E00051F018C02F5F3F4F32962C34310579F7F8
:1015F0002BE430E00FC027E230E0E6E5F1E0808147
:1016000091816817790730F02150304032972115C9
:101610003105A9F7822F8F50992787FD909508955E
:10162000629FD001739FF001829FE00DF11D649FC6
:10163000E00DF11D929FF00D839FF00D749FF00D52
:10164000659FF00D9927729FB00DE11DF91F639FF3
:10165000B00DE11DF91FBD01CF0111240895AA1B92
:10166000BB1B51E107C0AA1FBB1FA617B70710F08D
:10167000A61BB70B881F991F5A95A9F780959095BF
:10168000BC01CD010895A1E21A2EAA1BBB1BFD01CE
:101690000DC0AA1FBB1FEE1FFF1FA217B307E40751
:1016A000F50720F0A21BB30BE40BF50B661F771FA9
:1016B000881F991F1A9469F7609570958095909589
:0A16C0009B01AC01BD01CF010895AC
:1016CA0064001E001C010000910358032403F30266
:1016DA00C3029B0274024F022C020C02EE01D101DA
:1016EA00B7019E01870171015D014A013801270195
:1016FA0017010801FA00ED00E100D500CA00C00098
:10170A00B600AD00A4009C0094008D008600800005
:10171A00790074006E00690064005F005B00570086
:10172A0053004F004B004800450042003F003C0078
:10173A003A0037003500320030002E002C002B0012
:10174A0029002700260024002300210020001F0072
:10175A001D001C001B001A001900180017001600B3
:10176A000000080701001A04020048030400BC0232
:10177A00080062020C003002110008021700D601AC
:10178A001E00A40124007C012C004A0132002C0115
:10179A00390004013F00DC004600B4004D008C0013
:1017AA00550064005B0046006200280067001400D0
:1017BA006E000A007800050087000200A000010000
:00000001FF
